S00D0000696D6167652E7372656314
S2140000000C9430000C9450000C9450000C9450004B
S2140000100C9450000C9450000C9450000C9450001B
S2140000200C9450000C9450000C9450000C9450000B
S2140000300C9450000C9450000C9450000C945000FB
S2140000400C9450000C9450000C9450000C945000EB
S2140000500C9450000C9450000C9450000C945000DB
S21400006011241FBECFEFDFE0DEBFCDBF10E0A0E65D
S214000070B0E0EEEAF0E00FEF03950BBF04C0D895B2
S2140000800D923196C8F3A036B107C9F710E0A0E686
S214000090B0E001C01D92A036B107E1F70C94520003
S2120000A00C940000CFEFDFE0DEBFCDBFFFCF39
S21401F000F8948FEF9FE08DBF9EBF0E94B5F80E94D7
S21401F010E4F899278D36910509F477C08E36910567
S21401F02084F48436910509F455C08536910524F497
S21401F03082369105C1F1EBCF8A36910509F48CC071
S21401F040E6CF8437910509F47DC0853791052CF408
S21401F0508237910509F485C0DACF85379105B9F66F
S21401F0600E94F8F8082F192F0E94F8F8D92FC82FF8
S21401F07021978FEFCF3FD80751F2812F99278050E4
S21401F0809E4F909301FE809300FE0E94E4F8F12FBC
S21401F090E02FFF6F80830F5F1F4F2197EFEFCF3F6A
S21401F0A0DE0759F7B4CF0E94F8F8082F192F0E94EF
S21401F0B0F8F8D92FC82F2197FFEFCF3FDF0709F4C4
S21401F0C0A6CFF12FE02FC895802D0E94BAF80F5FCA
S21401F0D01F4FF1CF0E94F8F8082F192F0E94F8F859
S21401F0E0D92FC82F21978FEFCF3FD80709F48FCF9D
S21401F0F0F12FE02F81910E2F1F2F0E94BAF8219732
S21401F100FFEFCF3FDF07A1F782CFC0E08FEFEC2FF5
S21401F110FF27E050F047C1938083CE5FCE3FB9F71B
S21401F120C0E0EC2FFF27E050F04780818C1731F0CC
S21401F13086E60E94BAF88C2F0E94BAF8CE5FCE3FC0
S21401F14081F765CFC0E0D0E08C2F0E94BAF82196F7
S21401F150CF3FD105C9F3C0F30E94F8F8E82FF92F85
S21401F160099582E70E94BAF852CF539A549A88E1D9
S21401F17089B908955D9BFECF8CB90895CF93DF932F
S21401F180D92FC82F8881882331F089910E94BAF837
S21401F19088818823D1F7DF91CF910895CF93DF93AC
S21401F1A0D92FC82FF92FE82FC895802D882349F02D
S21401F1B00E94BAF82196FD2FEC2FC895802D882342
S21401F1C0B9F7DF91CF9108955F9BFECF8CB1992758
S21401F1D087FD90950895F92FE82F5F9B05C08CB1A8
S21401F1E0808381E090E0089580E090E0089508959E
S21401F1F00F931F930E94E4F8082F0E94E4F8182F3B
S20E01F200912F802F1F910F910895A2
S804000000FB
