:100000000C94AA000C94C7000C94C7000C94C70071
:100010000C94C7000C94C7000C9446030C94C700C2
:100020000C9458030C94C7000C94C7000C94C700A0
:100030000C94C7000C94C7000C94C7000C94C70024
:100040000C94C7000C94C7000C94C7000C94C70014
:100050000C94C70000000000000000000001010136
:100060000101010101020202020202020202020275
:10007000020202020202020202020202030303035C
:10008000030303030303030303030303030304043E
:10009000040404040404040404040505050505051A
:1000A00005050506060606060606060707070707EE
:1000B0000708080808080809090909090A0A0A0AB4
:1000C0000A0B0B0B0B0C0C0C0C0D0D0D0E0E0E0E6B
:1000D0000F0F0F1010101111121212131314141508
:1000E000151516161717181819191A1B1B1C1C1D85
:1000F0001E1E1F20202122232324252627272829CE
:100100002A2B2C2D2E2F3031323334353738393AD3
:100110003B3D3E3F4142444547484A4C4D4F51527A
:100120005456585A5C5E60626466696B6D70727595
:10013000777A7C7F8285888B8E9194979B9EA2A5EF
:10014000A9ACB0B4B8BCC0C4C9CDD2D6DBE0E5EA36
:10015000EFF4FAFF11241FBECFE5D8E0DEBFCDBF1C
:1001600010E0A0E6B0E0E2ECF9E002C005900D92EC
:10017000AC37B107D9F711E0ACE7B0E001C01D9290
:10018000AE31B107E1F70E94DA000C94DF040C9461
:100190000000B89A0E9426020E944E010E9433027B
:1001A0002DE088E190E00FB6F894A89581BD0FBED0
:1001B00021BD08950E94C9000E94FF0380E06FEFF7
:1001C0000E94280481E06FEF0E94280482E06FEF14
:1001D0000E94280483E06FEF0E94280478940E9414
:1001E0007702A895FCCF8CE890E008950895FF92DF
:1001F0000F931F93182F062FF42EC49885E00E94AA
:100200002E02812F0E942E02802F0E942E028F2DFF
:100210000E942E02C49A1F910F91FF9008956623A9
:1002200061F440E060E170E002C0660F771F8A95DC
:10023000E2F78CE00E94F70008954FEFF3CF1F9391
:10024000182FC49883E00E942E02812F0E942E0254
:1002500080E00E942E02C49A1F9108950F931F936D
:10026000182F062FC49882E00E942E02812F0E9430
:100270002E02802F0E942E02C49A1F910F91089582
:1002800080E660E60E942E010895682F6295660F51
:10029000607E64608FE00E942E010895BC9AC49A2B
:1002A000C49880EC0E942E02C49A80EA9FE00197D5
:1002B000F1F78CE06CE00E942E018AE263E40E9478
:1002C0002E0189E261EF0E942E0188E265E00E9422
:1002D0002E018BE261E00E942E010E94400180E02D
:1002E00090E00E9445018BE261E00E942E0108959A
:1002F0001F93CF93DF93EC01C49883E00E942E02FA
:1003000081E60E942E0280E00E942E02182F869520
:1003100086958A8380E00E942E0212951073982F92
:100320009695969596959C70192B8370182B1B8328
:1003300080E00E942E02888380E00E942E02898342
:1003400080E00E942E028F708C83882361F010E081
:1003500080E00E942E02FE01E10FF11D85831F5FE8
:100360008C811817A8F3C49A8CE261E040E00E94E7
:10037000F700DF91CF911F910895B299FECF8AE9DE
:1003800090E00E9478018AE990E00895B29B04C051
:1003900020E030E0C9010895C49880EA0E942E024E
:1003A00080E00E942E02C49A80FFF2CF8AE990E09A
:1003B0000E9478012AE930E0EDCF1F93CF93DF93BD
:1003C000EC01C49882E00E942E0281E30E942E027A
:1003D0008B8182958F709A81990F990F892B0E943A
:1003E0002E029B81892F8C70880F880F880F886060
:1003F0009370892B0E942E0288810E942E0289818F
:100400000E942E028C810E942E028C81882359F03A
:1004100010E0FE01E10FF11D85810E942E021F5F99
:100420008C811817B0F3C49AC49882E00E942E02FF
:1004300080E30E942E0288E00E942E02C49ADF917F
:10044000CF911F9108950E94DD01089587B3806BBD
:1004500087BB80E58DB981E08EB908958FB9779B10
:10046000FECF8FB1089580E090E00E94D704809382
:10047000A8000895DB01E6E6F0E09C919093660009
:1004800011969C919093670035979091A800908366
:1004900080936400CF010E9423020895FF920F937E
:1004A0001F93CF93DF93082F10E0C4E5D0E0FE0147
:1004B000E00FF11FF49080E06F2D0E94280481E08E
:1004C0006F2D0E94280482E06F2D0E942804C01B1B
:1004D000D10BC150DF4FFE016491609583E00E9413
:1004E0002804DF91CF911F910F91FF900895CF9332
:1004F000DF930E94C601EC01009729F029818091C9
:10050000A800281719F0DF91CF91089588B391E0E2
:10051000892788BB9B819033A1F09130A1F78D8111
:10052000813009F454C08130A8F1823021F1833048
:1005300051F780917C00882309F06CC090937C0077
:10054000E2CF8D81882359F420936E0088818093B7
:100550006F008EE690E00E9423029B81DECF823006
:1005600091F628E088E190E00FB6F894A89581BD57
:100570000FBE21BDFFCF80917C00813009F47CC08B
:10058000809160008823D1F28150809360000E94A6
:100590004E02B9CF80917D008F5F80937D008150A6
:1005A000813009F455C08130E0F4AD9880E06FEF00
:1005B0000E94280481E06FEF0E94280482E06FEF20
:1005C0000E94280483E06FEF0E9428049CCF8E8154
:1005D000843008F098CF833091F16F810E94280415
:1005E00092CF8230D1F0833009F08DCFAD9880E08A
:1005F00060E00E94280481E060E00E94280482E01C
:1006000060E00E94280483E06FEF0E9428041092AB
:100610007D0079CF10927C0076CFAD9A80E06FEFAD
:100620000E94280481E06FEF0E94280482E06FEFAF
:100630000E94280483E060E00E94280464CF6F8158
:1006400060950E9428048F818823A1F4AD985BCF28
:10065000AD9A80E060E00E94280481E060E00E94A2
:10066000280482E060E00E94280483E060E00E94A9
:10067000280449CFAD9A47CF809160008F3F51F257
:100680008F5F809360000E944E023DCF1F920F92B9
:100690000FB60F9211248F939F938CE692E09DBD2D
:1006A0008CBD9F918F910F900FBE0F901F9018954A
:1006B0001F920F920FB60F9211242F933F934F93D7
:1006C0005F938F939F93AF93BF93CF93DF93EF93FA
:1006D000FF9380918B00882309F050C0809119010D
:1006E0008823C9F44DE051E0CEE7D0E020E030E0CF
:1006F000D901AA57BF4FF901E65EFE4F80818C9366
:10070000FA0181919191AF01899399932F5F3F4FA6
:100710002430310569F710928A00809115018823F1
:1007200009F4DC9880911601882309F4DD98809102
:100730001701882309F4AC9880911801882309F4E3
:10074000959880917E0090917F0099BD88BD8652DA
:10075000924019F081E080938B00FF91EF91DF913F
:10076000CF91BF91AF919F918F915F914F913F91A9
:100770002F910F900FBE0F901F90189540918A00F7
:10078000A42FB0E058E01CC0DC9A4F5F443039F130
:10079000A42FB0E0FD01EE0FFF1FE258FF4F0190C4
:1007A000F081E02D22E0E632F207C9F0F9BDE8BDA4
:1007B0002CB53DB588B599B528173907E8F058BF6D
:1007C000AA57BF4FEC91E130A9F0E130E8F2E230F6
:1007D00079F0E330D1F6959A4F5F4430C9F64093F3
:1007E0008A0086E292E099BD88BD10928B00B5CF59
:1007F000AC9ACBCFDD9AC9CF40938A00AECFADE0A3
:10080000B1E080E090E026E232E0FC01E65EFE4FDF
:1008100080832D933D93019684309105B1F78AB37F
:1008200080638ABB84B3806384BB8D9ADC98DD9837
:10083000AC989598AD988EB58C688EBD81E792E0A6
:100840009BBD8ABD39BD28BD89B7886289BF08951F
:100850000F931F93CF93DF93782F6623C1F06F3FE1
:1008600009F044C0E82FF0E0EB5EFE4F81E08083AA
:10087000713009F490C0713008F43FC0723009F44F
:1008800092C0733009F48BC006E212E007C006E2A2
:1008900012E0E72FF0E0EB5EFE4F108281E08093E4
:1008A0001901EAE1F1E030E08081871741F13F5F13
:1008B00031963430C9F787E292E090931401809327
:1008C0001301EDE0F1E0A0E0B0E080819181081734
:1008D0001907A8F111963296A430B105B1F710921C
:1008E0001901DF91CF911F910F91089500E011E060
:1008F000061B1109000F111FCCCFDC9AC5CF333076
:10090000D0F6E32FF0E0CF010196AF01465E5E4FD7
:10091000DC01A65EBE4F2C91DA012C93EE0FFF1F77
:10092000E35FFE4F880F991F835F9E4FDC018D911F
:100930009C91918380833F5F333018F3BCCFA33009
:10094000C8F4E1E1F1E0CCE1D1E082E08A1B21E0F2
:1009500030E0281B3109220F331F235F3E4F808177
:100960009181938382838881898332972197E217CB
:10097000F307A9F7FD01EE0FFF1FE35FFE4F1183A1
:100980000083A65EBE4F7C9310921901DF91CF9138
:100990001F910F910895DD9A06E212E07FCF959A9C
:1009A00006E212E07BCFAC9A06E212E077CFE19943
:1009B000FECF9FBB8EBBE09A99278DB30895F89424
:0209C000FFCF67
:1009C200FFA900000101000000000000000000007B
:0C09D200303001010000000000000000B7
:00000001FF
