:100000000C94AA000C94C7000C94C7000C94C70071
:100010000C94C7000C94C7000C94BE030C94C7004A
:100020000C94D0030C94C7000C94C7000C94C90026
:100030000C94C7000C94C7000C94C7000C94C70024
:100040000C94C7000C94C7000C94C7000C94C70014
:100050000C94C70000000000000000000001010136
:100060000101010101020202020202020202020275
:10007000020202020202020202020202030303035C
:10008000030303030303030303030303030304043E
:10009000040404040404040404040505050505051A
:1000A00005050506060606060606060707070707EE
:1000B0000708080808080809090909090A0A0A0AB4
:1000C0000A0B0B0B0B0C0C0C0C0D0D0D0E0E0E0E6B
:1000D0000F0F0F1010101111121212131314141508
:1000E000151516161717181819191A1B1B1C1C1D85
:1000F0001E1E1F20202122232324252627272829CE
:100100002A2B2C2D2E2F3031323334353738393AD3
:100110003B3D3E3F4142444547484A4C4D4F51527A
:100120005456585A5C5E60626466696B6D70727595
:10013000777A7C7F8285888B8E9194979B9EA2A5EF
:10014000A9ACB0B4B8BCC0C4C9CDD2D6DBE0E5EA36
:10015000EFF4FAFF11241FBECFE5D8E0DEBFCDBF1C
:1001600010E0A0E6B0E0E8E8FBE002C005900D92E8
:10017000AC37B107D9F711E0ACE7B0E001C01D9290
:10018000A432B107E1F70E9417010C94C2050C9448
:1001900000001F920F920FB60F9211248F939F931E
:1001A00080917C0090917D00009741F413BE9F9157
:1001B0008F910F900FBE0F901F90189501979093FD
:1001C0007D0080937C009F918F910F900FBE0F90C8
:1001D0001F90189525E023BF12BE90937D00809359
:1001E0007C00089520E080917C0090917D00892B17
:1001F00009F021E0822F0895B89A13BE12BE89B784
:10020000816089BF1CBE10927D0010927C000E940C
:1002100063020E948B010E9470022DE088E190E051
:100220000FB6F894A89581BD0FBE21BD08950E9418
:10023000FC000E94870480E06FE70E94C60481E012
:100240006FE70E94C60482E06FE70E94C60483E065
:100250006FE70E94C60478940E94A702A895FCCF7D
:100260008EE890E008950895FF920F931F93182F42
:10027000062FF42EC49885E00E946B02812F0E9405
:100280006B02802F0E946B028F2D0E946B02C49A1A
:100290001F910F91FF900895662361F440E060E1A3
:1002A00070E002C0660F771F8A95E2F78CE00E942B
:1002B000340108954FEFF3CF1F93182FC49883E0B4
:1002C0000E946B02812F0E946B0280E00E946B02F1
:1002D000C49A1F9108950F931F93182F062FC49847
:1002E00082E00E946B02812F0E946B02802F0E948D
:1002F0006B02C49A1F910F91089580E660E60E94F8
:100300006B010895682F6295660F607E64608FE0D0
:100310000E946B010895BC9AC49AC49880EC0E9414
:100320006B02C49A80EA9FE00197F1F78CE06CE0E1
:100330000E946B018AE263E40E946B0189E261EF33
:100340000E946B0188E265E00E946B018BE261E034
:100350000E946B010E947D0180E090E00E9482017A
:100360008BE261E00E946B0108951F93CF93DF93AE
:10037000EC01C49883E00E946B0281E60E946B024C
:1003800080E00E946B02182F869586958A8380E014
:100390000E946B0212951073982F969596959695DC
:1003A0009C70192B8370182B1B8380E00E946B02BA
:1003B000888380E00E946B02898380E00E946B0248
:1003C0008F708C83882361F010E080E00E946B02C4
:1003D000FE01E10FF11D85831F5F8C811817A8F3C3
:1003E000C49A8CE261E040E00E943401DF91CF9139
:1003F0001F910895B299FECF8CE990E00E94B5015B
:100400008CE990E00895B29B04C020E030E0C9017F
:100410000895C49880EA0E946B0280E00E946B02FB
:10042000C49A80FFF2CF8CE990E00E94B5012CE9DC
:1004300030E0EDCF1F93CF93DF93EC01C49882E0BF
:100440000E946B0281E30E946B028B8182958F7008
:100450009A81990F990F892B0E946B029B81892F9A
:100460008C70880F880F880F88609370892B0E948A
:100470006B0288810E946B0289810E946B028C81D1
:100480000E946B028C81882359F010E0FE01E10F7D
:10049000F11D85810E946B021F5F8C811817B0F3DC
:1004A000C49AC49882E00E946B0280E30E946B02AF
:1004B00088E00E946B02C49ADF91CF911F9108954A
:1004C0000E941A02089587B3806B87BB80E58DB9BF
:1004D00081E08EB908958FB9779BFECF8FB10895D3
:1004E00080E090E00E94BA058093AA000895DB01A5
:1004F000E6E6F0E09C919093660011969C919093B3
:10050000670035979091AA00908380936400CF0193
:100510000E94600208951F93182F80E0612F0E94AF
:10052000C60481E0612F0E94C60482E0612F0E9410
:10053000C604EFEFF0E0E11BF109EC5AFF4FE49144
:10054000E09583E06E2F0E94C6041F910895CF931B
:10055000DF930E940302EC01009729F0298180912A
:10056000AA00281719F0DF91CF91089588B391E080
:10057000892788BB9B819033B1F19130A1F78D81A0
:10058000823009F488C0833008F056C0882309F00F
:1005900045C00E94F200882309F461C080917F0069
:1005A0008F5F80937F008150813009F4D6C0813005
:1005B00008F4C2C0823009F4AEC0833009F066C0CE
:1005C00080E060E00E94860581E060E00E94860590
:1005D00082E060E00E94860583E060E00E9486057C
:1005E00010927F0053C08D81882359F420936E00B0
:1005F000888180936F008EE690E00E9460029B816C
:10060000BCCF823009F0AFCF28E088E190E00FB690
:10061000F894A89581BD0FBE21BDFFCF813009F0B0
:10062000A2CF8E81843008F09ECF833009F469C058
:100630006F810E94C60497CF833009F45BC0843079
:1006400009F091CF2E81243008F08DCF8F8188233F
:1006500009F05CC0822F60E00E94860584CF809103
:100660007F00882319F180E060E00E94860581E028
:1006700060E00E94860582E060E00E94860583E0DB
:1006800060E00E94860583E080937F0081E391E033
:100690000E94EA0068CF80917E00813009F180914C
:1006A00060008823B9F490937E005DCF80E061E024
:1006B0000E94860581E061E00E94860582E061E09B
:1006C0000E94860583E061E00E94860583E08093B6
:1006D0007F00DCCF8150809360000E948B0243CF6B
:1006E000809160008F3F51F08F5F809360000E9487
:1006F0008B0239CF80917E008823A9F210927E0070
:1007000032CF6F8160950E94C6042DCF822F61E0A9
:100710000E94860528CF80E061E00E94860581E086
:1007200061E00E94860582E061E00E94860583E028
:1007300061E00E948605AACF80E061E00E94860504
:1007400081E061E00E94860582E061E00E9486050A
:1007500083E060E00E94860599CF80E060E00E941F
:10076000860581E060E00E94860582E060E00E94EC
:10077000860583E061E00E94860588CF1F920F9274
:100780000FB60F9211248F939F938CE692E09DBD3C
:100790008CBD9F918F910F900FBE0F901F90189559
:1007A0001F920F920FB60F9211242F933F934F93E6
:1007B0005F938F939F93AF93BF93CF93DF93EF9309
:1007C000FF9380918D00882309F050C080911F0114
:1007D0008823C9F44FE051E0C0E8D0E020E030E0E9
:1007E000D901A857BF4FF901E05EFE4F80818C937D
:1007F000FA0181919191AF01899399932F5F3F4FB6
:100800002430310569F710928C0080911B018823F8
:1008100009F4DC9880911C01882309F4DD9880910B
:100820001D01882309F4AC9880911E01882309F4E6
:100830009598809180009091810099BD88BD8652E5
:10084000924019F081E080938D00FF91EF91DF914C
:10085000CF91BF91AF919F918F915F914F913F91B8
:100860002F910F900FBE0F901F90189540918C0004
:10087000A42FB0E058E01FC0809117018111DC9ACD
:100880004F5F443059F1A42FB0E0FD01EE0FFF1F80
:10089000E058FF4F0190F081E02D22E0E632F207B0
:1008A000E9F0F9BDE8BD2CB53DB588B599B5281777
:1008B000390750F158BFA857BF4FEC91E130E9F02C
:1008C000E130D0F2E23099F0E330D1F680911A01B4
:1008D0008823B1F2959A4F5F4430A9F640938C007B
:1008E00086E292E099BD88BD10928D00AECF8091D6
:1008F0001901882329F2AC9AC3CF8091180188236B
:1009000009F4BECFDD9ABCCF40938C009ECF1092ED
:10091000200126E232E03093100120930F01109263
:10092000170181E08093210130931201209311017E
:100930001092180182E080932201309314012093D9
:1009400013011092190183E0809323013093160163
:100950002093150110921A018AB380638ABB84B375
:10096000806384BB8D9ADC98DD98AC989598AD989F
:10097000969A8EB58C688EBD81E792E09BBD8ABD4C
:1009800039BD28BD89B7886289BF08950F931F9329
:10099000CF93DF93782F843068F5662381F506E2E4
:1009A00012E0E72FF0E0E55EFE4F108281E08093D9
:1009B0001F01E0E2F1E030E08081871709F465C0B3
:1009C0003F5F31963430C1F787E292E09093160191
:1009D00080931501EFE0F1E0A0E0B0E0808191812B
:1009E0000817190760F111963296A430B105B1F7D6
:1009F00010921F01DF91CF911F910F9108956F3FCA
:100A0000A1F4E82FF0E0E55EFE4F81E080837130D5
:100A100009F473C0713008F059C080911701882320
:100A200059F0DC9A06E212E0C1CF00E011E0061BAB
:100A30001109000F111FB5CF06E212E0B7CFA330A6
:100A4000C8F4E3E1F1E0C2E2D1E082E08A1B21E0F8
:100A500030E0281B3109220F331F215F3E4F808178
:100A60009181938382838881898332972197E217CA
:100A7000F307A9F7FD01EE0FFF1FE15FFE4F1183A2
:100A80000083A05EBE4F7C93B3CF333008F09CCF81
:100A9000E32FF0E0CF010196AF01405E5E4FDC0135
:100AA000A05EBE4F2C91DA012C93EE0FFF1FE15F89
:100AB000FE4F880F991F815F9E4FDC018D919C91A5
:100AC000918380833F5F333018F37ECF723061F0C3
:100AD000733009F0B1CF80911A01882309F4ACCFAB
:100AE000959A06E212E062CF80911901882309F4F9
:100AF000A3CFAC9A06E212E059CF80911801882367
:100B000009F49ACFDD9A06E212E050CF982F843094
:100B1000E0F4A82FB0E0FD01E95EFE4F608366239C
:100B2000A9F0A55EBE4F8C918823B1F09130F1F011
:100B30009130D0F09230E1F0933071F4959A0EC07C
:100B4000823081F0833009F4AD980895813041F00E
:100B50008130B0F7DC9808959330B9F7AD9A0895D5
:100B6000DD980895AC980895DC9A0895DD9A08956B
:100B7000AC9A0895E199FECF9FBB8EBBE09A99276E
:080B80008DB30895F894FFCF36
:100B8800FFA90000010100000000000000000000B3
:0C0B9800303001010000000000000000EF
:00000001FF
