:200000000C947C020C9497020C9497020C9497020C9497020C9497020C9497020C94970233
:200020000C9497020C9497020C9413030C9497020C9497020C9497020C9497020C9497027B
:200040000C9497020C9497020C9497020C9497020C9497023C2F237777772E6461732D6C91
:2000600061626F722E6F7267233C2F234E6575657220626F72672D313620426175736174D8
:200080007A00010102030302010103030201010203030303020203030202000000000000B2
:2000A0000000000000000000000000000000000000000000020004000A0014001E003000CE
:2000C0003C003E0044004A0050005A005E00640068006E0078007E00880092009C00A60084
:2000E000B000BA00C400CE00D000D200DC00E600F000FA000E011C012801340140014A01A0
:20010000540162016E017001780184018E019C01A801B601C001CE01DA01E601F001FC017D
:200120000A021E022A023802440248024E0252025C0268026C02760280028A0294029E0207
:20014000A402AE02B802BA02BC02C402C602D402DE02E802F202FC0202030C0310031A03B1
:200160002403360340034A0354035A035C0364036E030000FC021C0000001C009003F000EB
:200180009C03F0009C0018012402FC072402C8011800240024029801600098014402400287
:2001A00080018001580224026402980180021C00F0030804040804080804F00328001C00C6
:2001C000280040004000F001400040000000000E800080008000000000020003F0000C0077
:2001E000F801040204020402F80110000800FC030802040384024402380208010402240298
:200200002402D801C000B0008800FC03800030012C0224022402C401F8012402240224028D
:20022000C8010400840364001C000400D801240224022402D8013801440244024402F801BE
:200240001002100E4000A000A000A0001001A000A000A000A000A0001001A000A000A0002C
:20026000400008000400C40224001800E0031804C809240A140A1409E40B340A0805F004C9
:200280000003C000B8008400B800C0000003FC032402240224022402F801F0000801040255
:2002A000040204020801FC030402040204020801F000FC032402240224022402FC03240065
:2002C000240024000400F00008010402040244024801C000FC032000200020002000FC0300
:2002E000FC03800100020002FC01FC0340002000700088010402FC03000200020002000218
:20030000FC031800E0000003E0001800FC03FC0308003000C0000001FC03F00008010402F6
:20032000040204020801F000FC034400440044003800F00008010402840284020801F002AF
:20034000FC03240024006400A401180218012402240244024402880104000400FC030400AE
:200360000400FC010002000200020002FC010C003000C0000003C00030000C00F000000389
:20038000C000380004003800C0000003F0000C000402980160006000980104020400180050
:2003A0002000C00320001800040000020403C40234020C020402FC0F04080C00F0000003EF
:2003C0000408FC0F2000180004001800200000080008000800080008000804000800A001B5
:2003E000500250025001E003FC03200110021002E001E0011002100210022001E0011002D5
:2004000010022001FC03E00150025002500260011000F8031400E009100A100A2009F00716
:20042000FC03200010001000E003F403F407FC034000A0011002FC03F00320001000F003A1
:2004400020001000E003F003100010001000E003E001100210021002E001F00F2001100259
:200460001002E001E001100210022001F00FF0032000100020015002500290022001FC03CA
:200480001002F001000200020001F0033000C0000003C00030003000C0000003E00010009B
:2004A000E0000003C000300010022001C000200110021000E0090007C0003000100210032E
:2004C0009002700210024000B8070408FC0F00000408B807400060002000600040002000A5
:2004E000FF81BDA5A5ADA1BF66183C5AFFBDA5180F0FC3DBDBC3F0F011241FBECFE5D8E023
:20050000DEBFCDBF11E0A0E6B0E0E0EFFFE502C005900D92A03AB107D9F712E0A0EAB1E093
:2005200001C01D92A73DB107E1F70C947C030C94000015BA1BBA20E000002F5F2A30E1F7B4
:20054000892B39F49498949A979A969A9698979802C0969A969880E000008F5F8431E1F7A7
:200560000895982FE62FFF27613039F0613018F0623039F404C083E003C084E001C086E154
:200580008CBF64E0EE0FFF1F6A95E1F7E90FF11DEE0FFF1FE255FE4F8081282F22952F7087
:2005A0008295807F822B99279C0123733070220F331F220F331F8C7C907095958795959567
:2005C0008795282B822F99279C0125753070220F331F8A7A907095958795282B2BBB81815C
:2005E000282F22952F708295807F822B99279C0123733070220F331F220F331F8C7C9070EA
:200600009595879595958795282B822F99279C0125753070220F331F8A7A907095958795E6
:20062000282B25BB08951F920F920FB60F9211242F933F934F935F936F937F938F939F932D
:20064000AF93BF93EF93FF93A8958091A1018F5F8093A101833081F41092A1018091A00141
:200660008F5F8093A001803111F41092A0018091A00199270E9499026091A1018091A001EB
:200680000E94B102FF91EF91BF91AF919F918F917F916F915F914F913F912F910F900FBE39
:2006A0000F901F901895F89415BA1BBA12BA13BE789408958CE083BF12BE84E18CBF82E039
:2006C00089BF08958FEF84BB8ABB80ED81BB15BA1BBA12BA8CE083BF12BE84E18CBF82E08A
:2006E00089BFA89588E190E028E00FB6F894A89581BD0FBE21BD0895C1E5D8E0DEBFCDBFF9
:2007000080E00E945A040E9419140E941F150E943D140E9462030E9480090E94FE0F7894F4
:2007200082E192E00E94752B809310028091110280930F0281E080930E029BE2C92E92E0CB
:20074000D92E8E010F5F1F4F80E6E82E80E0F82E8091100280931102809110028F5F8093B8
:2007600010028150883009F461C08930A8F4843009F44FC0853048F4823009F442C0833056
:2007800008F044C0813021F721C0863009F448C0873008F048C040C0813209F456C08232C7
:2007A00048F48F3109F44BC0803208F04BC0893079F641C0833209F44EC0833208F448C0DE
:2007C0008B3209F44EC08F3F19F648C0C6010E94130F0E9419149F938F937F936F93FF9219
:2007E000EF921F930F930E94332CC8010E94130F8DB79EB708960FB6F8949EBF0FBE8DBF98
:20080000A7CF85E090E00E947008A2CF0E943D089FCF0E94CD119CCF84E10E94EE0798CF5F
:200820000E94DA0595CF0E944A1592CF88EC90E00E9478058DCF0E94352981E016C00E9439
:200840009B0786CF0E94730783CF0E944B0780CF0E94BB067DCF0E94C3077ACF0E9468087A
:2008600077CF0E94BC2680910F028093100270CFCF93DF93EC018DE085BD8DE783BD14C030
:200880000E945F0980910E02882341F0839906C06BE270E082E192E00E94962B08B607FED7
:2008A000FDCF80E888BF21971C161D064CF3DF91CF9108952EEA31E09FEF40E050E0841762
:2008C00009F490E0F901205E3F4F9193E217F307E1F74F5F5F4F4330510511F09F01EFCF32
:2008E0000895282F2F70643008F063E0E22FFF27E770F070EB58FF4FE081892F99278F703F
:200900009070880F991F269526952695280F3327D901A255BE4F90E005C08C918E2B8C93BE
:200920009F5F90969617C9F79E2F90950FC0E62FFF2785E0EE0FFF1F8A95E1F7E20FF31FB0
:20094000E255FE4F8081892380836F5F633078F3089540E050E016C04F5F5F4F43305105AF
:20096000D9F010C0808186952181922F979599279795982B9083269521833F5F329630314B
:2009800059F3F0CFFA0165E0EE0FFF1F6A95E1F7E255FE4F30E0E6CF0895E92F8031D8F49F
:2009A0009031C8F420E030E0A82FBB27A770B070AB58BF4F869586958695FF27EE0FFF1F17
:2009C000E80FF11DE255FE4F8C919081892329F021E030E002C02FEF30E0C90108956130A2
:2009E000710579F06130710540F06230710579F06330710549F0382F02C0382F3150292FC5
:200A000009C0382F3F5FFBCF292F2F5F02C0292F2150382F522F432FCA010E94CD04992775
:200A200008958130910531F08130910548F0039721F409C082E090E0089580E090E00895DE
:200A400083E090E0089581E090E00895FC01CB0171836083248135812115310521F02130EF
:200A6000310541F404C060E00E947104089563E00E9471040895292F6130710571F061300B
:200A8000710548F06230710561F06330710539F080E020E007C0815005C08F5F03C02F5F21
:200AA00001C02150522F482FCA010895EF92FF920F931F93CF93DF93EC01062F7A0110E0DD
:200AC0000EC06A817B81888199810E943B05BC01CE010E942605C7010E9438041F5F1017B8
:200AE00081F7DF91CF911F910F91FF90EF9008954F925F926F927F928F929F92AF92BF92EB
:200B0000DF92EF92FF920F931F93CF93DF937C0134C00E94A214182FA02EBD2C682F6370F9
:200B2000C5010E947104802E83949D2C612F669566956370C4010E94710492E0692E600E9E
:200B40007D2C12951F70612F6370C3010E94710483E0482E400E5D2C16951695612FC2011F
:200B60000E9471040C5F0031A1F62196C031D10571F488EC90E00E9438040894E108F10808
:200B80008FEFE8168FEFF80629F0C0E0D0E0DC2E00E0BFCFDF91CF911F910F91FF90EF904E
:200BA000DF90BF90AF909F908F907F906F905F904F9008952F923F924F925F926F927F92FB
:200BC0008F929F92AF92BF92CF92DF92EF92FF920F931F93CF93DF93CDB7DEB7C053D140E8
:200BE0000FB6F894DEBF0FBECDBF442455243E010894611C711C63E4262E61E0362E2C0E6E
:200C00003D1E97C083895EE1A52E8A9DC0011124208135E0B32E2B9D90011124820F931F7F
:200C200026A12B9D90011124820F931F6CE270E00E94862F628B4F5F73964F3019F7F601FD
:200C400041814A9DC0011124F80123892B9D90011124820F931FF60124892B9D900111244D
:200C6000820F931F6CE270E00E94862F61936F01F80183898A9DC00111244B9DF0011124A8
:200C80008E0F9F1FF80120812B9D90011124820F931F6CE270E00E94862F628B0894E11C13
:200CA000F11C0F5F1F4FF3E1EF16F104A1F58E010D5E1F4F0E94A214F80180830D5E1F4F52
:200CC0000215130569F1F6CFF6016081629566956770802E9B2CC4010E9471040F5F1F4FF8
:200CE00083E190E0C80ED91E0031110569F70894E11CF11C90E1E916F104A1F482E390E037
:200D00000E9438040894411C511CE0E24E16E3E05E06B9F00EC0F301EE0DFF1D41E072CF5E
:200D2000EE24FF24BE2C6301CE0CDF1C00E010E0CBCF8E01045F1E4F630121E0E22EF12C00
:200D4000EACFC05DDE4F0FB6F894DEBF0FBECDBFDF91CF911F910F91FF90EF90DF90CF904D
:200D6000BF90AF909F908F907F906F905F904F903F902F900895CF92DF92EF92FF920F930A
:200D80001F93CF93DF93DD24D3941CC0EC2EFC2C6D2DC7010E9471048AE090E00E94380416
:200DA0002196C031D10591F70F5F1F4F0031110529F4D39484E0D81641F004C0C02EC0E0B1
:200DC000D0E0E4CF00E010E0F9CFDF91CF911F910F91FF90EF90DF90CF900895CF92DF92AD
:200DE000EF92FF920F931F93CF93DF93EE24FF24DE2C73E0C72ECE20C0E0D0E00C2F1D2D6F
:200E00006C2DC8010E94710481E090E00E9438042196C031D10591F70894E11CF11C80E19D
:200E2000E816F10429F784E690E00E943804FBCFCF92DF92EF92FF920F931F93CF93DF9311
:200E4000DD24D3941CC0EC2EFC2C6D2DC7010E94710485E090E00E9438042196C031D10562
:200E600091F70F5F1F4F0031110529F4D39484E0D81641F004C0C02EC0E0D0E0E4CF00E02B
:200E800010E0F9CFDF91CF911F910F91FF90EF90DF90CF900895DF92EF92FF920F931F932A
:200EA000CF93DF93EE24FF241AC00C2F1D2D63E0C8010E94710485E090E00E94380421963D
:200EC000C031D10591F70894E11CF11C80E1E816F10429F484E690E00E943804FBCFDE2C20
:200EE000C0E0D0E0E2CFDF92EF92FF920F931F93CF93DF93EE24FF241AC00C2F1D2D62E070
:200F0000C8010E94710485E090E00E9438042196C031D10591F70894E11CF11C80E1E81633
:200F2000F10429F484E690E00E943804FBCFDE2CC0E0D0E0E2CFDF92EF92FF920F931F933B
:200F4000CF93DF93EE24FF241AC00C2F1D2D61E0C8010E94710485E090E00E94380421969E
:200F6000C031D10591F70894E11CF11C80E1E816F10429F484E690E00E943804FBCFDE2C7F
:200F8000C0E0D0E0E2CFDF92EF92FF920F931F93CF93DF93EE24FF2415C00C2F1D2D63E0D3
:200FA000C8010E94710484E690E00E9438042196C031D10591F70894E11CF11C80E1E8168E
:200FC000F10421F0DE2CC0E0D0E0E7CFDF91CF911F910F91FF90EF90DF900895EF92FF92AF
:200FE0000F931F93CF93DF93082F80E00E945A0410E0EEEEEE2EE1E0FE2E0CC088EC90E0AD
:201000000E94380440E050E01EC088EC90E00E9438041F5F101751F1E701F70140E050E0EB
:201020009A012170307085E590E002C0880F991F2A95E2F7808381834F5F5F4F32964031C5
:201040005105E1F2EDCF9A01217030708AEA90E002C0959587952A95E2F7888389834F5F96
:201060005F4F22964031510581F2EDCFDF91CF911F910F91FF90EF9008950F931F93CF9393
:20108000DF9383E00E945A0481E000E011E0CEEED1E017C081E0329692E0EE30F90761F4F7
:2010A000110F09F411E084E690E00E9438040F5F812F003541F005C080838183880F51F33F
:2010C000EACFFE01F9CFDF91CF911F910F91089580E00E945A0484E690E00E943804FBCFF1
:2010E000AF92BF92CF92DF92EF92FF920F931F93CF93DF93CDB7DEB726970FB6F894DEBF8E
:201100000FBECDBF5C0180E00E945A041C821B8281E090E09E838D836FE070E08E010F5FE0
:201120001F4FC8010E942605680116C0A50161E0C6010E94560510E06B817C8189819A81C3
:201140000E94EF04882391F38B819C810E9411059C838B83112311F411E0EECF1E821D8297
:20116000A7E0EA2EF7E0FF2EB7018E010F5F1F4FC8010E9426058B819C810E941105BC0175
:2011800089819A810E94EF04882331F08B819C810E9411059C838B836B817C8189819A81AD
:2011A0000E94EF04813031F4A50161E0C8010E945605E1CF26960FB6F894DEBF0FBECDBF64
:2011C000DF91CF911F910F91FF90EF90DF90CF90BF90AF900895CF93DF93EC018D81823067
:2011E00031F0833009F1813009F045C008C08C81282F33272150304040E050E00AC06E8102
:20120000772782E192E00E94962BEC0FFD1F86818C93E42FFF274F5F5F4FDF01A55DBD4F38
:20122000E217F30794F326C020E030E0622F77272F5F3F4FFB01E55DFD4F80818823B1F715
:201240008C81282F33272150304040E050E006C0A55DBD4FEC0FFD1F86818C93E42FFF2755
:201260004F5F5F4FDF01A60FB71FE217F30784F3A55DBD4F1C92DF91CF910895CF93DF9340
:20128000EC018D81882331F08230B1F40E945303F894FFCF0E94AE09FC018881818380916A
:2012A000AB0280838A8183838B81828381E085838483CF010E94310ADF91CF910895CF9370
:2012C000DF9316C099818091AB02981731F48B81803319F4CE010E943E0999818091AB02BE
:2012E000981731F48B81833219F4CE010E94EB080E94B10AEC01892B29F7DF91CF9108955D
:2013000064E570E08BE292E00E94B72B0E94EE0A0E94C70AA0E0B0E00E94992F802D80938A
:20132000AB020E94AE09FC018091AB0280838FEF818383E28283838384E08483158280E194
:201340008683878381E08087CF010E94310A089580E000008F5F8F3FE1F708958CEA92E04F
:20136000089508951F93182FC49883E00E94F60A812F0E94F60A80E00E94F60AC49A992767
:201380001F9108950F931F93182F062FC49882E00E94F60A812F0E94F60A802F0E94F60A2D
:2013A000C49A1F910F91089560E680E60E94C20908958295880F807E8460682F8FE00E94F4
:2013C000C2090895C49880EC0E94F60AC49A08950F931F93CF93DF93EC01C49882E00E94CB
:2013E000F60A81E30E94F60A8B8182958F709A81990F990F892B0E94F60A9B81892F8C7034
:20140000880F880F880F88609370892B0E94F60A88810E94F60A89810E94F60A8C810E94C0
:20142000F60A00E010E006C0FE01E90FF11D85810E94F60A902F0F5F1F4F8C819817A0F37F
:20144000C49AC49882E00E94F60A80E30E94F60A88E00E94F60AC49ADF91CF911F910F9141
:2014600008950E94E8090895FF920F931F93182F062FF42EC49885E00E94F60A812F0E9467
:20148000F60A802F0E94F60A8F2D0E94F60AC49A1F910F91FF900895662311F04FEF01C03A
:2014A00040E060E170E002C0660F771F8A95E2F78CE00E94340A0895FF920F931F93CF9386
:2014C000DF93EC01C49883E00E94F60A81E60E94F60A80E00E94F60A182F869586958A83B7
:2014E00080E00E94F60A1295107F1073982F9695969596959C70192B8370182B1B8380E065
:201500000E94F60A888380E00E94F60A898380E00E94F60A8F708C8300E010E007C080E009
:201520000E94F60AFE01EF0DF11D8583F02E0F5F1F4F8C81F81698F3C49A40E061E08CE22B
:201540000E94340ADF91CF911F910F91FF9008958299FECF8AEB92E00E945C0A8AEB92E0A1
:201560000895829B03C080E090E008958AEB92E00E945C0A8AEB92E00895C49880EA0E94A6
:20158000F60A80E00E94F60AC49A99270895C49A0E94E20980E000008F5F8F3FE1F76CE063
:2015A0008CE00E94C20963E48AE20E94C20961EF89E20E94C20965E088E20E94C20965E0A9
:2015C0008BE20E94C2090E94D40980E090E00E94D90961E08BE20E94C209089587B3806B81
:2015E00087BB80E58DB981E08EB908958FB9779BFECF8FB199270895E82F6623D9F02091DB
:20160000D1023091D202A92FBB27AF70B0708E2F869586958695AA0FBB1FA80FB11DA20F92
:20162000B31FFF27E770F070EB58FF4F80819C91892B8C93089520E030E0E091D102F091F7
:20164000D202D901AA0FBB1FEA0FFB1F10828091D1029091D202A80FB91FFD0111822F5F1D
:201660003F4F2031310549F70895CF93DF934091D1025091D20220E030E011C02F5F3F4F4E
:2016800023303105B9F00BC08C918083ED01898181839F5F32961296903181F3F5CFF901D0
:2016A00065E0EE0FFF1F6A95E1F7E255FE4FDA0190E0EACFDF91CF910895FF920F931F9319
:2016C000CF93DF93EC016C817D81F9A08AA1F89E802D1124A0E0B0E0082F112718C08D8DB1
:2016E0009E8D21503327220F331F0296FC01E20FF31F029745915491820F931FFC0125918F
:201700003491A00FB11FA40FB51FA21BB30BFB012191BF01222319F76F2D7727CD010E9416
:20172000722FCB01DF91CF911F910F91FF900895CF93DF93DC0120E030E090E017C0C9011E
:2017400063E0880F991F6A95E1F7220F331F820F931F242F332727FD309520533040280FAA
:20176000391F3196ED01FF83EE8391E0ED01EE81FF814081842F80538A3008F3992311F45E
:201780002FEF3FEFC901DF91CF9108951F93CF93DF93EC0110E0DCC03196FF83EE83843653
:2017A00009F443C08536F4F48B3309F4CAC08C3384F48D3209F48FC08E3224F48B3209F071
:2017C000C7C0C5C08F3209F4B9C08A3309F0C0C0BBC08E33D9F0823609F45BC08C3309F003
:2017E000B7C011C0883799F189373CF4803709F48FC0853709F0ACC01BC08937E9F18C370C
:2018000009F0A6C052C08A8D8E7F02C08A8D81608A8FCE010E94980B2FEF8F3F920709F4CA
:2018200084E18C8B8C898B8B93C08A8D826002C08A8D8D7F8A8FCE010E94980B2FEF8F3FB7
:20184000920709F484E18E8B8E898D8B81C0CE010E94980B2FEF8F3F920719F09E878D8729
:2018600077C08A859B8562E070E00E94862F685F7F4F7E876D876CC0CE010E94980B9C01AE
:201880008FEF2F3F380709F463C08C85281B2F875FC0CE010E94980B2FEF8F3F920709F43E
:2018A00082E3888F888D8F8B53C0CE010E94980B2FEF8F3F920719F0998B888B09C08A85B9
:2018C0009B850E9662E070E00E94862F798B688B82E090E018C0CE010E94980B2FEF8F3FBA
:2018E000920711F08A8B0DC02C85332727FD309580E190E0821B930B62E070E00E94862F83
:201900006A8B81E090E099878887812F992728C01C8A1E8ACE010E94980B2FEF8F3F920793
:2019200031F076E0880F991F7A95E1F702C080E897E09C8F8B8F84E090E0E5CF83E090E0B9
:20194000E2CF85E090E0DFCF86E090E0DCCF12E0EE81FF818081882309F01ECF81E090E08E
:20196000DF91CF911F910895CF93DF93FC019489992391F083898150838B8F3F69F4938BEB
:20198000828D2585368580FF03C02150304002C02F5F3F4F368725879689992371F085891F
:2019A0008150858B8F3F49F4958B828D978581FF02C09F5F01C091509787908D992351F0D6
:2019C00087898150878B8F3F39F4978B818D91E0892701C081E0818F808591858330910532
:2019E000F9F08430910538F48130910571F0029709F062C010C085309105D1F18530910504
:201A000070F1069709F058C044C097858289981709F057C051C0258536858089918946C02E
:201A20002585368582859385A901481B590B4131510514F041E004C0432F441F4427441F5D
:201A400027852131CCF58485992787FD9095332727FD3095820F931F992364F52DC0838DBD
:201A6000948D0197948F838F8F5F9F4F51F524C0A281B381109701F1ED018D859E852A85B0
:201A80003B85821B930B2585368582179307C9F413C0A081B181109779F0858596852285F4
:201AA0003385821B930BED012D853E852817390741F402C0442329F0CF010E94C60B9927D7
:201AC00002C080E090E0DF91CF9108952F923F924F925F926F927F928F929F92AF92BF92AD
:201AE000CF92DF92EF92FF920F931F93CF93DF93CDB7DEB729970FB6F894DEBF0FBECDBFBA
:201B00008C01FC01818D882309F4C1C084809580658576854784F484F40CE1A0458D568D8D
:201B2000F401808181509927880F991FFA01E80FF91F25913491DA011296FD01E80FF91FBA
:201B400085919491398728873C01CE2CDD242BC0288539852C0D3D1D3987288726153705D4
:201B600018F4615070401FC0F80192A10894811C911CF4018081882309F489C0691B710922
:201B80006150704081509927880F991FFA01E80FF91F25913491FD01E80FF91F8591949137
:201BA000398728873C016031710590F6562EC884D9841982242D332727FD30953B832A8325
:201BC0008F2D99279D838C83EE2DFF27FF83EE831FC0BB0C69F4F801278D30A12C0D3D1D12
:201BE0000894C11CD11CF901F491F983BB24B39489818B2141F0A7FC06C0252C3A2C61E016
:201C0000C1010E94FC0AA3940894E11CF11C04C0A42CBB24EE24FF242FE02A154CF08A8140
:201C20009B818E0D9F1DEC81FD818E179F078CF2288539858E819F81280F391F39872887E5
:201C400026153705F8F0F80182A10894811C911CF40120812223D9F0581AF801858D968DDF
:201C600021503327220F331FFC01E20FF31F459154910296820F931FFC0125913491598728
:201C8000488739015A94C884D98457FEC1CF29960FB6F894DEBF0FBECDBFDF91CF911F9139
:201CA0000F91FF90EF90DF90CF90BF90AF909F908F907F906F905F904F903F902F900895C5
:201CC0000F931F93CF93DF938C01892B11F01092A60183E290E00E94182AEC018091A601F3
:201CE0008823D9F444EA51E06DE770E0C8010E94C52B9F838E83892B09F48AC0CE010E946F
:201D0000980B2FEF8F3F920741F08093A6018E819F819093A3018093A2018091A6018823A1
:201D200049F081508093A6018091A2019091A3019F838E8344EA51E06DE770E080E090E060
:201D40000E94C52B9C019D838C83892B09F460C08091C9029091CA029E8F8D8F8091CB0264
:201D60009091CC0298A38F8F8091D00289A3F9019091CD022091CE020AC0891728F0821786
:201D800018F48F5F891B01C081E0808331968081882399F781E08AA38091C8028C87CE0132
:201DA0000E945D0B9C019B878A87EE81FF81E081EC3319F41E861D8606C0EE3391F4205F9B
:201DC0003F4F3E872D872C85332727FD309580E190E0821B930B62E070E00E94862F6F871D
:201DE00011C0E43619F48C85819503C0E53751F48C858F87C9010E9662E070E00E94862F22
:201E00007E876D871C8A1E8A188E1986188605C0CE010E94BB2AC0E0D0E0CE01DF91CF918E
:201E20001F910F910895CF92DF92EF92FF920F931F93CF93DF93CDB7DEB7C959D0400FB699
:201E4000F894DEBF0FBECDBF8C01A8ECB2E0EFE7F0E089E001900D928150E1F780E290E093
:201E60000E94182A9093D2028093D102DE015A96F80180E801900D928150E1F7DE01119612
:201E8000E2E1F2E089E101900D928150E1F782E192E00E94752B8C01892BA1F08091D1029D
:201EA0009091D2020E94BB2AA2E1B2E0FE01319689E101900D928150E1F7B80182E192E0FA
:201EC0000E94962BCE014A960E94600E7C01009709F475C0DC011D921C92FC01138212823A
:201EE00067C08701CC24DD24C8010E94B40C882321F4D801CD90DC9042C0813009F50E15E1
:201F00001F0521F4F701E080F18007C0F801A281B381808191818D939C93D8012D913C91E2
:201F20002115310531F0F80182819381F90193838283D801CD90DC90C8010E94BB2A1FC01E
:201F40008230E9F480E090E00E94600E9C01009799F0FC0113830283D8018D919C91119771
:201F6000918380838D919C91009719F0FC0133832283D8012D933C93F801C080D18086018E
:201F8000C114D10409F0B0CF80E00E941B0B870106C0C8010E94660DD8010D911C91011591
:201FA0001105B9F70E94350B82E090E00E943804E114F10409F095CF80E090E085CF80914D
:201FC000D1029091D2020E94BB2AA2E1B2E0FE01319689E101900D928150E1F7C756DF4F49
:201FE0000FB6F894DEBF0FBECDBFDF91CF911F910F91FF90EF90DF90CF90089587B3807FC8
:2020000087BB88B38F6088BB8B98939A08952F923F924F925F926F927F928F929F92AF921B
:20202000BF92CF92DF92EF92FF920F931F93CF93DF93CDB7DEB7C959D0400FB6F894DEBF0A
:202040000FBECDBF80E8FE01759611928A95E9F794E09D8B8EE08E8B9F8B8DE0888F80E0E2
:202060000E945A04CC24DD247AC1802FFF2039F09FE0F91621F0002311F00F3031F4AF2C3B
:20208000B82E63E0C5010E9471040F5F1F4F0031110559F70894C11CD11CA0E1CA16D1042B
:2020A00009F05DC1BFEFCA56DF4FB883C659D040CB56DF4F1882C559D040EE2412E0612EF9
:2020C000712CA7E1CA2ED12CCC0EDD1EF5E1AF2EB12CAC0EBD1EC956DF4FB883C759D04034
:2020E000FE01EB56FF4FC856DF4FF983E883C859D0404E010894811C911CCB56DF4FF881F1
:20210000C559D040FF5FCB56DF4FF883C559D040F6013180208082E090E0C80ED91EC85636
:20212000DF4FA881B981C859D040CA16DB0629F4E5E1CE2ED12CCC0EDD1ECA56DF4FB881E4
:20214000C659D040BB2359F4C3010E9411053C01EFEFCA56DF4FE883C659D04015C0CA56B1
:20216000DF4FF881C659D040F13071F4C3010E9411050E9411050E9411053C018FEFCA563C
:20218000DF4F8883C659D040B301C1010E943B05D6018D939C9340E033C0242F3327220F68
:2021A000331F280D391DF6019081D9018C91981731F59181F9018181981709F513C0DF0100
:2021C0001196AA0FBB1FA80DB91D9C91BF01660F771F680D791DFD018181FB018183908324
:2021E0004F5F04C02E2D332721503040E42FFF27E217F30724F3EA94FF24F3940CC04F5FF2
:202200004E1559F6D6018D919C910E94CD04882309F04FC0FF2463E0F601808191810E94B2
:202220007104F8E0FE1510F10E94A2148A30F0F40E94A2146EE00E94662F092F0F5F0E9422
:20224000A2146EE00E94662F192F1F5F512E402EC2010E94CD04882349F4EE2DFF27EE0F34
:20226000FF1FE80DF91D11830083E394FF2091F560E0D5018D919D915D010E947104C8560D
:20228000DF4FE881F981C859D040AE16BF0611F51CC060E0D5018D919D915D010E947104BA
:2022A0000A151B0508F457018CE390E00E94380408C035E1E32EF12CEC0EFD1E8E010B56BD
:2022C0001F4FAC14BD0429F74EC025E1A22EB12CAC0EBD1EFF24CB56DF4FB881C559D040C0
:2022E0000B2F11270170107015C0EF2DFF270115110531F0EE0FFF1FE80DF91D63E005C0E9
:20230000EE0FFF1FE80DF91D60E0808191810E947104F394FE1449F700E0B29902C011E076
:2023200005C0B39902C010E001C01FEFC956DF4FE881C759D0401E1729F0CA56DF4F1883EE
:20234000C659D04085E090E00E9438040F5FC956DF4F1883C759D0400431F9F6CECEFC2C2D
:2023600000E010E082CEC756DF4F0FB6F894DEBF0FBECDBFDF91CF911F910F91FF90EF907D
:20238000DF90CF90BF90AF909F908F907F906F905F904F903F902F9008952F923F924F9219
:2023A0005F926F927F928F929F92AF92BF92CF92DF92EF92FF920F931F93CF93DF93CDB7A6
:2023C000DEB7CB59D0400FB6F894DEBF0FBECDBFCA56DF4F19821882C659D040C856DF4FEF
:2023E00019821882C859D04098E09E8B9D8B87E0888F9F8B80E00E945A0417E1212E312C02
:202400002C0E3D1EB5E14B2E512C4C0E5D1E8824A2E0AA2EB12CCB56DF4F1882C559D040CC
:20242000CE018B569F4FC656DF4F99838883CA59D0403E010894611C711CCB56DF4F98810D
:20244000C559D0409F5FCB56DF4F9883C559D040F101F181C956DF4FF883C759D040F1016A
:20246000F081CA56DF4FF883C659D04082E090E0280E391EC656DF4FE881F981CA59D04034
:202480002E163F0629F4F5E12F2E312C2C0E3D1E99244FC0CC24DD24092D1127000F111F07
:2024A000060D171DEC2CFF24B701CA56DF4F88819981C659D0400E943B05F80190819817A7
:2024C00079F5B701CA56DF4F88819981C659D0400E943B05F8018181891711F513C0DF0100
:2024E0001196AA0FBB1FA60DB71D9C91AF01440F551F460D571DFD018181FA01818390839E
:20250000939404C0282D332721503040E92DFF27E217F30724F38A945701EE24E39422C019
:202520000894C11CD11CF4E0CF16D10409F0BACF9394981409F0AECF10E008C01F5F153061
:2025400009F4D5C0C5010E9411055C01B501CA56DF4F88819981C659D0400E94EF04882378
:2025600069F7EE24B501CA56DF4F88819981C659D0400E943B05F1019183808363E00E94C3
:2025800071040E94A214803508F062C0882041F40E94A214A82EBB24F3E0AF22BB245BC017
:2025A00070E000E0FF24FA9410E0F1016081A72FBB27FD01EE0FFF1FE60DF71DE081E61741
:2025C00018F4462F4E1B02C04E2F461BF1015181AA0FBB1FA60DB71DFD019181951718F4CB
:2025E000E52FE91B02C0E92FE51B8E2F840F912D911D9C018F2D9927281739073CF4FE2E39
:20260000F40E10E0E41708F411E0072F7F5F781561F6E02FFF27112369F0AA24BB24EE0F7C
:20262000FF1FE60DF71D8081681790F4E1E0AE2EB12C0EC0EE0FFF1FE60DF71D8181581796
:2026400020F463E0A62EB12C03C052E0A52EB12C98E0981548F10E94A2148A3028F50E949E
:20266000A214082F0F700E94A214182F1F70C756DF4F1883C959D040C856DF4F0883C859B0
:20268000D040C856DF4F88819981C859D0400E94CD04882349F4E82DFF27EE0FFF1FE60DE6
:2026A000F71D118300838394EE2091F560E0F201819191912F010E947104C656DF4F888143
:2026C0009981CA59D0404816590611F51CC060E0F201819191912F010E947104041515052D
:2026E00008F427018CE390E00E94380408C035E1E32EF12CEC0EFD1E8E010B561F4F421424
:20270000530429F72CC025E1422E512C4C0E5D1EFF24CB56DF4FF881C559D0400F2F1127FF
:202720000170107015C0EF2DFF270115110531F0EE0FFF1FE60DF71D63E005C0EE0FFF1FFF
:20274000E60DF71D60E0808191810E947104F394F81449F784E690E00E9438046ECEC55626
:20276000DF4F0FB6F894DEBF0FBECDBFDF91CF911F910F91FF90EF90DF90CF90BF90AF905A
:202780009F908F907F906F905F904F903F902F9008958CB399279C012270307081FDF9CFD0
:2027A000A1E0B0E009010E94B22F90E0E199FECFA92FBB27AD5FBF4F80E0082E0E94A62FE3
:2027C0009F5F983A98F308951F9383E090E0DC010E94992F102DA1E0B0E00E94A12FEF5F27
:2027E000FF4F41F4DC010E94A12FEF5FFF4F11F40E94C91360E050E0E199FECFA52FBB277B
:20280000AD5FBF4F0E94992F402D242F3327812F992701962817390711F4652F142F5F5FFA
:20282000583A50F3683A09F460E0609388001F910895809188008F3F11F40E94E413F8948B
:20284000E199FECFA1E0B0E00E94A12F3E2F2227E199FECFA0918800BB27AD5FBF4F0E945A
:20286000992F602D442755277894772788279927622B732B842B952B0895EF92FF920F9318
:202880001F93809188008F3F11F40E94E4130E9419147B018C01F8942FEF6217A1F5DC0113
:2028A000CB01A070B0708F5F9F4FA040B040A9F4E199FECF22E030E00894E11CF11C011DB6
:2028C000111DA801662777270894E108F10801091109D901042E0E94A62FE199FECF21E089
:2028E00030E00894E11CF11C011D111D7727612F502F4F2D0894E108F10801091109D90131
:20290000042E0E94A62F809188009927019668EA70E00E94862FA82F80938800E199FECF6C
:20292000BB27AD5FBF4F8E2D8F5F082E0E94A62FE199FECF0E94191478941F910F91FF9044
:20294000EF900895EF92FF920F931F93CF93DF93CDB7DEB724970FB6F894DEBF0FBECDBF06
:20296000E0908900F0908A0000918B0010918C00E0E0D801C70181709372A078B078898368
:202980009A83AB83BC836981062E62956025062E6695669560252A81022E22952025022E5D
:2029A0002695269520254B81042E42954025042E4695469540258C81082E82958025082EA0
:2029C00086958695802533272F5F3F4F77276F5F7F4F6227732755274F5F5F4F4627572786
:2029E00099270196842795279695879581709070AA2797FDA095BA2FEE0CFF1C001F111FFA
:202A0000E82AF92A0A2B1B2BEF5FE83009F0B1CFE0928900F0928A0000938B0010938C00D3
:202A20008E2D992724960FB6F894DEBF0FBECDBFDF91CF911F910F91FF90EF9008956115D9
:202A400071058105910541F06093890070938A0080938B0090938C000895E62F242F26959D
:202A60002695FF27EE0FFF1FEE0FFF1FE20FF11DE80FF91F80819927552743705070440F2E
:202A8000551F02C0959587954A95E2F799278370907008952F923F924F925F926F927F923C
:202AA0008F929F92AF92BF92CF92DF92EF92FF920F931F93CF93DF93CDB7DEB7C150D140EB
:202AC0000FB6F894DEBF0FBECDBFC450DF4F19821882CC5FD04024EF31E0C650DF4F3983D9
:202AE0002883CA5FD040C750DF4F1882C95FD0402224BE016F5B7F4FC050DF4F7983688319
:202B0000C050D1406DC1C92CDD24F601EE0FFF1FEC0DFD1DEE0FFF1F81E490E08C0F9D1F04
:202B2000E80FF91F9481CA50DF4F9883C65FD04085802381C950DF4F2883C75FD040508038
:202B40006180E281CB50DF4FE883C55FD0408E2F869586958695A82EA60CB82EC850DF4F87
:202B60001882C85FD04044244A94782E7094780E662D7727C250DF4F79836883CE5FD04079
:202B8000E52CFF24EE0CFF1CEE0CFF1C5FC0C250DF4F88819981CE5FD0408B0D911D4097FB
:202BA0000CF045C0342C36943694369436943694369431F071E0C850DF4F7883C85FD0400E
:202BC000042D11274A2D652DCE0101960E942D15992726E0880F991F2A95E1F7801791075E
:202BE00034F58A2D869586954A2D552743705070440F551F23E030E0042E02C0220F331F08
:202C00000A94E2F72095F701E80FF11D81E090E08C0F9D1FE80FF91F80812823832D992798
:202C200002C0880F991F4A95E2F7282B2083842D829586958770C950DF4F9881C75FD04065
:202C4000899F802D1124481ABA94AA94B71409F09ECFF601EE0FFF1FEC0DFD1DEE0FFF1F0B
:202C600021E430E02C0F3D1FE20FF31FCA50DF4F3881C65FD04034838582C950DF4F688181
:202C8000C75FD0406383508261828694CB50DF4F7881C55FD040870E8282C850DF4F8881EB
:202CA000C85FD040882371F5492D222D33272150304021C0DC01AA0FBB1FA80FB91FAA0F33
:202CC000BB1F61E070E06C0F7D1FA60FB71F0196FC01EE0FFF1FE80FF91FEE0FFF1FE60F19
:202CE000F71FA05CBF4FE05CFF4F86E001900D928150E1F74F5F842F992782179307D4F2D1
:202D00002A949A949394921408F4FDCE8BC04D2D602FCE0101960E942D15C450DF4F0883C8
:202D2000CC5FD040C350DF4FD882CD5FD040682FC450DF4F88819981CC5FD0400E94710433
:202D40000F5F1F4F0031110511F70894E11CF11C70E1E716F10409F067C0CC248DE182154A
:202D6000B8F10E94A2146FE1D62ED8229FE09D1508F4DD24E22CFF240E94A214082F0E9474
:202D8000A214182F0E94A214F701EE0FFF1FEE0DFF1DEE0FFF1F21E430E02C0F3D1FE20FFC
:202DA000F31F8F708D5F8583C750DF4F3881C95FD04034831770145F13831282D1820F702B
:202DC000008323943F5FC750DF4F3883C95FD040C39466E0C61611F68CE390E00E943804A6
:202DE000C650DF4F88819981CA5FD0400197C650DF4F99838883CA5FD0408F5F9F4FC1F06A
:202E0000FE01319610821182128213823496C050DF4F68817981C050D140E617F70791F70F
:202E2000992471CFEE24FF24DE2C00E010E06FCFCF5FDE4F0FB6F894DEBF0FBECDBFDF9136
:202E4000CF911F910F91FF90EF90DF90CF90BF90AF909F908F907F906F905F904F903F905F
:202E60002F900895FC01A62FBB27E05AFF4F8081E056F040992787FD9095A81BB90BAC3087
:202E8000B105E0F45527EF59FF4F8081E156F040992787FD9095481B590B4830510574F4C8
:202EA00057FD0CC083E0AA0FBB1F8A95E1F7A40FB51FAE0FBF1F8C919927089580E090E099
:202EC0000895DC01E62FFF27A05ABF4F8C91A056B040992787FD9095E81BF90BEC30F105B0
:202EE000D0F45527AF59BF4F8C91A156B040992787FD9095481B590B4830510564F457FDCE
:202F00000AC093E0EE0FFF1F9A95E1F7E40FF51FEA0FFB1F20830895FC01603138F44D30C1
:202F200029F4E60FF11D80819927089580E090E00895FC01603138F44D3029F4243018F4F2
:202F4000E60FF11D208308952F923F924F925F926F927F928F929F92AF92BF92CF92DF9202
:202F6000EF92FF920F931F93CF93DF93CDB7DEB766970FB6F894DEBF0FBECDBF1A82198283
:202F80001C821B821E821D8218861F821A8619861C861B861E861D863C017E8B6D8B588B8E
:202FA0004F8729011A8B098BFC8AEB8A760180E00E945A04ED89FE8980818F3038F461813B
:202FC000A82EBB24B394C5010E947104ED89FE892081822F9927409744F46181822E839451
:202FE00099249394C4010E94710400E010E030E6832E912C860C971C21E6A22EB12CA60C12
:20300000B71CA7C0F60160816623C1F0F4012081822F992787FD90954D895E89840F951FB0
:20302000803191055CF497FD09C0F50180812D88220E382E300EC1010E9471044D895E8986
:203040004F5F5F4F5E8B4D8B88E090E0C80ED91E4C305105B9F60F5F1F4F0830110509F00A
:2030600078C000E010E0A989BA89A00FB11F6C91662339F00D879DE09E878D859E850E9498
:2030800071040F5F1F4F0031110569F7CB88DC8800E010E0F6019081903150F481818031F1
:2030A00038F49B878C8763E08B859C850E9471040F5F1F4F42E050E0C40ED51E07301105E4
:2030C00049F7F2018181882359F4F701F081F987F701E180EA8663E089859A850E9471048A
:2030E000F2018081882359F0EF85F889608181508F83FFE0F8878F8198850E947104F2019A
:2031000080818031B0F4EF85F88960818D83FFE0FE838D819E810E947104EF85F8896081F9
:20312000F201F081FB834EE04C838B819C810E947104F20120812F3090F4EF85F889608123
:203140002F5F2983FFE0FA8389819A810E94710406C06301C00ED11E1E8A1D8A53CF669649
:203160000FB6F894DEBF0FBECDBFDF91CF911F910F91FF90EF90DF90CF90BF90AF909F904F
:203180008F907F906F905F904F903F902F900895DC0180E090E0FD01E80FF91F1082019626
:2031A00080319105C1F783E0FD0183838683828785870895CF93DF93FC0120E030E098C0B5
:2031C0001D928F5F8830E1F72F5F3F4F2C30310509F08EC0ED59FF4F108232961082E55612
:2031E000F040623009F48EC0633030F4662359F0613009F0B4C01EC0633009F492C06430E7
:2032000009F0ADC09DC0DF0180E092E09C93ED01998321E02A832B838F5F18968830A9F7B0
:20322000E05AFF4F84E08193919385E480833296208395C0DF0190E083E08C9322E0ED017C
:2032400029832A8331E03B839F5F18969830A1F7E05AFF4F84E08193219385E48083329652
:2032600030837DC08881882311F083E08C939F5F2B9611969830B1F72F5F3F4F2B303105A4
:2032800009F051C0E05AFF4F83E0819382E0819383E429C088818D939F5F2B969830D1F7E7
:2032A0002F5F3F4F2B30310579F5E05AFF4F83E0819382E0819384E416C08881882311F08B
:2032C00083E08C939F5F2B9611969830B1F72F5F3F4F2B303105B1F5E05AFF4F83E0819344
:2032E00082E0819382E48083329681E0808337C0D90153E0AA0FBB1F5A95E1F7AE0FBF1FCA
:2033000080E05ECF20E030E0E901CB51DF4FD90143E0AA0FBB1F4A95E1F7AE0FBF1F90E08A
:20332000B9CF20E030E0E901C357DF4FD90193E0AA0FBB1F9A95E1F7AE0FBF1F90E092CF70
:2033400020E030E0E901C357DF4FD90183E0AA0FBB1F8A95E1F7AE0FBF1F90E0AECFDF916C
:20336000CF910895CF93DF93FC01DB018091AB018230E8F01092AB01B29905C080818F303E
:20338000C9F08F5F06C0B39906C08081882391F0815080830FC083990DC08181882351F007
:2033A00080818C938EE0EB018983118203C08F5F8093AB01DF91CF9108950F931F93CF9361
:2033C000DF938C0140E020E030E024C0808181114F5F9F5F31969830C9F72F5F3F4F2C30D4
:2033E0003105C1F4442319F481E090E01DC0C0E0D0E04EE06C2FC8010E943217882319F03F
:2034000082E090E011C02196C031D10591F780E090E00AC0F90183E0EE0FFF1F8A95E1F7FA
:20342000E00FF11F90E0D2CFDF91CF911F910F9108950F931F93CF93DF938C01C2E0D0E0B8
:203440004C2F60E0C8010E943217882371F44C2F6FE0C8010E943217882339F42196CE30E2
:20346000D10571F780E090E002C081E090E0DF91CF911F910F9108950F931F93CF93DF93C6
:20348000EC010E94652B8C010E94652B9C019881903198F0C80160E071E00E94862F8934E1
:2034A000C9F4C90160E071E00E94862F883C90F08FE088831092A7010DC08091A7018E3150
:2034C00049F41092A701992319F48FEF888302C0915098838091A7018F5F8093A701DF9183
:2034E000CF911F910F910895DF92EF92FF920F931F93CF93DF93EC018B01CE59DF4F9091E5
:20350000AA018881C256D040981740F11092AA01CE010E94191A8823A9F0DE01AB59BF4FC9
:203520008C91882379F4FE01EF59FF4F80818F5F8083FE01EC59FF4F80818195808381E0C2
:203540008C930CC0FE01E05AFF4FCC59DF4F89919081890F80831882C556D0408091AA015F
:203560008F5F8093AA010E94652B60E170E00E94862FE82E8FE08E1540F10E94652B60E0BA
:2035800071E00E94862F863000F5DD24F8018081813118F48181813190F09DE0F92E4F2DCB
:2035A0006E2DCE010E943217882329F0F801E082F394F1820AC0FA94F1E0FF1681F7D39480
:2035C0000E5F1F4F87E0D81609F7DF91CF911F910F91FF90EF90DF9008952F923F924F920E
:2035E0005F926F927F928F929F92AF92BF92CF92DF92EF92FF920F931F93CF93DF933C019B
:203600004B015A0119012801E6018091A901843078F01092A901FA018181882319F48981F7
:20362000815089838981813118F081E0F50181838091A8018A3070F01092A801F70120E077
:2036400030E081818F5F81832F5F3F4F329627303105B9F78091A9018F5F8093A9018091CE
:20366000A8018F5F8093A801F5018181882309F055C0D70120E030E098818C91981759F42C
:203680009981FD018181981731F48FEF8C93818381E0F50181832F5F3F4F129627303105EF
:2036A00059F749816881C2010E948C17282F882339F0215049816881C2010E9499172BC0B0
:2036C00049816881C3010E943217882359F1182F1150212F49816881C3010E9461171123D6
:2036E000A1F4F301ED59FF4F80818F5F8083823039F41082F301EE59FF4F808183508083EA
:20370000F40181819281499604C0F4018181928105969283818381E0F5018183E70100E01B
:2037200010E01CC049814130C9F7C880F1018081C81639F02C2D33279927019628173907F7
:2037400069F78FEFF1018083F40181819281855B9F4F92838183F5014183E0CF4981688189
:20376000C2010E948C17282F882349F0215049816881C2010E9499178FEF8883898389812E
:203780008F3061F49881F5018081981739F4F4018081815080838FEF888389830F5F1F4FEE
:2037A000229607301105D1F6DF91CF911F910F91FF90EF90DF90CF90BF90AF909F908F9065
:2037C0007F906F905F904F903F902F9008952F923F924F925F926F927F928F929F92AF92D9
:2037E000BF92CF92DF92EF92FF920F931F93CF93DF93CDB7DEB7CE5CD0400FB6F894DEBF2B
:203800000FBECDBFFE013A968EE0DF011D928A95E9F78FEF8A878B878C878D878E878F8791
:20382000888B898B8A8B8B8B1986188683E08F83C253DF4F1882CE5CD04028E6A22EB12CB2
:20384000AC0EBD1E95E0292E312C2C0E3D1E2F0183E0682E712C6C0E7D1E4E010894811CB2
:20386000911CCE0148960E94C818C253DF4F6881CE5CD040C5010E94DA1881E08C839AEFB3
:203880009B8397E099838A83610172018E01085E1F4F9401AE01495F5F4FB301C5010E947C
:2038A000A417B201C5010E94741AC3010E943C1A610172018E01085E1F4F9301A401BE01B8
:2038C000695F7F4FC5010E94ED1AB101C4010E94B2198E01085E1F4F9401AE01495F5F4F02
:2038E000B301C5010E94A417C5010E94DD19823011F41F8244C08130A9F5C753DF4F888197
:20390000C95CD040992787FD90952CE030E0281B390B84E690E0A901489F9001499F300D45
:20392000589F300D1124C253DF4F5881CE5CD040852F99270196D901A89F9001A99F300D86
:20394000B89F300D112488859985820F931F99878887543079F05F5FC253DF4F5883CE5C0E
:20396000D0400DC08F81181654F48FE090E00E94380497CFC253DF4F1882CE5CD0408F819A
:2039800018160CF46ECF80E00E945A04888599859F938F938DE391E09F938F9380E490E0D4
:2039A0009F938F938E01085D1F4F1F930F930E94F72BC8010E94130F4DB75EB7485F5F4F3E
:2039C0000FB6F8945EBF0FBE4DBFC253DF4F0FB6F894DEBF0FBECDBFDF91CF911F910F91F6
:2039E000FF90EF90DF90CF90BF90AF909F908F907F906F905F904F903F902F900895000FF9
:203A00002222000F2222004E4046400E404C6006600660066006002EC088800E40C4008E33
:203A20004064200EC044006C2046006C204600C6804C00C6804C0000000000180000FC01D3
:203A400020813181220F331F220F331F82819381280F391F220F331F2250364CF9018591E0
:203A600094910895FC016115710521F061307105B9F40AC0828193818330910519F413820A
:203A800012820895019606C082819381009729F483E090E09383828308950197938382838F
:203AA00008950E94BB2A0895EF92FF920F931F938C017B0184E090E00E94182AFC0111838D
:203AC0000083F382E2821F910F91FF90EF900895CF92DF92EF92FF920F931F93CF93DF9383
:203AE000EC018881992787FD909520E130E0281B390BCC24CA94DC2C02C0D694C7942A9533
:203B0000E2F74D815981842F992787FD90950396252F332727FD3095821793071CF0252F45
:203B2000215002C0242F2D5F142F47FD10E0422F552747FD5095440F551F322F00E0EE24CC
:203B4000FF242AC0A985BA85FD01E40FF51F60817181CB018C219D218C159D0551F488E0EC
:203B600090E00E2C02C0959587950A94E2F7082B0DC0321754F4E22FFF27E7FDF095EE0FEE
:203B8000FF1FEA0FFB1F71836083215031500894E11CF11C425050403117A4F6822F811B34
:203BA0008F3F49F1312F3150422F552747FD5095440F551F632F772767FD7095660F771F9B
:203BC00018C0A985BA8537FD0AC0FD01E40FF51FA60FB71F8D919C919183808304C0A40F39
:203BE000B51F1D921C9221503150425050406250704027FFE6CF18861F820E83DF91CF91A3
:203C00001F910F91FF90EF90DF90CF900895FC018081992787FD90950895FC018181992718
:203C200087FD90950895FC01828193810895FC018481992787FD90950895FC0185819927C2
:203C400087FD90950895FC01868199270895FC01878190850895CF93DF93E62FFF27E7FD13
:203C6000F095EE0FFF1FEC0189859A85E80FF91F80819181DF91CF9108952F923F924F9288
:203C80005F926F927F928F929F92AF92BF92CF92DF92EF92FF920F931F93CF93DF93CDB7AD
:203CA000DEB72A970FB6F894DEBF0FBECDBF9A878987762E142FFC01828193810E941F1D5D
:203CC0009A83898317FD02C0662430C0272D332727FD309577FE0AC02095309581E191E147
:203CE00002C0880F991F2A95E2F717C02D5F3F4FE985FA858081992787FD90952817390754
:203D00001CF480E090E009C0281B390B88E898E802C0969587952A95E2F729813A818223D8
:203D20009323892B09F0C7C0612E6194862D992787FD9095412F552747FD5095480F591F15
:203D4000DA01AA0FBB1FEE24FF249C838B83672D772767FD7095E3E08E2E912C860E971E73
:203D60000FE010E0C801062E02C0880F991F0A94E2F79E838D83AA24BB24A61AB70A180167
:203D80000A2C02C0359427940A94E2F76C5F7F4F2801062E02C0559447940A94E2F7645089
:203DA000704081C0CB80DC80CE0CDF1CE985FA858181992787FD9095481759071CF01887D4
:203DC0000F8350C077FE16C0E985FA85818592858A0F9B1FFC0180819181822193210A2CFC
:203DE00002C0880F991F0A94E2F78429952998878F8338C0E985FA858081992787FD909550
:203E00002185328588169906E4F02A0F3B1FF90120813181062E02C0369527950A94E2F760
:203E200038872F839401281B390B88EF9FEF02C0969587952A95E2F72F813885282B392B2B
:203E40000FC02A0F3B1FF901208131818D819E8128233923062E02C0369527950A94E2F7EB
:203E600038872F839601220F331F220F331F0894E11CF11C4F5F5F4F1296C801022E02C0CF
:203E8000880F991F0A94E2F7E981FA818E239F2302C0969587952A95E2F72F8138852823AB
:203EA0003923232B41F4862D8E0D84300CF47ACF80E090E002C081E090E02A960FB6F89464
:203EC000DEBF0FBECDBFDF91CF911F910F91FF90EF90DF90CF90BF90AF909F908F907F9005
:203EE0006F905F904F903F902F900895FC0145814F5F64810E943D1E882319F082E090E0F1
:203F0000089581E090E008950F931F93CF93DF93EC018B018A819B810E94321D4D816C8122
:203F2000CE010E943D1E882371F08A819B81012B19F461E070E002C060E070E00E94321D75
:203F400080E090E007C0CE010E94761F98878F8381E090E0DF91CF911F910F9108951F9353
:203F6000CF93DF93EC01672B11F41FEF01C011E06C81610F4D81CE010E943D1E882319F07E
:203F800080E090E00AC08C81810F8C83CE010E94761F98878F8381E090E0DF91CF911F9153
:203FA0000895EF92FF921F93CF93DF93EC014D814F5F6C810E943D1E882309F47AC08A818C
:203FC0009B810E941F1D7C011D8117FF18C0212F332727FD30952D5F3F4F220F331F220F7D
:203FE000331F8FEF9FE002C0959587952A95E2F78E219F21892B19F084E090E060C04981E8
:20400000812F992787FD90950396242F332727FD3095821793071CF4212F2D5F02C0242F24
:204020002150A22FBB27A7FDB095AA0FBB1F322F311B3AC0832F992787FD9095880F991FCF
:20404000880F991F4FE050E0082E02C0440F551F0A94E2F74E215F2102C0569547958A95E5
:20406000E2F78C81682F772767FD709587FD06C002C0440F551F6A95E2F709C088279927D9
:20408000861B970B02C0569547958A95E2F7E985FA85EA0FFB1F80819181842B952B9183C6
:2040A0008083215012973150211724F683E090E006C08D818F5F8D83CE010E94761F988746
:2040C0008F83DF91CF911F91FF90EF900895CF93DF93EC019B01FA011E828A819B81918370
:2040E00080837B836A838881992787FD9095029762E070E00E94862F6C83C9010E941F1D47
:20410000BC018DEF8D8340E050EF07C02F5F2D83E4E056954795EA95E1F7CA0186239723E2
:204120002D81892B99F327FF02C02F5F2D834D816C81CE010E943D1E813019F484E090E052
:2041400003C0CE010E94761F98878F83DF91CF910895CF93DF93EC011B821A821C821D82C1
:204160001E8289859A85009741F04981552747FD509560E070E00E94BE2B18861F82DF9171
:20418000CF910895CF93DF93EC0189859A85009711F00E94BB2ACE010E94BB2ADF91CF91EF
:2041A00008950F931F93CF93DF93082F162F8BE090E00E94182A0097B1F0EC0162E070E048
:2041C000812F992787FD90950E94FC299A878987892B31F008831983CE010E94A92005C0D3
:2041E000CE010E94BB2AC0E0D0E0CE01DF91CF911F910F910895FC01DB018AE0808380E1E6
:204200008C930895CF92DF92EF92FF920F931F93CF93DF93CDB7DEB7E0970FB6F894DEBF58
:204220000FBECDBF8C01FC01808191810E9464237C01F801808191810E9468236C01F80143
:20424000808191810E9474239E012F5F3F4FCE14DF04D8F0DF92CF92FF92EF929F938F9392
:204260008BE491E09F938F9380E390E09F938F933F932F930E94F72B8DB79EB70C960FB68B
:20428000F8949EBF0FBE8DBF18C0FF92EF929F938F9383E791E09F938F9380E390E09F93AA
:2042A0008F933F932F930E94F72BEDB7FEB73A960FB6F894FEBF0FBEEDBFCE0101960E94CC
:2042C000130FE0960FB6F894DEBF0FBECDBFDF91CF911F910F91FF90EF90DF90CF90089566
:2042E0000E94BB2A08959F92AF92BF92CF92DF92EF92FF920F931F93CF93DF93982EC0E065
:20430000D0E004E01C2F692DC8010E9471049FE0E92EFC2E692DC7010E9471042196C0316B
:20432000D105B9F0EECFCC2EDF2C692DC6010E947104AC2EBE2C692DC5010E9471042196DA
:20434000C430D10581F70F5F1F4F0530110551F002C000E010E0F02EC0E0D0E08BE0E82E32
:20436000E00EE1CFDF91CF911F910F91FF90EF90DF90CF90BF90AF909F900895CF92DF9277
:20438000EF92FF920F931F937C016B0185E090E00E94182A8C0185E0F80111928A95E9F788
:2043A000F801F182E082D382C28280E00E945A0481E00E947321C8011F910F91FF90EF9078
:2043C000DF90CF9008951F9310E083E00E94732184E690E00E94380481E00E94732184E67E
:2043E00090E00E9438041F5F123079F71F910895CF92DF92EF92FF920F931F93CF93DF93E6
:20440000009741F10E941F1D6C01C1E0D0E006E024C0CE018C219D21892B11F063E001C07A
:2044200060E0E12EF02EC7010E947104CC0FDD1F115078F70F5F0A3091F00FC0C12FD02FA2
:2044400060E0CE010E9471041150C0F70F5F0A3031F001C006E013E0F1CF13E0DACFDF91EF
:20446000CF911F910F91FF90EF90DF90CF9008954F925F926F927F928F929F92AF92BF924B
:20448000CF92DF92EF92FF920F931F93CF93DF937C010E941D1E8D3F0CF478C0C7010E9448
:2044A0001D1E982E8CE0891514F41FE002C0192D1D5FC7010E94271E3C01812E8918012FFA
:2044C0002C010894410851085FC0602FC7010E942B1E6C0182E04816510420F084E068169C
:2044E0007104D1F50915C4F1C7010E94171E182FC7010E94131E0E941F1D282D332727FD7C
:204500003095220F331F220F331F4FE050E0022E02C0440F551F0A94E2F74823592302C098
:20452000569547952A95E2F7812F992787FD909517FD06C002C0440F551F8A95E2F708C0E0
:20454000909581959F4F02C0569547958A95E2F7CA019370C82AD92AC1E0D0E01EE0CE01D0
:204560008C219D21892B11F063E001C060E0A12EB02EC5010E9471041150143019F0CC0FC4
:20458000DD1FEDCF01508A9407FF9FCFDF91CF911F910F91FF90EF90DF90CF90BF90AF90F6
:2045A0009F908F907F906F905F904F9008951F93CF93DF93EC018A819B810E943822888195
:2045C00099810E947C230E94F821888199810E947023182F8C81181719F00E94E3211C839C
:2045E000DF91CF911F910895482F31E090E020E0832F842309F09F5F2F5F243011F0330F31
:20460000F7CF892F99270895ABEAB0E00E94A12FCF0108952BEA30E0D9010E94A12FE8174B
:20462000F90720F4D9010C010E94B22F0895FC0180819181860F911D918380830895FC015B
:204640007727660F771F80819181860F971F918380830895CF93DF93EC01862F0E94F42271
:20466000282F8D819E81820F911D9E838D83883C910510F063E104C06AE070E00E94722F07
:204680006C83223071F0233018F42130D1F405C0233061F02430A9F40EC088819981C29660
:2046A0000EC0888199818A569F4F09C08881998186509F4F04C08881998180579E4F9983C4
:2046C0008883DF91CF910895FC01808191810895FC01828193810895FC017383628308958F
:2046E000FC01848199270895FC01858196810895FC01708767830895FC0187819085089572
:204700000E94BB2A089589E090E00E94182AFC0189E0DF011D928A95E9F7CF0108952F9296
:204720003F924F925F926F927F928F929F92AF92BF92CF92DF92EF92FF920F931F93CF9346
:20474000DF93CDB7DEB724970FB6F894DEBF0FBECDBFBE016E5F7F4FCE0101960E94FB204F
:204760000E9483236C016A8189810E94D1207C010E94C3252C01B701C6010E94BE213C018B
:204780008091AC019091AD01892B41F4ABEAB0E00E94A12FF093AD01E093AC010E94652B89
:2047A00067E070E00E94862F60E070E00E94541D4C018091AC019091AD01F601938382837C
:2047C00090868782540133E0232E312C2C0E3D1EAAC0C7010E94271E8330910518F4019709
:2047E00018F504C0039709F09BC08BC00E94652B67E070E00E94862F60E070E00E94541DEC
:204800008C01F60190878783A101B501C7010E9467208B819C81009721F00E94511D1C822B
:204820001B82450158017CC0C7010E94271E029711F461E001C060E0C2010E941F25833015
:20484000910551F18430910530F48130910569F10297F8F427C08530910569F18530910515
:2048600038F0069709F05CC0C7010E94D11F58C0C7010E94D11FC7010E94271E049709F44B
:204880004FC0D6018D919C91119701968D939C9347C060E070E002C061E070E0C7010E9405
:2048A000AF1F3EC060E070E002C061E070E0C7010E94841F35C0C7010E941D1E182F03C098
:2048C000C7010E94D11FC7010E94271E0297C1F3C7010E94271E019799F3C7010E94271E00
:2048E0000497F1F0C7010E941D1E811B9927880F991FF60120813181280F391F31832083BC
:204900000FC0C7010E94681DC7010E94231E682FC6010E942A23F6016481C2010E9411256A
:20492000C3010E94D722C7010E94271E049709F050CFC3010E940221D301ED91FC912081AD
:2049400031818091AC019091AD018217930780F43093AD012093AC018BEA90E0DC010E943C
:20496000A12FE217F30720F4DC0109010E94B22FC3010E947021C2010E94C025C7010E944B
:20498000C220C6010E948023C4010E94511DC5010E94511D24960FB6F894DEBF0FBECDBF7D
:2049A000DF91CF911F910F91FF90EF90DF90CF90BF90AF909F908F907F906F905F904F9043
:2049C0003F902F9008956830710571F0DC01A60FB71FFD018681882339F4FB01EA5CF54C75
:2049E00085919491FD0186830895839903C085E090E00895B29903C082E090E00895B399BE
:204A000003C083E090E00895B09903C080E090E00895B19903C084E090E0089588E090E094
:204A20000895FC018081861749F0608377276E5F7F4F80E991E00E94862F61830895DF92C6
:204A4000EF92FF920F931F93CF93DF938C01FC018181662331F0D82EFAE4F81708F072C0C9
:204A600073C0D82E71C00E94F524EC01FC01E00FF11F86818823E1F5C530D10520F4C230CF
:204A8000D10540F41BC0C530D105C1F0C830D105B9F51FC0F801848195818C179D0721F4EA
:204AA00083818A302CF407C088EDF80183830CC0F801138209C08F5FF80118C0F8018481FD
:204AC00095818C179D07C9F0F801D583C4837E0117C0F801648175816830710519F0C8011E
:204AE0000E94E324F801D583C48388ED838305C088E090E0F8019583848338E0E32EF12CFF
:204B0000F80120E030E08681882311F0815086832F5F3F4F319628303105A9F7C70104978B
:204B2000029718F4F801128204C0F80182818F5F828385E090E00E943804F8E0EF16F1040B
:204B4000B1F405C02BE4D22E98E0E92EF12CF80182818D1508F487CF1282848195810497F6
:204B600019F488EDF801838386E0E82EF12CC701DF91CF911F910F91FF90EF90DF90089519
:204B80000E94BB2A08950F931F938EE090E00E94182A8C0188E090E0F801958384838FEFE0
:204BA000808360E0C8010E941125F801128288ED83830A5F1F4F88E0F80111928A95E9F72F
:204BC00006501040C8011F910F91089568301CF080E090E00895FC0183E0EE0FFF1F8A95CE
:204BE000E1F7E052FB4F842F992787FD9095E80FF91F2591349180E890E002C095958795DB
:204C00006A95E2F72823822F99270895562F9FE0981B442311F460E013C0292F332727FD57
:204C20003095223031052CF02E30310514F463E007C0913021F09E3011F061E001C062E080
:204C4000E92FF52FCF010E94710408953F924F925F926F927F928F929F92AF92BF92CF929A
:204C6000DF92EF92FF920F931F93CF93DF934B016230710519F420E0332403C021E03AE0F3
:204C8000332E059663E070E00E94722F5C01722E7194E22E52C08114910411F48E2D01C073
:204CA000872D992787FD909540966AE070E00E94862F482E8114910449F4882339F4C50195
:204CC000019663E070E00E94722F5C01CC24DD2438C0452D6F2DC8010E94E625482F662D93
:204CE0008C2F0E940626F39489E08F1544F4C801019663E070E00E94722F8C01FF242196C2
:204D0000C031D10531F70894C11CD11C28E0C216D104B9F481E08816910449F4442039F47A
:204D2000C501029663E070E00E94722F5C0188E290E00E943804E3947A943E140CF0ABCFDD
:204D400009C05C2C8501F42CC0E0D0E094E0692E6C0CBFCFDF91CF911F910F91FF90EF90CD
:204D6000DF90CF90BF90AF909F908F907F906F905F904F903F900895CF93DF9310920E02BB
:204D800080E00E945A0404C08AE090E00E943804839BFACF8091930190919401029663E01A
:204DA00070E00E94722F60E070E00E942626C0EDD7E0839921C004C08AE090E00E94380405
:204DC000839BFACF8CE390E00E94380480919301909194018130910549F08130910518F005
:204DE0000297D9F506C00E94071037C00E94E71B34C00E948F2331C0B3990EC060E070E04F
:204E000080919301909194010E942626809193019091940101960FC0B29916C061E070E0D6
:204E200080919301909194010E9426268091930190919401029663E070E00E94722F90933D
:204E4000940180939301B3CFB09B07C08AE090E00E943804219709F0ACCF81E080930E021A
:204E6000DF91CF910895EF92FF920F931F93CF93DF938C01CB01FA01E901409660E170E0E6
:204E80000E94862F9C01CF01409660E170E00E94862F7C01C90168E070E00E94862F84E0F6
:204EA000660F771F8A95E1F7060F171FF801EE0DFF1DE08127703070C130D10541F402C03F
:204EC000CC0FDD1F2A95E2F72E2F2C2B0AC081E090E002C0880F991F2A95E2F7282F20955F
:204EE0002E230E0D1F1DF8012083DF91CF911F910F91FF90EF900895EF92FF920F931F933D
:204F00007C01CB018A01409660E170E00E94862F9C0168E070E00E94862FFB0194E0EE0F06
:204F2000FF1F9A95E1F7EE0DFF1DC801409660E170E00E94862FE80FF91F80819927277047
:204F4000307002C0959587952A95E2F7817090701F910F91FF90EF9008954F925F926F9252
:204F60007F928F929F92AF92BF92CF92DF92EF92FF920F931F93CF93DF93EC016B017A015C
:204F80008A01015010405B010894A108B1083B010894611C711C4A010894811C911C442410
:204FA000A8010E947C27019711F4442443945524A801B501CE010E947C27019711F4552425
:204FC0005394540C4424A801B301CE010E947C27019711F444244394152D140D00E0A701EA
:204FE000B501CE010E947C27019709F401E0100F00E0A701B301CE010E947C27019709F46D
:2050000001E0100F00E0A401B501CE010E947C27019709F401E0100F00E0A401B601CE01A1
:205020000E947C27019709F401E0100F00E0A401B301CE010E947C27019709F401E0100FB4
:20504000812F9927DF91CF911F910F91FF90EF90DF90CF90BF90AF909F908F907F906F90FA
:205060005F904F900895CF92DF92EF92FF920F931F93CF93DF937C016B0100E010E024C01C
:20508000A801BE01C6010E94AD27823019F0833059F407C0A801BE01C6010E947C279C01D8
:2050A00005C021E030E002C020E030E0A801BE01C7010E9433272196C031D10509F70F5F30
:2050C0001F4F0031110519F0C0E0D0E0D9CFDF91CF911F910F91FF90EF90DF90CF90089581
:2050E000CF92DF92EF92FF920F931F93CF93DF936C017B0100E010E014C0A801BE01C701E7
:205100000E947C279C01A801BE01C6010E9433272196C031D10589F70F5F1F4F0031110561
:2051200019F0C0E0D0E0E9CFDF91CF911F910F91FF90EF90DF90CF900895CF93DF93DC0114
:20514000FB019B01205F3F4F0BC031961196E217F30731F480E090E00DC081E090E00AC021
:2051600090818C919817C9F79089ED018889981761F3F3CFDF91CF910895FC019C01205F2F
:205180003F4F0AC03196E217F30731F481E090E0089580E090E0089580818823D1F7808980
:2051A000882381F3F6CF0F931F938C0121E030E040E050E061E070E00E94332721E030E02B
:2051C00041E050E062E070E0C8010E94332721E030E042E050E060E070E0C8010E9433276F
:2051E00021E030E042E050E061E070E0C8010E94332721E030E042E050E062E070E0C80138
:205200000E9433271F910F910895CF92DF92EF92FF920F931F93CF93DF936C0100E010E05C
:2052200018C0A801BE01C6010E947C27019711F463E001C060E0EC2EF02EC7010E9471042A
:205240002196C031D10569F70F5F1F4F0031110519F0C0E0D0E0E5CFDF91CF911F910F9120
:20526000FF90EF90DF90CF9008953F924F925F926F927F928F929F92AF92BF92CF92DF924A
:20528000EF92FF920F931F93CF93DF93CDB7DEB7C054D1400FB6F894DEBF0FBECDBF80E0EF
:2052A00091E0FE01EF5BFF4F11920197E9F7EE24FF246E010894C11CD11C80C00E94A21429
:2052C0009927817090709C01A701B801C6010E9433270F5F1F4F0031110581F70894E11C28
:2052E000F11C80E1E816F10409F068C0C6010E9405293324F1E08F2E912CE1E2AE2EB12C77
:20530000AC0EBD1E6E010894C11CD11C71E4672E712C6C0E7D1E61E4462E61E0562E4C0EAF
:205320005D1E81E090E00E943804B601C5010E947028B501C6010E943328C6010E9405297B
:20534000B501C6010E949D28882331F4C6010E94D32851E0852E912CC6010E94BD2888239B
:2053600081F58301B801C6010E949D28882331F4C6010E94D32841E0842E912C005E1F4FBC
:205380000415150579F7032D1127C80135E0880F991F3A95E1F7B601860D971D0E947028F6
:2053A0000894811C911C88E6881681E0980648F40F5F1F4F27E0322E3022B3CF00E010E0D9
:2053C0007DCF80E090E0C05CDE4F0FB6F894DEBF0FBECDBFDF91CF911F910F91FF90EF90F3
:2053E000DF90CF90BF90AF909F908F907F906F905F904F903F9008950F931F93CF93DF9393
:20540000869F8001879F100D969F100D1124C8010E94182AEC01009729F0A80160E070E099
:205420000E94BE2BCE01DF91CF911F910F910895CF93DF93AC01029710F442E050E0A091B4
:20544000D502B091D602FD01C0E0D0E020E030E020C0808191818417950769F48281938160
:20546000209719F09B838A8304C09093D6028093D502CF0132C04817590738F4211531057F
:2054800019F08217930708F49C01EF010280F381E02D3097F1F62115310589F1C901841B47
:2054A000950B049708F4A901E0E0F0E026C08D919C91119782179307E9F44817590779F466
:2054C000ED018A819B81309719F09383828304C09093D6028093D502CD01029649C0841B15
:2054E000950BFD01E80FF91F4193519302978D939C933AC0FD01A281B3811097C1F68091A1
:20550000D3029091D402892B41F480919701909198019093D4028093D30220919901309186
:205520009A012115310541F42DB73EB78091950190919601281B390BE091D302F091D402D3
:205540002E1B3F0B2417350788F0CA0102962817390760F0CF01840F951F02969093D402EF
:205560008093D30241935193CF0102C080E090E0DF91CF910895CF93DF93009709F44EC046
:20558000EC0122971B821A82A091D502B091D602109711F140E050E001C0DC01AC17BD07ED
:2055A00000F1BB83AA83FE0121913191E20FF31FEA17FB0771F42E5F3F4F8D919C911197A3
:2055C000820F931F99838883FD01828193819B838A834115510559F4D093D602C093D502C3
:2055E0001DC0FD0182819381AD010097B1F6FA01D383C28321913191E20FF31FEC17FD07B9
:2056000069F42E5F3F4F88819981820F931FFA01918380838A819B8193838283DF91CF9188
:205620000895AF92BF92CF92DF92EF92FF920F931F93CF93DF93EC01E880F9800A811B813A
:20564000C801B7012DE133EF41E050E00E94D62F27EA31E440E050E00E94B72F5B016C01DA
:20566000C801B7012DE133EF41E050E00E94D62FCA01B90124E13BE040E050E00E94B72F04
:20568000A61AB70AC80AD90A1A141B041C041D0444F08FEF9FEFAFEFBFE7A80EB91ECA1E4D
:2056A000DB1EA882B982CA82DB82C5019F77DF91CF911F910F91FF90EF90DF90CF90BF90BC
:2056C000AF9008950E94112B08958BE991E00E94112B0895AA27BB2780939B0190939C01F1
:2056E000A0939D01B0939E010895FC01ADB7BEB711960D90068A0C90058AA28BB38B0FB655
:20570000048A20823182428253826482758286829782A086B186C286D386E486F58606879F
:205720001787C08BD18B882799270895DC01CB0181309105811D2D903D904D905D906D9039
:205740007D908D909D90AD90BD90CD90DD90ED90FD900D911D91CD91DD91ED91FD910D90D3
:20576000F894FEBF0FBEEDBFED91FD910994FB01DC0105900D920020E1F70895DC0101C07E
:205780006D9341505040E0F70895009731F4DA018D919C91009709F40EC0DC01FB013D9189
:2057A0002191222319F03217C9F3FACF332331F4DA011D921C928827992708951197AF9372
:2057C000BF93FB013D912191321771F4332321F488279927119702C01E921196FA01A19383
:2057E000B0839F918F910895222369F7EACF0F931F93CF93DF93CDB7DEB760970FB6F894A2
:20580000DEBF0FBECDBF0F89188D898D9A8D97FF03C08FEF9FE701C0019798878F831C8392
:205820000B8386E08E83AE01435E5F4F5A8349836B8D7C8DCE0103960E94652C2F813885B3
:20584000821793070CF49C01020F131FF801108260960FB6F894DEBF0FBECDBFDF91CF919D
:205860001F910F9108950F931F93CF93DF93CDB7DEB760970FB6F894DEBF0FBECDBF0F8924
:20588000188D86E08E831C830B838FEF9FE798878F83AE01455E5F4F5A834983698D7A8DE4
:2058A000CE0103960E94652C29853A85020F131FF801108260960FB6F894DEBF0FBECDBFD5
:2058C000DF91CF911F910F9108952F923F924F925F926F927F928F929F92AF92BF92CF9250
:2058E000DF92EF92FF920F931F93CF93DF93CDB7DEB762970FB6F894DEBF0FBECDBF8824F8
:20590000992454012C017A8B698B3A01FC0117821682838181FD03C08FEF9FEF72C2CC2471
:20592000DD245EC2C0FE45C2832D80538A30E0F4F0E33F1641F42D85222329F4C3FC03C07D
:2059400080E091E078C08AE0ED85E802C0011124380EF32DF053FD87F7FF02C02FE72D87D3
:20596000C3FC39C22D8437C2C60188709070C3FE05C03D85332311F4E1E0ED87F7E6F31547
:205980006CF125E632160CF067C033E5331609F487C03315BCF08BE2381609F441C083154A
:2059A0004CF090E2391609F43FC0E3E23E1609F0F6C144C0FDE23F16E1F12EE2321609F0CA
:2059C000EEC141C033E6331609F44CC033150CF480C088E5381609F0E2C11FC0E0E73E16D3
:2059E00009F4A1C0E3155CF0FCE63F1691F12FE6321689F039E6331609F0D1C16AC0E5E78D
:205A00003E1609F498C0F8E73F1639F023E7321609F0C5C12FC038E08DC080E1888B8BC09C
:205A2000E0E1F0E0CE2ADF2A20E230E0C22AD32AD2C180E890E0C82AD92ACDC1E0E4F0E057
:205A4000CE2ADF2AC8C128E030E0C22AD32A1D86C2C184E090E0EFCF5FE3852E2A9443E627
:205A6000342E33C1F30180802A9422E030E0620E731E2BC1F30180809180892B49F0FD85AB
:205A80006F2F772767FD7095C4010E942E2F19C0F40101900020E9F73197E819E88B12C030
:205AA000F30180809180892B49F0FD856F2F772767FD7095C4010E94232F03C0C4010E94EA
:205AC0001A2F888B22E030E0620E731E3889231AFCC0C2FE08C0F30180819181A281B381B7
:205AE00024E030E009C0F30180819181AA2797FDA095BA2F22E030E0620E731E4C015D0181
:205B0000B7FF0CC082E090E0C82AD92AB094A09490948094811C911CA11CB11CEFEBFFEFF0
:205B2000CE22DF2221C020E430E0C22AD32A38E7332E30E1388BC2FE08C0F30180819181B3
:205B4000A281B38124E030E007C0F30180819181AA27BB2722E030E0620E731E4C015D019B
:205B60008FEC9FEFC822D92285017401FE013196FF87EE87F8898F2E9924AA24BB24C8010A
:205B8000B701A50194010E94D62F6A301CF0630D615201C0605DEE85FF856193FF87EE873E
:205BA000C801B701A50194010E94D62F79018A01211531054105510511F7882499245401AF
:205BC000CE0101968E84881AC60182739070892B09F02A94C6FE07C0F889F03111F482E0F0
:205BE00001C081E0281A28E0E22EF12CEC20FD20C3FE16C08D85282F332727FD3095882DEB
:205C00009927821793073CF0E7EFFFEFCE22DF22EE24FF2405C0FD85F819FD872F1A01C095
:205C20002818C60180789170892B69F4822D06C0B20180E290E00E94392F812F182F1150F7
:205C40001816B4F3212EC1FE04C0B2018DE290E00BC0C4FE04C0B2018BE290E005C0C5FEA2
:205C600005C0B20180E290E00E94392FC6FE0FC0B20180E390E00E94392F2889203139F47E
:205C8000B201832D992787FD90950E94392FD0FE0DC0822D06C0B20180E390E00E94392F8E
:205CA000812F182F11501816B4F3212EEF2869F02D8506C0B20180E390E00E94392F212FA0
:205CC000122F11501216B4F31D8790E8E92EF12CEC20FD20C7FC0DC0822D06C0B20180E2C0
:205CE00090E00E94392F812F182F11501816B4F3212E33E6331641F4B201882D992787FD6B
:205D000090950E94392F3BC083E7381689F4840109C0F80181918F01B201992787FD90951F
:205D20000E94392FF889F150F88BFF3F91F715C023E5321619F00E851F851AC0840108C0C2
:205D4000F8018491B20199270E94392F0F5F1F4FF889F150F88BFF3F99F7480110C0F801B7
:205D600082918F01B201992787FD90950E94392FCE0101960817190791F71F870E87EF28DB
:205D8000A9F0822D06C0B20180E290E00E94392F812F182F11501816B4F3212E07C0B20170
:205DA000832D992787FD90950E94392FCC24DD2412C0F5E23F1641F42AE0288B22241D86F6
:205DC00081E0C82ED12C07C0B201832D992787FD90950E94392F89899A8901969A8B898BCD
:205DE000F201838183FF04C0E989FA89349003C0E989FA893080332009F094CDF20186819E
:205E0000978162960FB6F894DEBF0FBECDBFDF91CF911F910F91FF90EF90DF90CF90BF90E0
:205E2000AF909F908F907F906F905F904F903F902F900895FC0105900020E9F78095909502
:205E40008E0F9F1F0895FC010590615070400110D8F7809590958E0F9F1F0895FC01615097
:205E6000704001900110D8F7809590958E0F9F1F08950F931F93CF93DF938C01EB018B8122
:205E8000992781FF1BC082FF0DC02E813F818C819D812817390764F4E881F9810193F98335
:205EA000E88306C0E885F985802F0995892B31F48E819F8101969F838E8302C00FEF1FEFD9
:205EC000C801DF91CF911F910F910895991B79E004C0991F961708F0961B881F7A95C9F7E7
:205EE00080950895AA1BBB1B51E107C0AA1FBB1FA617B70710F0A61BB70B881F991F5A956D
:205F0000A9F780959095BC01CD01089597FB092E07260AD077FD04D0E5DF06D000201AF49F
:205F2000709561957F4F0895F6F7909581959F4F0895E199FECFBFBBAEBBE09A11960DB23E
:205F40000895F7DFE02DF5DFF02D0895E199FECFBFBBAEBB0DBA11960FB6F894E29AE19A53
:205F60000FBE0895F3DF012CF1DF11240895629FD001739FF001829FE00DF11D649FE00D35
:205F8000F11D929FF00D839FF00D749FF00D659FF00D9927729FB00DE11DF91F639FB00D32
:205FA000E11DF91FBD01CF0111240895A1E21A2EAA1BBB1BFD010DC0AA1FBB1FEE1FFF1F6C
:205FC000A217B307E407F50720F0A21BB30BE40BF50B661F771F881F991F1A9469F7609570
:205FE0007095809590959B01AC01BD01CF0108953C2F2320636F756E746572203D3D202561
:206000006C75202000010204081020408023000DB2007201207E2E02FFDEC0AD0B000003E5
:2060200000000000000300000000000300000003000000000003030303030303000000033F
:206040000300030303000303000303030303030303030303030003030303030303000303EF
:20606000000300000000000300030000000303000303000000000000000003000000000008
:206080000000000003030300000000000000030303030300000000000303000300030300D9
:2060A0000000000303030303030300000000000300030003000000000003000000000003BC
:2060C000000000000003000000030000003C2F23706F696E74733A202575003C2F234C6958
:2060E0006E65732025752020202053636F7265202575202020204869676873636F7265202E
:206100002575003C2F234C696E6573202575202020204E6577204869676873636F7265201C
:2061200025750002002000D70200000100000000FFFFFFFFFFFFFFFFFFFFFFFFFFFFFFFFD9
:20614000FFFFFFFFFFFFFFFFFFFFFFFFFFFFFFFFFFFFFFFFFFFFFFFFFFFFFFFFFFFFFFFF5F
:20616000FFFFFFFFFFFFFFFFFFFFFFFFFFFFFFFFFFFFFFFFFFFFFFFFFFFFFFFFFFFFFFFF3F
:20618000FFFFFFFFFFFFFFFFFFFFFFFFFFFFFFFFFFFFFFFFFFFFFFFFFFFFFFFFFFFFFFFF1F
:2061A000FFFFFFFFFFFFFFFFFFFFFFFFFFFFFFFFFFFFFFFFFFFFFFFFFFFFFFFFFFFFFFFFFF
:207C00000C942A3E0C94453E0C94453E0C94453E0C94453E0C94453E0C94453E0C94453E67
:207C20000C94453E0C94453E0C94453E0C94453E0C94453E0C94453E0C94453E0C94453E2C
:207C40000C94453E0C94453E0C94453E0C94453E0C94453E11241FBECFE5D8E0DEBFCDBFCE
:207C600010E0A0E6B0E0EAECFFE702C005900D92A636B107D9F710E0A6E6B0E001C01D926C
:207C8000AC36B107E1F70C94563E0C94003E5D9BFECF8CB908955F9BFECF8CB19927089558
:207CA000E0916600F091670009950895CFE5D8E0DEBFCDBF10BC80E189B982E08BB986E8B2
:207CC00080BD88E18AB982E60E94473E20E080E593EC0197F1F75F9B03C08CB1803741F0E6
:207CE0002F5F2A30A1F781E60E94473E0E94503E80E70E94473E60E6A62E60E0B62E0E94D8
:207D00004B3E863509F485C08735C8F48C3409F44AC08D3450F4823409F48DC0853409F4E3
:207D200042C0813409F039C129C0833509F469C0843509F456C0803509F02FC134C08536B9
:207D4000A1F1863648F48136B9F0823609F46BC0883509F022C164C0803709F45FC0813711
:207D600020F4873609F019C1D7C0833709F43CC0843709F012C140C089E510C10E944B3E24
:207D8000082F0E944B3E1127102F00279927082B192B1093690000936800000F111F1093C3
:207DA0006B0000936A008DE0F9C010926B0010926A0020E030E00CC007B600FCFDCFE19941
:207DC000FECF83E0F90180935700E89520583F4F8CE72030380780F330936B0020936A00CC
:207DE000E2CF0E944B3EDFCF82E00E94473E85E90E94473E8EE1D2C082E70E94473E80E0EA
:207E0000CDC0E50103C00E94473E219688818823D1F780E30E94473E82E3C0C083E5BEC07D
:207E20000E94503EC0CF89E50E94473E80E00E94473E80E8B3C00E944B3E0E944B3E182FEF
:207E4000813808F0AAC00E944B3E863409F049C080916A0090916B0081509C4718F080E0FD
:207E60000E94473EC0916A00D0916B0007B600FCFDCFEE24FF24D12ED69413C00E944B3E33
:207E8000082F0E944B3E21E09927982F88271127802B912B0C01FE0120935700E8951124E2
:207EA00022968E2D0894E11CF11C8D1538F307B600FCFDCFE199FECF25E080916A0090916F
:207EC0006B00FC0120935700E89507B600FCFDCF81E180935700E895D0936B00C0936A005A
:207EE00062CF853409F059C000E013C00E944B3EA0916800B0916900082E0E94D93F809164
:207F0000680090916900019690936900809368000F5F011759F747CF0E944B3E0E944B3E8F
:207F2000E82E0E944B3E8634F1F4FF2419C0E0916A00F0916B0005911491802F0E94473E8D
:207F4000012F1127802F0E94473E80916A0090916B00029690936B0080936A0082E0F80ED1
:207F6000FE1428F3CCCE8534C1F400E013C0A0916800B09169000E94D13F802D0E94473E50
:207F80008091680090916900019690936900809368000F5F0E1559F7B2CE8FE30E94473E46
:207FA000AECEE199FECFBFBBAEBBE09A11960DB20895E199FECFBFBBAEBB0DBA11960FB641
:107FC000F894E29AE19A0FBE089546444C20760058
:00000001FF
