:1000000012C12CC14BC22AC129C128C141C126C17C
:1000100025C124C123C122C121C120C11FC11EC1CC
:100020001DC11CC11BC10000000000000000000039
:10003000000000000000D20038003E0045004B00E8
:10004000520059005F0066006C0073007900800068
:1000500087008D0094009A00A100A700AE00B400B4
:10006000BB00C200C800CF00D500DC00E200E90000
:10007000EF00F600FD0003010A01100117011D0148
:1000800024012B01310138013E0145014B01520190
:1000900058015F0166016C017301790180018601DD
:1000A0008D0194019A01A101A701AE01B401BB0128
:1000B000C101C801CF01D501DC01E201E901EF0175
:1000C000F601FD0103020A02100217021D022402BA
:1000D0002A02310238023E0245024B025202580205
:1000E0005F0266026C0273027902800286028D0250
:1000F00093029A02A102A702AE02B402BB02C1029D
:10010000C802CE02D502DC02E202E902EF02F602E8
:10011000FC0203030A03100317031D0324032A032D
:10012000310337033E0345034B03520358035F0378
:1001300065036C0373037903800386038D039303C4
:100140009A03A003A703AE03B403BB03C103C80310
:10015000CE03D503DC03E203E903EF03F603FC035C
:1001600003040904100417041D0424042A043104A0
:1001700037043E0445044B04520458045F046504EC
:100180006C0472047904800486048D0493049A0438
:10019000A004A704AD04B404BB04C104C804CE0485
:1001A000D504DB04E204E904EF04F604FC040305CF
:1001B0000905100516051D0524052A053105370515
:1001C0003E0544054B05520558055F0565056C0560
:1001D000720579057F0586058D0593059A05A005AD
:1001E000A705AD05B405BB05C105C805CE05D505F8
:1001F000DB05E205E805EF05F605FC050306090643
:10020000100616061D0624062A06310637063E0687
:1002100044064B06510658065F0665066C067206D4
:1002200079067F06860611241FBECFE5D4E0DEBF27
:10023000CDBF10E0A0E6B0E0EAEBF7E002C0059029
:100240000D92AA37B107D9F710E0AAE7B0E001C0D4
:100250001D92A53FB107E1F792D0AEC2D1CEE09199
:10026000CB00F091CC0010828091CD0099270196AF
:1002700081709070282F8093CD0082E2289F90019A
:1002800011242C573F4F3093CC002093CB0008957E
:100290001F920F920FB60F9211242F938F939F935B
:1002A000EF93FF931DBC1CBC209177002F5F209320
:1002B0007700E22FFF27EE0FFF1FEA5DFF4F8591CA
:1002C00094919BBD8ABD80917A00281710F4A89A5A
:1002D00001C0A89880917B00281710F4A99A01C04A
:1002E000A99880917C00281710F4AA9A01C0AA98B6
:1002F0002F3F19F487E080937700FF91EF919F9152
:100300008F912F910F900FBE0F901F9018951FBCCB
:1003100081E08EBD8AEF90E09BBD8ABD1DBC1CBCF8
:1003200080E188BF89BF0895FC01662369F03081B0
:100330009181828120E02F5F2617E9F730937A00C0
:1003400090937B0080937C000895DC018C9188233E
:10035000A9F4E091CB00F091CC008181843070F061
:10036000FD01818180937D00828180937E00838165
:1003700080937F0060E88DE790E0D6DF0895C8E4C1
:10038000D4E0DEBFCDBF8FEF84BB15BA24EC39E0DB
:1003900080E991E00197F1F721503040C9F724EC52
:1003A00039E080E991E00197F1F721503040C9F739
:1003B000DE011496E0E6F0E084E101900D928150B8
:1003C000E1F7A5DFB1D124EC39E080E991E00197B4
:1003D000F1F721503040C9F724EC39E080E991E091
:1003E0000197F1F721503040C9F77894AE014C5F86
:1003F0005F4F62EE8AE07BD1DE011196E4E7F0E028
:1004000083E001900D928150E1F760E8CE01019602
:100410008BDF13D1E091CB00F091CC008081823052
:10042000C1F78281823E19F4CF0104968EDF17DF77
:10043000F0CF9C019698832F99278FB9779BFECF99
:100440002FB9779BFECF969A08959C019698892F95
:1004500099278FB9779BFECF8FB12FB9779BFECFAE
:100460002FB19927982F8827969A3327822B932B81
:10047000089596988FB9779BFECF6FB9779BFECF83
:10048000969A0895969880EB8FB9779BFECF1FB808
:10049000779BFECF969A8FB19927089578941F92F3
:1004A0000F920FB60F9211241F932F933F934F93E8
:1004B0005F936F937F938F939F93AF93BF93EF93CC
:1004C000FF938BB78F778BBF96981FB8779BFECF24
:1004D000969A7F9B9DC08091CE008130D9F49091F7
:1004E000D1008091D000981750F4E92FFF27E153F5
:1004F000FF4F63819F5F9093D10088EB88C010927B
:10050000CF001092CE0081E892E893DF6AEA88EB90
:10051000B0DF78C0809181008823D1F411E010937E
:100520008300B0DF982F809380009D5F90938200BE
:100530009350E091C800F091C9008081882321F494
:1005400010938100918364C082E08093810060C039
:1005500080918100813009F047C0909183008091A3
:100560008200981728F58EDF90918000982790934D
:10057000800020918300213238F4E091C800F0918E
:10058000C900E20FF11D818380918300823051F414
:100590009F3F41F01092810061E88AEC6ADF63E8D6
:1005A0008AEC67DF809183008F5F8093830030C087
:1005B00010928100E091C800F091C90082E0808330
:1005C0008091CA009927019681709070282F80939E
:1005D000CA0082E2289F900111242C573F4F30938C
:1005E000C9002093C8000EC080918100823081F440
:1005F0009091830080918200981710F443DF08C027
:100600001092810061E88AEC34DF63E88AEC31DF24
:100610008BB780688BBFFF91EF91BF91AF919F9196
:100620008F917F916F915F914F913F912F911F918A
:100630000F900FBE0F901F9018951F938091CE00C2
:10064000813089F18BB78F778BBF80E090E0FDDE42
:100650002BB720682BBF90FF04C088EC80937800F4
:1006600022C0809178008150809378008823D9F44B
:1006700081E0809378001091CF001130A1F48BB706
:100680008F778BBF81E092E8D4DE1093CE008AEAA8
:1006900098EBCFDE8AEA98EBCCDE81E292E8C9DE05
:1006A0008BB780688BBF1F910895982F8091CF00E2
:1006B000882319F083E090E008956A5F6093D0008A
:1006C00066506093D4009093D5006927609560933D
:1006D000D6001092D10081E08093CF0080E890E0B6
:1006E000089587B38C6287BB81E58DB908950F9318
:1006F0001F93182F062FBA018F3118F082E090E077
:1007000010C08091CF00882319F083E090E009C0E9
:10071000412F552787ED90E046D0612F802FC5DF10
:1007200099271F910F910895969A8E9A87B38C629C
:1007300087BB81E58DB98DE28093D20084ED8093F3
:10074000D30084E890E09093CC008093CB0090930A
:10075000C9008093C80087ED90E86BDE8BEA92ECCD
:1007600068DE81E89AEC65DE87EF94EC62DE80EB70
:1007700094EA5FDE83E296EC5CDE8CE294E959DE7B
:1007800080E798E956DE81E892E853DE81E89AEC4A
:1007900050DE83E89AEC4DDE85B7886085BF8BB765
:1007A00080688BBF0895FB01DC0102C001900D92AF
:0A07B00041505040D8F70895FFCFE4
:1007BA004C41424F524C4943485420414C495645BA
:0A07CA00210D0A000000FF071000D7
:00000001FF
