:100000000C942A000C9447000C9447000C94FB03BA
:100010000C9447000C9447000C9447000C94470044
:100020000C9447000C9447000C9447000C94DA029F
:100030000C9447000C9447000C9447000C94470024
:100040000C9475000C9447000C9447000C944700E6
:100050000C94470011241FBECFE5D8E0DEBFCDBF12
:1000600010E0A0E6B0E0E4E6F5E102C005900D92F4
:10007000A437B107D9F711E0A4E7B0E001C01D92A1
:10008000A636B107E1F70E9448030C94B00A0C941D
:100090000000109297001092980010929900109210
:1000A0009A0081E083BF12BE89B7816089BF88B79B
:1000B000816088BF089588E080939F008CE38093DF
:1000C000A00086E08093A10008958091A9008F7020
:1000D000806C87B908951092A90080EC87B980B729
:1000E0008F7180BF8FEC86B9089578941F920F921C
:1000F0000FB60F9211248F939F938091A9008530A2
:1001000011F1863028F4882341F08130D1F510C0F8
:10011000863021F18730A9F52EC084B195B1909336
:1001200092008093910081E08093A90081EC20C02F
:1001300084B195B19093A5008093A40085E080934D
:10014000A90085EC15C084B195B19093A700809368
:10015000A60086E08093A90086EC0AC084B195B120
:1001600090938E0080938D0087E08093A90087ECA8
:1001700087B9369A0AC084B195B19093AD00809347
:10018000AC001092A90080EC87B99F918F910F90DD
:100190000FBE0F901F9018952F923F924F925F9233
:1001A0006F927F928F929F92AF92BF92CF92DF9287
:1001B000FF920F931F9360905E0170905F0180909B
:1001C000600190906101F0907400A0909700B09051
:1001D0009800C0909900D0909A000F2D10E0000F69
:1001E000111F0B581F4F8091810090918200A091A8
:1001F0008300B091840013012401281A390A4A0AA5
:100200005B0AC201B1012AE0660F771F881F991FA0
:100210002A95D1F720917D0030917E0040917F009A
:100220005091800015012601221A330A440A550A0A
:10023000A20191010E94280AF80131832083F394DE
:10024000F3E0FF22F09274006092810070928200CD
:100250008092830090928400A0927D00B0927E00F4
:10026000C0927F00D09280008091770090917800BA
:100270002091750030917600820F931F20917900B4
:1002800030917A00820F931F20917B0030917C0087
:10029000820F931F64E070E00E94150A7093900033
:1002A00060938F001F910F91FF90DF90CF90BF90D0
:1002B000AF909F908F907F906F905F904F903F9006
:1002C0002F9008958091A8008130F1F1823009F0DB
:1002D00044C0809195009091960018161906B4F4C8
:1002E00020915E0130915F01409160015091610168
:1002F0008091870090918800A0918900B0918A0038
:10030000281739074A075B07FCF017C0892BE1F073
:1003100020915E0130915F01409160015091610137
:100320008091870090918800A0918900B0918A0007
:1003300082179307A407B5073CF01092960010921D
:1003400095001092A80008958091930090919400D8
:1003500090939600809395000895109296001092C5
:100360009500089580915E0190915F01A0916001D8
:10037000B091610181349105A105B105B4F080EC23
:100380009FEFAFEFBFEF8093870090938800A0931B
:100390008900B0938A008CEE9FEF90939400809335
:1003A000930082E08093A8000895805C9F4FAF4F38
:1003B000BF4FACF480E490E0A0E0B0E08093870011
:1003C00090938800A0938900B0938A0084E190E024
:1003D000909394008093930082E08093A800089506
:1003E000E0912001F091210180818230B1F582817C
:1003F000893699F58181882381F18481282F30E025
:1004000080FF03C089E190E004C081FF0AC087EE4D
:100410009FEF909394008093930081E08093A800D5
:100420000BC0C90183709070892B31F41092940035
:10043000109293001092A80022FF03C0AB98AA9AD2
:100440000CC023FF03C0AA98AB9A07C02C70307071
:10045000232B19F485B3837F85BB10828091220101
:1004600090E0019681709070282F8093220186E39E
:10047000289F900111242F543F4F30932101209346
:10048000200108950E94CC00609195007091960023
:1004900061157105A9F140918F0050919000641B86
:1004A000750B8BE990E00E94180790938C00809365
:1004B0008B00181619066CF4AE98AD9A8F3F910513
:1004C00019F014F08FEF90E09093A3008093A200B6
:1004D00010C0AD98AE9A22273327281B390B2F3F27
:1004E000310519F014F02FEF30E03093A300209382
:1004F000A2008091A2009091A3009BBD8ABD0895A7
:1005000085B38F7985BB1BBC1ABC10929E001092DC
:100510009D0010929C0010929B0008950F931F93D2
:10052000DF93CF93CDB7DEB7CF5FD0400FB6F8944F
:10053000DEBF0FBECDBF83B390E0807890709F93F5
:100540008F9380919100909192009F938F938091CF
:10055000A4009091A5009F938F9380E690E09F93D5
:100560008F938E010F5F1F4F1F930F930E9473078E
:10057000F80101900020E9F73197A80160E08E2F83
:10058000801B0E9434068DB79EB70A960FB6F8946A
:100590009EBF0FBE8DBFC150DF4F0FB6F894DEBFB8
:1005A0000FBECDBFCF91DF911F910F9108950E9493
:1005B0008E0208951F920F920FB60F9211242F935F
:1005C0003F934F935F936F937F938F939F93AF93DB
:1005D000BF93EF93FF930E947806809197009091CC
:1005E0009800A0919900B0919A000196A11DB11DAB
:1005F0008093970090939800A0939900B0939A00ED
:10060000FF91EF91BF91AF919F918F917F916F91EA
:100610005F914F913F912F910F900FBE0F901F90C0
:100620001895479A1092970010929800109299008E
:1006300010929A0081E083BF12BE89B7816089BFA2
:1006400088B7816088BF0E9463060E946A060E9484
:10065000FF061092A90080EC87B980B78F7180BF28
:100660008FEC86B988EE93E020E931E0F90131970B
:10067000F1F70197D9F70E94A80588E080939F00C1
:100680008CE38093A00086E08093A1007894089585
:100690002F923F924F925F926F927F928F929F9292
:1006A000AF92BF92CF92DF92EF92FF920F931F9380
:1006B0000E94110388E893E120E931E0F9013197C4
:1006C000F1F70197D9F785B3837F85BB8FEF90E072
:1006D00099BD88BDBB9AC3988F9AA49AAC9A979AF1
:1006E000A798AF9A20919700309198004091990077
:1006F00050919A00212C70E1372E412C512C220E62
:10070000331E441E551E63E3E62E61E0F62E012DD6
:10071000112DE20EF31E041F151F609097007090BC
:1007200098008090990090909A00D401C301821B98
:10073000930BA40BB50B81509840A040B04018F427
:1007400039014A0102C00E944202A0909700B09075
:100750009800C0909900D0909A00D601C5018E19DA
:100760009F09A00BB10B81509440A040B04018F4F9
:100770005701680102C00E9462010E94F001E090EE
:100780009700F09098000091990010919A00D8017C
:10079000C70182199309A409B50981509042A0406C
:1007A000B04018F48201710103C00E948E02369A93
:1007B0000E942B0517012801A401930186017501F0
:1007C000ACCFA8989FB9779BFECF8FB9779BFECF10
:1007D000A89A0895A8989FB9779BFECF3FB18FB98B
:1007E000779BFECF2FB1932F80E0A89A30E0282B83
:1007F000392BC901089578941F920F920FB60F926A
:1008000011242F933F938F939F93EF93FF938BB775
:100810008F7D8BBFA8981FB8779BFECFA89A7F9B30
:100820000CC180912301813009F043C090912601D1
:1008300080912501981788F4E92FF0E0EC5DFE4FD8
:1008400023819F5F90932601A89888EB8FB9779BAF
:10085000FECF2FB9779BFECFEFC0109224011092EC
:100860002301A89882E88FB9779BFECF81E88FB9E2
:10087000779BFECFA89AA89888EB8FB9779BFECF7D
:100880008AEA8FB9779BFECFA89AA8988AEC8FB98D
:10089000779BFECF81E88FB9779BFECFA89AA89867
:1008A0008AEC8FB9779BFECF83E88FB9779BFECF19
:1008B000C3C08091AE00882319F581E08093B00019
:1008C000A89880EB8FB9779BFECF1FB8779BFECFA0
:1008D000A89A9FB1909385009D5F9093AF0093502D
:1008E000E0911D01F0911E018081882329F481E0AF
:1008F0008093AE009183A1C082E08093AE009DC042
:100900008091AE00813009F06DC09091B00080916F
:10091000AF009817C0F5A89880EB8FB9779BFECFF2
:100920001FB8779BFECFA89A2FB1809185008227B0
:1009300080938500953338F4E0911D01F0911E01FC
:10094000E90FF11D21839091B0009230C1F48F3FE7
:10095000B1F01092AE00A8988AEC8FB9779BFECFC9
:1009600081E88FB9779BFECFA89AA8988AEC8FB9B7
:10097000779BFECF83E88FB9779BFECFA89A9F5FC6
:100980009093B0005AC01092AE00E0911D01F0911A
:100990001E0182E0808380911F0190E001968170AA
:1009A0009070282F80931F0186E3289F90011124C7
:1009B0002F543F4F30931E0120931D01A8988AECBD
:1009C0008FB9779BFECF81E88FB9779BFECFA89A2E
:1009D000A8988AEC8FB9779BFECF83E88FB9779B75
:1009E000FECF2AC08091AE00823039F59091B000E0
:1009F0008091AF00981758F4A89880EB8FB9779B37
:100A0000FECF1FB8779BFECFA89A8FB116C0109269
:100A1000AE00A8988AEC8FB9779BFECF81E88FB99A
:100A2000779BFECFA89AA8988AEC8FB9779BFECFC8
:100A300083E88FB9779BFECFA89A8BB780628BBF74
:100A4000FF91EF919F918F913F912F910F900FBE4A
:100A50000F901F90189580912301813009F457C0A1
:100A60008BB78F7D8BBFA8981FB8779BFECF2FB118
:100A70001FB8779BFECF8FB1A89A8BB780628BBFD0
:100A8000922F80E090FF04C088EC8093720008955C
:100A9000809172008150809372008823C1F581E0BB
:100AA0008093720080912401813089F58BB78F7D0E
:100AB0008BBFA89882E88FB9779BFECF81E08FB972
:100AC000779BFECFA89A81E080932301A89888EBBA
:100AD0008FB9779BFECF8AEA8FB9779BFECFA89A12
:100AE000A89888EB8FB9779BFECF8AEA8FB9779B5E
:100AF000FECFA89AA89882E88FB9779BFECF81E2B3
:100B00008FB9779BFECFA89A8BB780628BBF089571
:100B1000982F80912401882311F083E008956A5F63
:100B20006093250166506093290190932A016927FB
:100B3000609560932B011092260181E0809324013F
:100B400080E8089587B3806B87BB81E58DB90895F0
:100B5000A89AA09A87B3806B87BB81E58DB98DE297
:100B60008093270184ED8093280181EB90E090939E
:100B700021018093200190931E0180931D01A8986C
:100B800080E88FB9779BFECF87ED8FB9779BFECF3B
:100B9000A89AA89882EC8FB9779BFECF8BEA8FB981
:100BA000779BFECFA89AA8988AEC8FB9779BFECF47
:100BB00081E88FB9779BFECFA89AA89884EC8FB96B
:100BC000779BFECF87EF8FB9779BFECFA89AA89827
:100BD00084EA8FB9779BFECF80EB8FB9779BFECFEE
:100BE000A89AA89886EC8FB9779BFECF83E28FB93D
:100BF000779BFECFA89AA89884E98FB9779BFECF00
:100C00008CE28FB9779BFECFA89AA89888E98FB914
:100C1000779BFECF80E78FB9779BFECFA89AA898E5
:100C200082E88FB9779BFECF81E88FB9779BFECFA3
:100C3000A89AA8988AEC8FB9779BFECF81E88FB9E4
:100C4000779BFECFA89AA8988AEC8FB9779BFECFA6
:100C500083E88FB9779BFECFA89A84B78F7B84BF38
:100C60008BB780628BBF08950F931F93182F062FA9
:100C7000BA01833310F082E023C0809124018823DD
:100C8000F1F42CE231E0412F50E0C9010E946A07E3
:100C900080912401882399F41A5F1093250116503E
:100CA0001093290100932A010127009500932B013D
:100CB0001092260181E08093240180E801C083E046
:100CC0001F910F91089584B38C6784BB85B383799A
:100CD00085BB08951BBC1ABC19BC18BC81EA8FBD2A
:100CE0008DE08EBD1DBC1CBC81B3806381BB0895AB
:100CF00056B340918600E42FF0E0652F70E0CF01FD
:100D000082709070959587959B0121703070822735
:100D10009327880F991F9B01227030703595279576
:100D200041704227482B413061F480915E019091DF
:100D30005F01A0916001B09161010196A11DB11DFB
:100D40000DC0423099F480915E0190915F01A091B5
:100D50006001B09161010197A109B10980935E0121
:100D600090935F01A0936001B0936101CB01887003
:100D70009070B3E095958795BA95E1F7880F991F24
:100D80009F01247030703595279535952795982FBC
:100D90009227647070707595679575956795E87082
:100DA000F07083E0F595E7958A95E1F7862F8E2719
:100DB000982B913061F48091620190916301A09130
:100DC0006401B09165010196A11DB11D0DC0923065
:100DD00099F48091620190916301A0916401B091B6
:100DE00065010197A109B1098093620190936301A4
:100DF000A0936401B093650150938600089587B372
:100E0000807F87BB88B38C7F88BB0E947806109256
:100E10005E0110925F0110926001109261011092C8
:100E200062011092630110926401109265010895AD
:100E3000DC0115968C91159790E0689F9001699F51
:100E4000300D789F300D112412968D919C9113973F
:100E5000280F391F13963C932E9312978FE3213C52
:100E600038071CF080EC9FE305C02054304C34F46C
:100E700080E490EC13969C938E9312972D913C9165
:100E80001197261B370B16968C91169790E0289F8A
:100E9000F001299FF00D389FF00D112411967C93DD
:100EA0006E9314968C91149790E0689F9001699FBF
:100EB000300D789F300D112412968D919C911397CF
:100EC00060E470E00E94150A260F371F2E1B3F0BAF
:100ED000C9010895FB01DC0102C001900D9241504F
:100EE0005040D8F70895AEE0B0E0E9E7F7E00C94A1
:100EF000870A0D891E8986E08C831A8309838FEF08
:100F00009FE79E838D83CE014996AC016F89788DD2
:100F1000CE0101960E9496072F813885020F131F7C
:100F2000F80110822E96E4E00C94A30AABE0B0E046
:100F3000ECE9F7E00C94790A3C012B015A01FC0121
:100F400017821682838181FD03C06FEF7FEFC8C1D6
:100F50009AE0892E1E010894211C311CF301238183
:100F6000F20123FD859123FF81912F01882309F44C
:100F7000B4C1853239F423FD859123FF81912F017E
:100F8000853229F4B30190E00E948B09E7CF982FB6
:100F9000DD24CC249924FFE1FD15D0F09B3269F0CB
:100FA0009C3228F4903259F0933291F40EC09D3265
:100FB00049F0903369F441E024C052E0D52A84E03E
:100FC000D82A28C098E0D92A25C0E0E1DE2A22C02C
:100FD000D7FC29C0892F80538A3070F4D6FE05C013
:100FE000989C902C1124980E15C0C89CC02C1124DC
:100FF000C80EF0E2DF2A0EC09E3229F4D6FC6DC185
:1010000040E4D42A07C09C3619F450E8D52A02C01F
:10101000983649F4F20123FD959123FF91912F0118
:10102000992309F0B8CF892F8554833018F0805266
:10103000833038F444E050E0A40EB51E5FE35983DA
:101040000FC0933631F0933779F0933509F056C0DD
:1010500020C0F5018081898342E050E0A40EB51ED6
:10106000710101E010E012C0F501E080F180D6FCD2
:1010700003C06FEF7FEF02C0692D70E042E050E0E7
:10108000A40EB51EC7010E9480098C015FE7D5221E
:1010900014C0F501E080F180D6FC03C06FEF7FEF54
:1010A00002C0692D70E042E050E0A40EB51EC701F9
:1010B0000E9475098C0150E8D52AD3FE07C01AC0DA
:1010C000B30180E290E00E948B09CA948C2D90E0DD
:1010D00008171907A8F30EC0F701D7FC8591D7FEB2
:1010E00081917F01B30190E00E948B09C110CA94E5
:1010F000015010400115110579F7ECC0943611F03C
:10110000993671F5D7FE08C0F501E080F1800281C3
:10111000138144E050E00AC0F501808191817C0197
:101120000027F7FC0095102F42E050E0A40EB51EFA
:101130005FE6D52217FF0AC010950095F094E09461
:10114000E11CF11C011D111D80E8D82A2AE030E0C5
:10115000A101C801B7010E94B709F82EF21840C0DA
:10116000953729F41D2D1F7E2AE030E01DC01D2D6E
:10117000197F9F3661F0903720F4983509F0ADC0A3
:101180000FC0903739F0983709F0A7C004C028E0A5
:1011900030E00AC0106114FD146020E130E004C0AA
:1011A00014FD166020E132E017FF08C0F5016081F0
:1011B00071818281938144E050E008C0F501808113
:1011C0009181BC0180E090E042E050E0A40EB51EA9
:1011D000A1010E94B709F82EF2188FE7D82ED1226C
:1011E000D6FE0BC05EEFD522F91438F4D4FE07C04A
:1011F000D2FC05C08FEED82202C01F2D01C0192DD0
:10120000D4FE0DC0FE01EF0DF11D8081803319F475
:1012100099EED92208C01F5FD2FE05C003C08D2DF4
:10122000867809F01F5F0D2DD3FC14C0D0FE0FC0CF
:101230001C1510F09F2C0BC09F2C9C0C911A1C2D80
:1012400006C0B30180E290E00E948B091F5F1C156D
:10125000C0F304C01C1510F4C11A01C0CC2404FF53
:1012600010C0B30180E390E00E948B0902FF1EC012
:1012700001FD03C088E790E002C088E590E0B3017B
:101280000CC0802F867891F001FF02C08BE201C074
:1012900080E2D7FC8DE2B30190E00E948B0906C08A
:1012A000B30180E390E00E948B099A94F914C0F393
:1012B000FA94F101EF0DF11DB301808190E00E94DD
:1012C0008B09FF20A9F706C0B30180E290E00E94DD
:1012D0008B09CA94CC20C1F741CEF3016681778196
:1012E000CB012B96E2E10C94950AFC01059061502C
:1012F00070400110D8F7809590958E0F9F1F08952C
:10130000FC016150704001900110D8F780959095D4
:101310008E0F9F1F08950F931F93CF93DF938C0120
:10132000EB018B8181FF1BC082FF0DC02E813F81AD
:101330008C819D812817390764F4E881F981019334
:10134000F983E88306C0E885F985802F0995892B04
:1013500031F48E819F8101969F838E8302C00FEFAF
:101360001FEFC801DF91CF911F910F910895FA01EE
:10137000AA27283051F1203181F1E8946F936E7FD4
:101380006E5F7F4F8F4F9F4FAF4FB1E03ED0B4E0C5
:101390003CD0670F781F891F9A1FA11D680F791F06
:1013A0008A1F911DA11D6A0F711D811D911DA11D17
:1013B00020D009F468943F912AE0269F1124301927
:1013C000305D3193DEF6CF010895462F4770405DC2
:1013D0004193B3E00FD0C9F7F6CF462F4F70405D71
:1013E0004A3318F0495D31FD4052419302D0A9F7CC
:1013F000EACFB4E0A6959795879577956795BA95C6
:10140000C9F700976105710508959B01AC010A2E8B
:1014100006945795479537952795BA95C9F7620F62
:10142000731F841F951FA01D089597FB092E072683
:101430000AD077FD04D027D006D000201AF470958A
:1014400061957F4F0895F6F7909581959F4F089588
:1014500097FB092E05260ED057FD04D028D00AD0C0
:10146000001C38F450954095309521953F4F4F4FD3
:101470005F4F0895F6F790958095709561957F4F31
:101480008F4F9F4F0895AA1BBB1B51E107C0AA1F96
:10149000BB1FA617B70710F0A61BB70B881F991F15
:1014A0005A95A9F780959095BC01CD010895A1E2C8
:1014B0001A2EAA1BBB1BFD010DC0AA1FBB1FEE1FCE
:1014C000FF1FA217B307E407F50720F0A21BB30B19
:1014D000E40BF50B661F771F881F991F1A9469F795
:1014E00060957095809590959B01AC01BD01CF01F1
:1014F00008952F923F924F925F926F927F928F92B8
:101500009F92AF92BF92CF92DF92EF92FF920F9392
:101510001F93CF93DF93CDB7DEB7CA1BDB0B0FB69C
:10152000F894DEBF0FBECDBF09942A883988488859
:101530005F846E847D848C849B84AA84B984C884EF
:10154000DF80EE80FD800C811B81AA81B981CE0FE6
:10155000D11D0FB6F894DEBF0FBECDBFED010895CB
:04156000F894FFCF2D
:10156400633A256920623A2569206E3A2568690D37
:041574000A00100059
:00000001FF
