:100000000C9439000C9459000C9459000C9459002C
:100010000C9459000C9459000C9459000C945900FC
:100020000C9459000C9459000C9459000C945900EC
:100030000C9459000C9459000C9459000C945900DC
:100040000C9459000C9459000C9459000C945900CC
:100050000C9459000C9459000C9459000C945900BC
:100060004170706C69616374696F6E0A0D000D0AEE
:10007000000011241FBECFEFDFE0DEBFCDBF11E0D7
:10008000A0E6B0E0ECEEFDE20FEF03950BBF04C07D
:10009000D8950D923196C8F3A639B107C9F713E088
:1000A000A6E9B1E001C01D92A031B107E1F70C94BF
:1000B0005B000C940000CFEFDFE0DEBFCDBFCFEFE1
:1000C000DFEBDEBFCDBF80E690E00E94C0008EE097
:1000D00090E0909301E4809300E421E030E0E0E0E0
:1000E000F4EE822F2E3008F48EE032969927918319
:1000F00080832F5F3F4F81E02030380791F784E6FF
:1001000090E0909301E6809300E6909303E680935D
:1001100002E683E2809355E7E0E0F0EE119284EE90
:10012000E030F807D9F780E090E00E945C160C946C
:10013000F516539A549A89E189B908955D9BFECFCB
:100140008CB908955F9BFECF8CB1992787FD909560
:100150000895F92FE82F5F9903C080E090E008959B
:100160008CB1808381E090E00895F92FE82F04C0DE
:100170005D9BFECF31968CB980818823C9F70895A5
:10018000F92FE82F04C05D9BFECF8CB93196C8953E
:10019000802D8823C1F70895BF92CF92DF92EF920E
:1001A000FF920F931F93CF93DF93CDB7DEB72397C3
:1001B0000FB6F894DEBF0FBECDBFE82EF92E062F86
:1001C000172FBB242CC0CC2EDD2E0894C11CD11CB3
:1001D000FF2DEE2D808140E150E07D2D6C2D992783
:1001E00087FD90950E9477168A81882321F45D9B74
:1001F000FECF80E28CB99D2D8C2D0E94B5005D9BB9
:10020000FECF80E28CB9B394F0E1BF1629F48EE6FC
:1002100090E00E94C000BB240894E11CF11C015036
:1002200010408FEF0F3F180771F623960FB6F89422
:10023000DEBF0FBECDBFDF91CF911F910F91FF9019
:10024000EF90DF90CF90BF900895282F392F85E051
:1002500083BF91EE81E007C092BF06B600FEFDCFDE
:1002600086BF2150304012161306B4F308950F9341
:100270001F93CF93DF93CDB7DEB726970FB6F894D1
:10028000DEBF0FBECDBF69837A838B832C833D8312
:100290004E83272F362F042F1D814C81653040F56A
:1002A000753030F5853020F599276BE470E00E94B9
:1002B000AE16B92FA82F822F99276FE070E00E9409
:1002C000AE16A80FB91F832F992763E070E00E9434
:1002D000AE16A80FB91FA756BE4FFB2FEA2F4193AA
:1002E0008E2F9F2FFB2FEA2F1183F92FE82F0183E9
:1002F00026960FB6F894DEBF0FBECDBFDF91CF912B
:100300001F910F9108952F923F924F925F926F929B
:100310007F928F929F92AF92BF92CF92DF92EF9295
:10032000FF920F931F93CF93DF93CDB7DEB726973E
:100330000FB6F894DEBF0FBECDBF69837A838B837F
:100340002C833D834E83282FE72FF62F242E332E28
:100350004C81633008F0C6C0733008F0C3C08330EE
:1003600008F0C0C03327932F822F6BE470E00E9407
:10037000AE16E82EF92E6E2E7724972D862D6FE07F
:1003800070E00E94AE16082F192FCE2CDF2CC80E5D
:10039000D91E4F2E5524952D842D63E070E00E94C8
:1003A000AE16A82EB92EBD2DAC2DA80FB91FAD5A73
:1003B000BD4FFB2FEA2F41938E2F9F2FFB2FEA2F4C
:1003C0003182F92FE82F218282E0882E912C992DFD
:1003D000882D821B930B6BE470E00E94AE16282FD1
:1003E000392F080F191FB12FA02FAA0DBB1DA35421
:1003F000BE4FFB2FEA2F41938E2F9F2FFB2FEA2F0B
:100400003182F92FE82F2182992D882D861997099D
:100410006FE070E00E94AE16E80EF91EBF2DAE2D03
:10042000AA0DBB1DAB5CBD4FFB2FEA2F41936E2F76
:100430007F2FFB2FEA2F3182F72FE62F2182280F03
:10044000391FB32FA22FAA0DBB1DA156BE4FFB2FE4
:10045000EA2F41938E2F9F2FFB2FEA2F3182F92F06
:10046000E82F2182992D882D8419950963E070E089
:100470000E94AE16C80ED91E6DE472E0C60ED71EDD
:10048000BD2DAC2D4D93FD2DEC2D3182FB2FEA2F90
:100490002182080F191F09541E4FB12FA02F4D9311
:1004A000F12FE02F3182FB2FEA2F2182E80EF91E77
:1004B0006FE272E0E60EF71EBF2DAE2D4D93FF2DBD
:1004C000EE2D3182FB2FEA2F2182280F391F27566C
:1004D0003E4FB32FA22F4D93F32FE22F3182FB2FEC
:1004E000EA2F218226960FB6F894DEBF0FBECDBF4D
:1004F000DF91CF911F910F91FF90EF90DF90CF9000
:10050000BF90AF909F908F907F906F905F904F9033
:100510003F902F9008950F931F93CF93DF93CDB704
:10052000DEB723970FB6F894DEBF0FBECDBF698349
:100530007A838B83382F272F862F6530F0F575301F
:10054000E0F53530D0F5992763E070E00E94AE16F3
:10055000082F192F822F99276FE070E00E94AE16A6
:10056000B92FA82FF12FE02FE80FF91F832F99271C
:100570006BE470E00E94AE16282F392FE80FF91FA8
:10058000E756FE4F80818823A9F4F12FE02FE20F78
:10059000F31FEA0FFB1FE756FE4F8181882351F4BA
:1005A00020E030E08281882311F021E030E0932FB9
:1005B000822F05C081E090E002C082E090E02396A7
:1005C0000FB6F894DEBF0FBECDBFDF91CF911F9164
:1005D0000F9108950F931F93CF93DF93CDB7DEB79D
:1005E00026970FB6F894DEBF0FBECDBF00E010E037
:1005F00020E030E06C837D838E83562F972F43302D
:10060000B1F0443028F4413051F0423099F409C03F
:10061000453059F0453068F0463061F404C08F5FD2
:1006200009C0815007C09F5F05C0915003C05F5F44
:1006300001C05150052F192F282F932F822F712F72
:10064000602F26960FB6F894DEBF0FBECDBFDF91A8
:10065000CF911F910F910895833099F0843028F441
:100660008130C1F08230C9F40FC0853039F0853057
:1006700070F0863091F482E090E0089583E090E09D
:10068000089586E090E0089584E090E0089581E088
:1006900090E0089585E090E0089599270895EF92FD
:1006A000FF920F931F93CF93DF93CDB7DEB72397BE
:1006B0000FB6F894DEBF0FBECDBF69837A838B83FC
:1006C000082F172F762F49E951E020E030E080E035
:1006D00090E0B92FA82FA050B042E42EF52E60E094
:1006E0007C93FF2DEE2D7083FB2FEA2F1183FF2DBE
:1006F000EE2D1183FB2FEA2F02831396FF2DEE2D93
:100700000283E3E0F0E0EE0EFF1E6F5F693141F718
:10071000455B5F4F2F5F3F4F80589F4F253031051E
:10072000C1F623960FB6F894DEBF0FBECDBFDF91A2
:10073000CF911F910F91FF90EF900895CF93DF938A
:10074000CDB7DEB723970FB6F894DEBF0FBECDBF8F
:1007500069837A838B83282F972F862FE9E9F1E02D
:10076000808391832283339633E0E031F307C1F72E
:1007700023960FB6F894DEBF0FBECDBFDF91CF91A9
:10078000089560916C0070916D00E0E0462F572F46
:10079000440F551F972F862F9695879581709070DF
:1007A00048275927972F862F892F99278295869535
:1007B00087708170907048275927262F372F232F55
:1007C00033272695872F992782279327817090704A
:1007D000672F772767FD70956627770F661F772746
:1007E0006827792764277527EF5FE83079F67093DB
:1007F0006D0060936C00862F99270895813019F55C
:1008000024E030E0822F99276BE470E00E94AE165E
:10081000B92FA82FA756BE4FF92FE82FEC51FE4F46
:1008200090E08D9181939F5F9B34D9F721503040A8
:100830008FEF2F3F380731F7E9E9F1E0119281E0BE
:10084000E43EF807D9F708953F924F925F926F9276
:100850007F928F929F92AF92BF92CF92DF92EF9250
:10086000FF920F931F93CF93DF93CDB7DEB72F97F0
:100870000FB6F894DEBF0FBECDBFAD86BE86CF8665
:10088000281B061BE41A27FD03C091E0392E02C085
:100890001FEF312E332727FD309537FF03C03095EA
:1008A00021953F4F122F07FD03C0B1E04B2E02C030
:1008B000AFEF4A2E202F332727FD309537FF03C097
:1008C000309521953F4F022FE7FC03C0F1E05F2EEA
:1008D00002C0EFEF5E2E2E2D332727FD309537FF18
:1008E00003C0309521953F4FE22E712E770CE02FFB
:1008F000FF27E7FDF095EE0FFF1FDE2E332727FDC4
:100900003095220F331FF22E101754F11E1544F1AB
:100910006E2EEE2EE11AD22E022F011BA82EB62E1D
:10092000C42E8824992419C0AA86BB86CC862D851E
:100930003E854F856A2D7B2D8C2D0E9437011E141C
:1009400014F4B40CE718101614F4C50C0719E60CCF
:100950000D0DA30C0894811C911C81162CF34FC023
:10096000011744F10E1534F1172D101BEF2CE01A6E
:10097000A82EB62EC42E8824992419C0AF82B8861A
:10098000C9862D853E854F856A2D7B2D8C2D0E9435
:100990003701111614F4A30C1D191E1414F4C50C00
:1009A000ED18170DEF0CB40C0894811C911C8016E7
:1009B0002CF325C01D2D1E19072D0E19A82EB62E9D
:1009C000C42E8824992419C0AC82BD82CE822D8584
:1009D0003E854F856A2D7B2D8C2D0E943701111687
:1009E00014F4B40C1F19101614F4A30C0F191D0DD8
:1009F000070DC50C0894811C911C8E142CF3A98240
:100A0000BA82CB822D853E854F856A2D7B2D8C2D1C
:100A10000E9437012F960FB6F894DEBF0FBECDBFF0
:100A2000DF91CF911F910F91FF90EF90DF90CF90CA
:100A3000BF90AF909F908F907F906F905F904F90FE
:100A40003F900895CF93DF93982FC9E9D1E060E0FC
:100A500070E040E050E0B52FA42FA050B042FD2F31
:100A6000EC2F20E081918D932F5F2B34D9F7C55B5C
:100A7000DF4F6F5F7F4F40585F4F6530710559F70B
:100A8000892F99270E942501DF91CF9108952F92F8
:100A90003F924F925F926F927F928F929F92AF920E
:100AA000BF92CF92DF92EF92FF920F931F93CF935B
:100AB000DF93CDB7DEB7C05ED5400FB6F894DEBF8A
:100AC0000FBECDBFC352DA4F8883CD5DD540C25231
:100AD000DA4F6883CE5DD540F9E92F2EF1E03F2E45
:100AE0004C2E5D2E0894411C511CEFEE6E2EE2E060
:100AF0007E2E6C0E7D1E88249924862F9927C15244
:100B0000DA4F99838883CF5DD540AA24BB24C12CBA
:100B100070EED72ECA0CDB1CF52CE42C172D062DFD
:100B2000F32DE22D40E0BD2DAC2D2D91CA2EDB2EF4
:100B300033273695322F222737952795B12FA02FAF
:100B40002D933D930A2F1B2F819199279695982FCE
:100B5000882797958795821B930BC152DA4F68813E
:100B60007981CF5DD5400E94CC16BF2DAE2D6D93FF
:100B70007D93EA2EFB2E4F5F4B34A9F686E990E079
:100B8000680E791EABE4B0E02A0E3B1E480E591EDB
:100B90000894811C911C80E890E0A80EB91E95E095
:100BA0008916910409F0B3CF882499244BC06C2F87
:100BB0007D2F6F5F7F4F4C2F5D2F41515D4FCC24B8
:100BC000DD24EE24FF241F2D0E2D00501042662E32
:100BD000772EF52FE42FBB2480819181B72DA62D90
:100BE0002D913D916A2E7B2E820F931F81939193BD
:100BF000805C9F4F880F892F881F990BB12FA02FE2
:100C00008D930A2F1B2FB394BBE4BB1629F74A56CA
:100C10005F4F6A567F4F0894C11CD11C80E890E05A
:100C2000E80EF91E95E0C916D10469F6C352DA4FF1
:100C3000A881CD5DD5408A2F99270E94250108946F
:100C4000811C911CC252DA4FB881CE5DD5408B2FEA
:100C500099278816990609F0AACFC352DA4F8881DE
:100C6000CD5DD5400E942205C052DA4F0FB6F894F0
:100C7000DEBF0FBECDBFDF91CF911F910F91FF90CF
:100C8000EF90DF90CF90BF90AF909F908F907F902C
:100C90006F905F904F903F902F9008952F923F92CA
:100CA0004F925F926F927F928F929F92AF92BF927C
:100CB000CF92DF92EF92FF920F931F93CF93DF9328
:100CC000CDB7DEB723970FB6F894DEBF0FBECDBF0A
:100CD000C42E262F3327872E9924482E5524DD2411
:100CE00089E9A82E81E0B82E992D882D6FE070E05B
:100CF0000E94AE16082F192F952D842D63E070E009
:100D00000E94AE16282E392EB12FA02FA80FB91F82
:100D1000932F822F6BE470E00E94AE16E82EF92E1E
:100D2000FB2FEA2FE80FF91FEA0DFB1DEC0DFD1D4F
:100D30004FEF4083932F822F01966BE470E00E9467
:100D4000AE16682E792EA80FB91FAA0DBB1DAC0DCB
:100D5000BD1D4C93992D882D01966FE070E00E9487
:100D6000AE16282F392FB92FA82FA20DB31DFB2F98
:100D7000EA2FEE0DFF1DEA0DFB1DEC0DFD1D40835E
:100D8000A60DB71DAA0DBB1DAC0DBD1D4C93952D19
:100D9000842D019663E070E00E94AE16080F191FC3
:100DA000F12FE02FEE0DFF1DEA0DFB1DEC0DFD1DDB
:100DB0004083060D171D0A0D1B1D0C0D1D1DF12F67
:100DC000E02F4083280F391FE20EF31EEA0CFB1CB4
:100DD000EC0CFD1CFF2DEE2D4083260D371D2A0D3A
:100DE0003B1D2C0D3D1DF32FE22F408323960FB6A4
:100DF000F894DEBF0FBECDBFDF91CF911F910F9151
:100E0000FF90EF90DF90CF90BF90AF909F908F902A
:100E10007F906F905F904F903F902F90089508952E
:100E2000AF92BF92CF92DF92EF92FF921F93CF9338
:100E3000DF93AA24BB243DC08FEF899384E60E94F0
:100E400022051F5F1330C1F70894E11CF11C85E0F7
:100E5000E816F10479F40894C11CD11C85E0C81689
:100E6000D10421F50894A11CB11C85E0A816B10499
:100E700019F11FC09F2D8E2D63E070E00E94AE1609
:100E8000D92FC82F9D2D8C2D6FE070E00E94AE16DB
:100E9000C80FD91F9B2D8A2D6BE470E00E94AE16FF
:100EA000C80FD91FC756DE4F10E0C6CFEE24FF246F
:100EB000E1CFCC24DD24FACFDF91CF911F91FF90B9
:100EC000EF90DF90CF90BF90AF9008953F924F92F8
:100ED0005F926F927F928F929F92AF92BF92CF92CA
:100EE000DF92EF92FF920F931F93CF93DF936624CD
:100EF000772478C03E1431F4842D8C0DF12FE02F2F
:100F0000808301C0188284E10E9422050894E11CBC
:100F1000F11C2196F3E0EF16F10461F70894C11C6F
:100F2000D11C0D5F1F4F85E0C816D104F9F4089459
:100F3000A11CB11CE5E0AE16B104A9F50894811C12
:100F4000911CF5E08F16910409F044C0539422E8F7
:100F5000422E82E0581609F042C00894611C711CB0
:100F6000E3E06E16710409F442C03CC09D2D8C2D47
:100F700063E070E00E94AE16D92FC82F9B2D8A2DFA
:100F80006FE070E00E94AE16C80FD91F992D882D12
:100F90006BE470E00E94AE16C80FD91FC756DE4F33
:100FA000EE24FF24A7CF992D882D6BE470E00E94DA
:100FB000AE16082F192F9B2D8A2D6FE070E00E942E
:100FC000AE16080F191F060D171D07561E4FCC240D
:100FD000DD24CCCFF9E14F0EAA24BB24E4CF882432
:100FE0009924FACF362C91E0492E5524F8CFDF9181
:100FF000CF911F910F91FF90EF90DF90CF90BF9016
:10100000AF909F908F907F906F905F904F903F90A8
:1010100008957F928F929F92AF92BF92CF92DF926C
:10102000EF92FF920F931F93CF93DF93CDB7DEB76D
:10103000A7970FB6F894DEBF0FBECDBFAC2FBD2F64
:101040005996EEE6F0E08FE001900D928150E1F7C5
:10105000AA24BB24CAC09B2D8A2D87709070833030
:10106000910509F44BC0843091054CF48130910511
:1010700071F182309105BCF5892B89F083C08530F0
:10108000910509F455C0853091050CF444C08630B3
:10109000910509F45BC0079709F074C064C00E8B1A
:1010A000FF8A188F992D882D63E070E00E94AE169C
:1010B000FD2FEC2F3196E80FF91FAE2FBF2F58965A
:1010C000208DFB2FEA2F31814281602F0AC0EB8AED
:1010D000FC8A1D8B2091690030916A0040916B0061
:1010E0006E2D7F2D16C0088BD98A1A8B2091630034
:1010F0003091640040916500602F0AC0ED86DE8665
:101100001F872091660030916700409168006E2D26
:101110007D2D812F35C00A87FB8684E0811B8C875B
:10112000209160003091610040916200602F0CC0FE
:10113000EF82F88684E0811B8987209163003091DB
:101140006400409165006E2D7F2D1AC00C83DD82F6
:1011500084E0811B8E832091690030916A00409168
:101160006B00602F0CC0E982DA8284E0811B8B83E4
:101170002091660030916700409168006E2D7D2DB2
:101180000E9437010F5FEA940C1509F064CFF394C5
:10119000DA94FC1421F000E054E0E52EF5CF1F5F57
:1011A0001C1520F4FF2444E0D42EF3CF69E085E041
:1011B0000E944705C394F5E0FC1510F010E0F0CF55
:1011C0008CE20E94220583E1871540F06091960130
:1011D00070919701809198010E949E030894A11C30
:1011E000B11CEEE1AE16B10459F07A2C8A2D65E0FF
:1011F0000E94C016892E992410E031E0C32ED0CF72
:101200006091960170919701809198010E949E03D0
:101210006EE18AE00E94470588EE0E942205A796AB
:101220000FB6F894DEBF0FBECDBFDF91CF911F91F7
:101230000F91FF90EF90DF90CF90BF90AF909F9075
:101240008F907F9008951F93CF93DF9360916300F9
:1012500070916400809165000E949E0368E28AE0BC
:101260000E94470510E041C08C2FE9E9F1E09C2F76
:101270009095908381831282339623E0E031F207C8
:10128000C1F784E10E9422052196CF3FD10561F785
:10129000C0E0D0E08C2FE9E9F1E09C2F909591839C
:1012A0008283339623E0E031F207C9F784E10E949C
:1012B00022052196CF3FD10569F7C0E0D0E08C2F01
:1012C000E9E9F1E09C2F909580839283339623E0A7
:1012D000E031F207C9F784E10E9422052196CF3F51
:1012E000D10569F71F5F123019F0C0E0D0E0BCCF24
:1012F000DF91CF911F9108952F923F924F925F926D
:101300006F927F928F929F92AF92BF92CF92DF9215
:10131000EF92FF920F931F93CF93DF93CDB7DEB77A
:101320002F970FB6F894DEBF0FBECDBF1A82198279
:10133000FDC0423079F1433030F4442361F0413054
:1013400009F05DC017C04430E1F1443090F1453000
:1013500009F055C045C0932F822F63E370E00E94CF
:10136000AE16EE85FF8580838B85FB2DEA2D81836C
:101370009A850EC0932F822F63E370E00E94AE1611
:10138000EF81F88580838A85FD2DEC2D81839B85F7
:10139000928335C08B85ED81FE818083932F822FD0
:1013A00063E370E00E94AE16FF2DEE2D81838A85E7
:1013B00025C08B85EB81FC8180838A85F12FE02F0E
:1013C00016C08A85F32DE22D8083932F822F63E34D
:1013D00070E00E94AE16EC85FD8581838B850EC082
:1013E0008A85F52DE42D80838B85FB2FEA2F818361
:1013F000932F822F63E370E00E94AE1682832F5FEB
:101400003F4FEE85FF853396FF87EE8783E090E0C0
:10141000A80EB91EEF81F8853396F887EF83C80EC2
:10142000D91E8D819E8103969E838D83E3E0F0E03B
:10143000EE0EFF1E8B819C8103969C838B830D5F38
:101440001F4F2E0E3F1EEC85FD853396FD87EC87E2
:1014500083E090E0480E591E13962530310509F0BF
:1014600068CF0894811C911C95E089169104F1F4D1
:101470000894611C711CE5E06E16710409F04CC003
:10148000F985FA3120F08CE20E94220504C068E25E
:101490008AE00E94470529813A812F5F3F4F3A83B6
:1014A00029832233310509F041C04AC0992D882D86
:1014B00063E370E00E94AE168B87992D882D6FE054
:1014C00070E00E94AE169F878E87972D862D6BE465
:1014D00070E00E94AE16EE85FF85E80FF91FE75613
:1014E000FE4FFF87EE87AE2EBF2ECE2EDF2EF88763
:1014F000EF83EE2EFF2EFE83ED830E2F1F2FFC8336
:10150000EB83FD87EC872E2E3F2EAE2FBF2F4E2E66
:101510005F2E20E030E00DCF972D862D63E370E045
:101520000E94AE168A8788249924C0CFF981F98752
:101530008F2F66E00E94C016492F66247724ECCFD7
:101540006091960170919701809198010E949E038D
:1015500062E38AE00E9447052F960FB6F894DEBF3B
:101560000FBECDBFDF91CF911F910F91FF90EF90F4
:10157000DF90CF90BF90AF909F908F907F906F90B3
:101580005F904F903F902F900895CF92DF92EF920F
:10159000FF920F931F93CF93DF93CDB7DEB7CF5654
:1015A000D0400FB6F894DEBF0FBECDBFAC2FBD2F1D
:1015B0005396E8E3F1E08DE501900D928150E1F75B
:1015C000EE24E8C0FD2DEC2D8181843061F1853061
:1015D00050F48130D1F0813088F08230E9F08330EE
:1015E00009F066C027C08630D1F1863050F18730CF
:1015F00009F443C0883009F05BC04DC0F0909801F9
:10160000009197011091960153C0F09062000091F3
:101610006100109160004CC0F09065000091640082
:101620001091630045C0F090680000916700109130
:1016300066003EC0F0906B0000916A001091690056
:1016400037C0AC2FBD2F1D96E5E3F1E083E001909C
:101650000D928150E1F7FF840E851D8529C0AC2FC6
:10166000BD2F1A96E2E3F1E083E001900D928150E4
:10167000E1F7FC840B851A851BC0AC2FBD2F179694
:10168000EFE2F1E083E001900D928150E1F7F984FF
:1016900008851F810DC0AC2FBD2F1496ECE2F1E040
:1016A00083E001900D928150E1F7FE800D811C8155
:1016B000FD2DEC2D80818130E1F18130F8F0823018
:1016C000A1F0833009F04FC091E0998382E08A83D2
:1016D0009B83FA8A098B188B212F302F4F2D61E0C5
:1016E00072E081E00E9437013EC0FA8A098B188BB4
:1016F000612F702F8F2D0E949E0335C0A9E9B1E0A4
:1017000080E090E080FF0FC0FB2FEA2F11932E2F77
:101710003F2FFB2FEA2F0183F32FE22FF182B32F0C
:10172000A22F129601C0139601968D379105D9F01C
:10173000E9CFA9E9B1E080E090E080FD0FC0FB2F88
:10174000EA2F11932E2F3F2FFB2FEA2F0183F32F28
:10175000E22FF182B32FA22F129601C013960196A9
:101760008D37910551F7FD2DEC2D82818295807F7B
:101770000E94220583E090E0C80ED91E8C2F9D2F79
:1017800080599F4FC816D90609F01CCFE3949AE000
:10179000E91631F063E1C62ED12CCC0EDD1E12CF3E
:1017A000C159DF4F0FB6F894DEBF0FBECDBFDF913A
:1017B000CF911F910F91FF90EF90DF90CF90089500
:1017C0007F928F929F92AF92BF92CF92DF92EF92D1
:1017D000FF920F931F93CF93DF93CDB7DEB7A09700
:1017E0000FB6F894DEBF0FBECDBFAC2FBD2F1A963B
:1017F000EDE7F0E087E101900D928150E1F7882458
:101800007724EE24992400E0A3E0FA2EF3E0AF2E33
:1018100013E0E3E0BE2ECC2473E0D72E7DC08330EE
:1018200009F1843030F4813061F0823009F04DC02C
:101830000CC0853091F1853008F1863009F045C043
:1018400030C00F5F1150DA9403C001501F5FD39472
:10185000053008F000E0153008F010E084E08D1548
:1018600078F133C09394AA94C39484E0891508F462
:1018700000E084E08A1568F410E00BC09A94A39409
:10188000CA9484E0891508F4992484E08A1508F440
:10189000AA2484E08C15B0F018C0E394FA94BA94AA
:1018A00003C0EA94F394B39484E08E1508F4EE2414
:1018B00084E08F1508F4FF2484E08B1528F005C020
:1018C000DD2403C0CC2401C0BB248394EA82998226
:1018D0000B8340E0692D7E2D802F0E944E06FD82F5
:1018E000AE821C8341E0612F7F2D8A2D0E944E061F
:1018F000B886CF82D98642E06C2D7B2D8D2D0E943B
:101900004E068EE60E942205609196017091970125
:10191000809198010E944F03FD2FEC2FE80DF11DDF
:101920008285882309F07BCF739484E0871510F0BB
:101930008824F2CFA0960FB6F894DEBF0FBECDBFBD
:10194000DF91CF911F910F91FF90EF90DF90CF909B
:10195000BF90AF909F908F907F9008952F923F926D
:101960004F925F926F927F928F929F92AF92BF92AF
:10197000CF92DF92EF92FF920F931F93CF93DF935B
:10198000CDB7DEB7C356D1400FB6F894DEBF0FBE59
:10199000CDBF81E08CAB8DAB1EAA8FAB82E088AF50
:1019A00019AE6091960170919701809198010E9403
:1019B0004F03F7E3AF2EB12CAC0EBD1EE4E3EE2EC9
:1019C000F12CEC0EFD1E992482E0CD59DE4F888368
:1019D000C356D1407FEF272E61E0362E55E0552EBD
:1019E00044244CED642E32E3732E24E6822E43947D
:1019F000AC2FBD2F1D96FB2DEA2D83E001900D929B
:101A00008150E1F7E3E0F0E0AE0EBF1E8C2F9D2F7A
:101A1000805A9E4FA816B90629F494E3A92EB12C3A
:101A2000AC0EBD1ECC24B4C081E0D82E4D2D6D85EA
:101A30007E858F850E94EA02FD2FEC2FE05AFE4F33
:101A40006083AC2FBD2FAF59BE4F7C93AC2FBD2F01
:101A5000AE59BE4F8C93AC2FBD2F1A9683E00190E8
:101A60000D928150E1F70C2D1127912F802F63E00B
:101A700070E00E94AE16FD2FEC2FE80FF91F9A853B
:101A80008689981709F07EC04D2D6D857E858F85DE
:101A90000E94EA02FD2FEC2FE05AFE4F6083AC2F2C
:101AA000BD2FAF59BE4F7C93AC2FBD2FAE59BE4F4B
:101AB0008C93AC2FBD2F179683E001900D9281502F
:101AC000E1F7912F802F63E070E00E94AE16FD2FAA
:101AD000EC2FE80FF91F98858789981709F052C0F5
:101AE0004D2D6D857E858F850E94EA02FD2FEC2F9E
:101AF000E05AFE4F6083AC2FBD2FAF59BE4F7C9391
:101B0000AC2FBD2FAE59BE4F8C93AC2FBD2F14966A
:101B100083E001900D928150E1F7912F802F63E0D7
:101B200070E00E94AE16FD2FEC2FE80FF91F9E818A
:101B3000808D981739F518C0932F822F63E070E0DD
:101B40000E94AE162C2F3D2F2F5F3F4F280F391FBD
:101B5000B32FA22F5596F32FE22F789683E00190B2
:101B60000D928150E1F7C3942C2D3327892D9927AD
:101B700001972817390704F35D2C53949A9401E0D8
:101B8000D02E38C0D394F7E0DF1609F04FCFC394BE
:101B9000C91409F049CF10E008C01F5F153009F4DF
:101BA000D2C0852D0E942C03582E452D6D857E8533
:101BB0008F850E94EA02FD2FEC2FE05AFE4F6083D2
:101BC000AC2FBD2FAF59BE4F7C93AC2FBD2FAE595C
:101BD000BE4F8C93AC2FBD2F119683E001900D92D8
:101BE0008150E1F769817A818B810E948B02882381
:101BF000A1F6DD24452D6D857E858F850E94EA0244
:101C0000FD2FEC2FE05AFE4F6083AC2FBD2FAF5954
:101C1000BE4F7C93AC2FBD2FAE59BE4F8C93BB2DC6
:101C2000AA2D83E001900D928150E1F76A8A798AAA
:101C3000888A282D372D462DFB2DEA2D6081718154
:101C400082810E9437010E94C103803538F40E94CE
:101C5000C10366E00E94C016592E5394F9E0F915AD
:101C6000A8F10E94C1038A3088F50E94C103082FA1
:101C70000E94C103182F0E94C10365E00E94C01694
:101C8000392F9D8B812F0E94C016292F9C8B802F6E
:101C90000E94C0169B8B692F722F832F0E948B028C
:101CA0008823A1F4892D992763E070E00E94AE1685
:101CB000FD2FEC2FE80FF91F7696AC2FBD2F539612
:101CC00083E00D9001928150E1F79394DD2009F0BB
:101CD00043C0209196013091970140919801FF2DCA
:101CE000EE2D6081718182810E94370183E090E056
:101CF000E80EF91E8C2F9D2F805A9E4FE816F9068C
:101D000059F525C020919601309197014091980195
:101D1000FF2DEE2D6081718182810E94370183E069
:101D200090E0E80EF91E8C2F9D2F805A9E4F8E1545
:101D30009F0528F414E3E12EF12CEC0EFD1E8CE33C
:101D400090E00E942501EA14FB04E1F661C0B4E3CF
:101D5000EB2EF12CEC0EFD1E10E033C02C2F3D2F8E
:101D60002F5F3F4F812F992740FE12C06A8A798AE0
:101D7000888A63E070E00E94AE16F92FE82FE20F28
:101D8000F31FAE2FBF2F5596282D372D462D11C08E
:101D900063E070E00E94AE16F92FE82FE20FF31F08
:101DA000AE2FBF2F5596209196013091970140910B
:101DB00098016589FB2FEA2F718182810E9437018A
:101DC0001F5F191559F6882D8550863F58F0CD595B
:101DD000DE4FF881C356D140F195CD59DE4FF883DF
:101DE000C356D140872D8550863F08F02194862D1B
:101DF0008550863F08F03194CD59DE4F8881C35617
:101E0000D140880E720C630C8CE30E942205EFCD4A
:101E1000CD59DE4F0FB6F894DEBF0FBECDBFDF91B8
:101E2000CF911F910F91FF90EF90DF90CF90BF90D7
:101E3000AF909F908F907F906F905F904F903F906A
:101E40002F9008958F929F92AF92BF92CF92EF9270
:101E50000F93CF93DF93CDB7DEB7CA55D0400FB6FF
:101E6000F894DEBF0FBECDBF6091960170919701CF
:101E7000809198010E944F0388249924A0906300C8
:101E8000B0906400C090650081E0E82E04E0282D49
:101E900041E060E0882D0E9424040894811C911C7C
:101EA00085E08816910451F76AE085E00E944705B5
:101EB00088E80E942205AC2FBD2FA85ABF4FEBEE39
:101EC000F0E083E001900D928150E1F7FD2FEC2FBF
:101ED000E85AFF4F209166003091670040916800FA
:101EE0006081718182810E94370184E60E9422050F
:101EF000AC2FBD2FAB5ABF4FE8EEF0E083E001906E
:101F00000D928150E1F7FD2FEC2FEB5AFF4F2091FE
:101F10009601309197014091980160817181828191
:101F20000E943701AC2FBD2FAE5ABF4FE5EEF0E057
:101F300083E001900D928150E1F7FD2FEC2FEE5AD6
:101F4000FF4F2091660030916700409168006081EA
:101F5000718182810E94370184E60E942205AC2FA4
:101F6000BD2FA15BBF4FE2EEF0E083E001900D9248
:101F70008150E1F7FD2FEC2FE15BFF4F209196019F
:101F800030919701409198016081718182810E9416
:101F90003701AC2FBD2FA45BBF4FEFEDF0E083E026
:101FA00001900D928150E1F7FD2FEC2FE45BFF4F84
:101FB00020916600309167004091680060817181D6
:101FC00082810E94370184E60E942205AC2FBD2F3A
:101FD000A75BBF4FECEDF0E083E001900D928150E4
:101FE000E1F7FD2FEC2FE75BFF4F20919601309139
:101FF0009701409198016081718182810E9437012F
:10200000AC2FBD2FAA5BBF4FE9EDF0E083E001905C
:102010000D928150E1F7FD2FEC2FEA5BFF4F2091ED
:102020006600309167004091680060817181828113
:102030000E94370184E60E942205AC2FBD2FAD5BC4
:10204000BF4FE6EDF0E083E001900D928150E1F7A3
:10205000FD2FEC2FED5BFF4F209196013091970102
:10206000409198016081718182810E943701AC2F7B
:10207000BD2FA05CBF4FE3EDF0E083E001900D9237
:102080008150E1F72091660030916700409168002F
:10209000FD2FEC2FE05CFF4F6081FD2FEC2FEF5BFD
:1020A000FF4F7081FD2FEC2FEE5BFF4F80810E9470
:1020B000370184E60E942205AC2FBD2FDD96E0EDAE
:1020C000F0E083E001900D928150E1F720919601BC
:1020D00030919701409198016DAD7EAD8FAD0E941A
:1020E0003701AC2FBD2FDA96EDECF0E083E00190E4
:1020F0000D928150E1F72091660030916700409188
:1021000068006AAD7BAD8CAD0E94370188EE0E94FD
:1021100022056091960170919701809198010E942B
:102120009E0388249924A0906300B0906400C0901E
:10213000650002E0E02E04E0282D40E060E0882DFC
:102140000E9424040894811C911C85E08816910447
:1021500051F765E085E00E94470580E90E9422056D
:10216000AC2FBD2FD796EAECF0E083E001900D9202
:102170008150E1F7209196013091970140919801AB
:102180006FA978AD89AD0E943701AC2FBD2FD496D1
:10219000E7ECF0E083E001900D928150E1F72091AF
:1021A000660030916700409168006CA97DA98EA9F6
:1021B0000E94370188EC0E942205AC2FBD2FD196DA
:1021C000E4ECF0E083E001900D928150E1F7209182
:1021D0009601309197014091980169A97AA98BA93C
:1021E0000E943701AC2FBD2F9E96E1ECF0E083E01A
:1021F00001900D928150E1F72091660030916700C7
:10220000409168006EA57FA588A90E94370188EEDD
:102210000E9422056091960170919701809198012A
:102220000E949E0388249924A0906300B0906400CB
:10223000C0906500B1E0EB2E04E0282D41E060E0A5
:10224000882D0E9424040894811C911C85E0881626
:10225000910451F7AC2FBD2F9B96EEEBF0E083E09D
:1022600001900D928150E1F7209166003091670056
:10227000409168006BA57CA58DA50E94370165E0A3
:1022800085E00E94470580E90E9422056091960141
:1022900070919701809198010E949E03882499244F
:1022A000A0906300B0906400C0906500EE2404E04C
:1022B000282D42E060E0882D0E9424040894811CAF
:1022C000911C85E08816910459F7AC2FBD2F989684
:1022D000EBEBF0E083E001900D928150E1F720916B
:1022E0006600309167004091680068A579A58AA5CD
:1022F0000E94370165E085E00E94470580E90E9461
:102300002205AC2FBD2F9596E8EBF0E083E001901D
:102310000D928150E1F72091960130919701409103
:1023200098016DA17EA18FA10E943701AC2FBD2F16
:102330009296E5EBF0E083E001900D928150E1F799
:102340002091660030916700409168006AA17BA1EE
:102350008CA10E94370188EC0E942205AC2FBD2F72
:102360005F96E2EBF0E083E001900D928150E1F79F
:102370002091960130919701409198016F8D78A13D
:1023800089A10E943701AC2FBD2F5C96EFEAF0E0E7
:1023900083E001900D928150E1F720916600309129
:1023A0006700409168006C8D7D8D8E8D0E94370195
:1023B00088EC0E942205AC2FBD2F5996ECEAF0E084
:1023C00083E001900D928150E1F7209196013091C8
:1023D000970140919801698D7A8D8B8D0E9437010C
:1023E000AC2FBD2F5696E9EAF0E083E001900D9204
:1023F0008150E1F7209166003091670040916800BC
:102400006E897F89888D0E94370188EC0E942205A1
:10241000AC2FBD2F5396E6EAF0E083E001900D92D9
:102420008150E1F7209196013091970140919801F8
:102430006B897C898D890E943701AC2FBD2F509606
:10244000E3EAF0E083E001900D928150E1F7209102
:1024500066003091670040916800688979898A89AF
:102460000E94370188EC0E942205AC2FBD2F1D96DB
:10247000E0EAF0E083E001900D928150E1F72091D5
:10248000960130919701409198016D857E858F85E9
:102490000E943701AC2FBD2F1A96EDE9F0E083E0E2
:1024A00001900D928150E1F7209166003091670014
:1024B000409168006A857B858C850E94370188EC95
:1024C0000E942205AC2FBD2F1796EAE9F0E083E0C9
:1024D00001900D928150E1F7209196013091970182
:1024E000409198016F81788589850E943701AC2FD2
:1024F000BD2F1496E7E9F0E083E001900D92815042
:10250000E1F72091660030916700409168006C818E
:102510007D818E810E94370188EC0E94220588EE21
:102520000E94220560919601709197018091980117
:102530000E949E0388249924A0906300B0906400B8
:10254000C0906500A1E0EA2E04E0282D41E060E0A3
:10255000882D0E9424040894811C911C85E0881613
:10256000910451F7AC2FBD2F1196E4E9F0E083E020
:1025700001900D928150E1F7209166003091670043
:102580004091680069817A818B810E94370165E002
:1025900085E00E944705C65ADF4F0FB6F894DEBFAC
:1025A0000FBECDBFDF91CF910F91EF90CF90BF9035
:1025B000AF909F908F9008952F923F924F925F928D
:1025C0006F927F928F929F92AF92BF92CF92DF9243
:1025D000EF92FF920F931F93CF93DF93CDB7DEB7A8
:1025E000E5970FB6F894DEBF0FBECDBFAC2FBD2F61
:1025F0009496EEEEF0E08FE001900D928150E1F7BD
:102600001BAADD2444245524042D242D22952F704B
:102610003327932F822F019663E070E00E94AE165D
:10262000AC2FBD2F1196E82EF92EEA0EFB1EFF2DC2
:10263000EE2D83A1A82EBB24932F822F63E070E0A0
:102640000E94AE16282F392F2A0F3B1FF32FE22F9F
:1026500043A10F7011279B2D8A2D841B9109712F87
:10266000602F0E94AE1660E170E00E94CC16242E0E
:10267000260EFF2DEE2D84A19927F32FE22F44A1E2
:10268000841B9109712F602F0E94AE1660E170E0EB
:102690000E94CC16342E360EFF2DEE2D85A19927E3
:1026A000F32FE22F25A1821B9109712F602F0E9429
:1026B000AE1660E170E00E94CC16F22EF60E662493
:1026C000772476C0FB823A822982AC2FBD2F1496E4
:1026D000E5E1F1E088E001900D928150E1F7AC2F47
:1026E000BD2F1C96EDE0F1E088E001900D92815045
:1026F000E1F7AC2FBD2F5496E5E0F1E088E00190C2
:102700000D928150E1F7AC2FBD2F5C96EDEFF0E01C
:1027100088E001900D928150E1F78D2D9927792D58
:10272000682D0E94AE1664E070E00E94CC16E12F86
:10273000E60FE7702E2F3327B32FA22FAC0FBD1F4C
:10274000BDABACABA980BA80CB80E82CFB2FEA2FC5
:10275000048D2489482D648584810E942404089472
:10276000811C911CF5E08F16910409F0ABCF8EE12E
:102770000E942205609196017091970180919801C5
:102780000E944F032BA9263010F0D3941BAA089463
:10279000611C711C38E06316710451F40894411CEB
:1027A000511C8BE08D1540F09BA99F5F9BAB2CCFFC
:1027B000162D8824992486CF6091960170919701F7
:1027C000809198010E949E036EE18AE00E94470575
:1027D00088EE0E942205E5960FB6F894DEBF0FBE84
:1027E000CDBFDF91CF911F910F91FF90EF90DF90C0
:1027F000CF90BF90AF909F908F907F906F905F90A1
:102800004F903F902F9008958F929F92AF92BF92DA
:10281000CF92DF92EF92FF920F931F93CF93DF93AC
:10282000CDB7DEB726970FB6F894DEBF0FBECDBF8B
:10283000BB24E2E0CE2E7FEFD72E04E0EE24FF246F
:1028400064E6862E54E6952E44E6A42E2FC08A2DEB
:102850008850813F08F0C194892D8850813F08F04D
:10286000D194882D8850813F08F00195AC0C9D0CC7
:10287000800E0E94C103182F0E94C103282F812FB0
:1028800065E00E94C016592F9983822F0E94C016BE
:102890009A831B828E829D82AC822A2D392D482DEF
:1028A000652F792F80E00E943701B3942B2D3327B9
:1028B0009F2D8E2D8770907004962817390738F257
:1028C00082E10E94220581E00E94FE030E94C10372
:1028D000082F0E94C103182F0E94C1030894E11C15
:1028E000F11C98E5E91692E0F90670F43FE0C32E7A
:1028F000C02298EFC90E2FE0D22ED122D90E082F78
:102900000F700850BB24D2CF60919601709197014F
:10291000809198010E949E036EE18AE00E94470523
:1029200088EE0E94220526960FB6F894DEBF0FBEF1
:10293000CDBFDF91CF911F910F91FF90EF90DF906E
:10294000CF90BF90AF909F908F9008957F928F927D
:102950009F92AF92BF92CF92DF92EF92FF920F932E
:102960001F93CF93DF93CDB7DEB76E970FB6F89472
:10297000DEBF0FBECDBFAC2FBD2F5396E0E2F1E01E
:102980008CE001900D928150E1F7772488249924FE
:10299000AA24CC24DD2481E00E94FE038C2D63E078
:1029A0000E94C016B92EEE24FF247AC081E0B8162A
:1029B00071F1B81628F082E0B81609F059C03CC091
:1029C000023009F055C0123009F052C0872D992706
:1029D0008370907063E070E00E94AE16FD2FEC2FC4
:1029E0003196E80FF91F84889388A28873941D8715
:1029F0001E871F868A8A998AA88A2A2D392D482DF2
:102A000062E072E080E00E94370113E0CFCF013036
:102A100011F0033069F5113011F0133049F52A2D0A
:102A200026952A87392D36953B87482D46954C8724
:102A30000F831887198617C0002311F00430C1F4E2
:102A4000112311F01430A1F42A2D269526952C83FC
:102A5000392D369536953D83482D469546954E83BE
:102A600009831A831B82602F712F80E00E94370137
:102A70001F5F153008F49ACF0894E11CF11C85E023
:102A8000E816F10469F46AE08AE00E9447050894B8
:102A9000C11CD11C84E6C816D10409F07CCF03C048
:102AA0000E2D10E083CF6091960170919701809177
:102AB00098010E949E0362E38AE00E9447056E9699
:102AC0000FB6F894DEBF0FBECDBFDF91CF911F913F
:102AD0000F91FF90EF90DF90CF90BF90AF909F90BD
:102AE0008F907F900895BF92CF92DF92EF92FF92E6
:102AF0000F931F93CF93DF93CDB7DEB72C970FB60D
:102B0000F894DEBF0FBECDBFAC2FBD2F1496EDE104
:102B1000F1E083E001900D928150E1F76091960120
:102B200070919701809198010E944F031EEFB12E82
:102B3000B3E0CB2EEE24A1E0DA2EFAEAFF2E04E673
:102B400010EA0E94C10366E00E94C0169F5F492FF1
:102B50006C817D818E810E94EA026A877B878C87E7
:102B6000AC2FBD2F1796FD2FEC2F3A9683E00190E6
:102B70000D928150E1F7898578856F81633008F780
:102B80007330F8F68330E8F68E837D836C83FB82A6
:102B90000A831983212F302F4F2D0E94830182E356
:102BA0000E9422058E2D99278F709070892B41F4F9
:102BB0006091960170919701809198010E944F0356
:102BC000812F8550863F08F0C194802F8550863F25
:102BD00008F0D1948F2D8550863F08F0B194E3948E
:102BE00087EC8E1520F01C0D0D0DFB0CAACF2C963A
:102BF0000FB6F894DEBF0FBECDBFDF91CF911F910E
:102C00000F91FF90EF90DF90CF90BF9008950F93BA
:102C10001F93CF93DF93CDB7DEB726970FB6F89407
:102C2000DEBF0FBECDBF00E06091960170919701AD
:102C3000809198010E944F0310E00E94C10363E05D
:102C40000E94C01699830E94C10363E00E94C016CF
:102C50009A830E94C10363E00E94C0169B830E9476
:102C6000C1038C830E94C1038D830E94C1038E83A4
:102C70002C813D81482F69817A818B810E9483015B
:102C80001F5F1A30D1F68FE00E9422050F5F0E3FC2
:102C900059F66091960170919701809198010E9478
:102CA0004F0326960FB6F894DEBF0FBECDBFDF915F
:102CB000CF911F910F9108950E9466070E94C50A47
:102CC0000E94A6140E9404140E94220F0E94090868
:102CD0000E9473150E94DC120E94AE0C0E94E00B51
:102CE0000E9407160E947C090E942309E5CFE62F67
:102CF000F72F2E2F3F2FE8944230CCF04532BCF412
:102D00004A3029F497FB1EF4909581959F4F642FCC
:102D100077270E94DF16805D8A330CF0895D8193EE
:102D2000862F972F009799F716F45DE25193108242
:102D3000822F932F0C949C16A82FB92FE82FF92FD0
:102D400001900020E9F73297AE17BF0730F47C916D
:102D50006081708331976D93F7CF089555270024D4
:102D600080FF02C0060E571F660F771F61157105A1
:102D700021F096958795009799F7952F802D0895C6
:102D8000991B79E004C0991F961708F0961B881FBD
:102D90007A95C9F78095089597FB092E07260AD0E2
:102DA00077FD04D00CD006D000201AF47095619500
:102DB0007F4F0895F6F7909581959F4F0895AA1B30
:102DC000BB1B51E107C0AA1FBB1FA617B70710F016
:102DD000A61BB70B881F991F5A95A9F78095909548
:0C2DE000682F792F8A2F9B2F0895FFCFBA
:102DEC00FFFFFFFF000000FF000000FFAA00000033
:102DFC00FAFA9600EFAE3000FA12FF000001030160
:102E0C00030103050505020406020606020404017B
:102E1C000302040002040202040102030102030182
:102E2C000202020204010203010203010202020275
:102E3C00020202010202010202000302000302006C
:102E4C00020200010201020201020202020202025B
:102E5C000202030202030202020202020202030243
:102E6C000203020204020204020205020205960099
:102E7C00FA3296B432DC50FA96B400000004040422
:102E8C000302010000020304040404040300000014
:102E9C000102030404020100000000000101010111
:102EAC00FF000000FF000000FFFFFF00B43CF064D7
:102EBC0078DCB478DCFFFF0000010801040C020090
:102ECC000402020602000A00060C020010010708A8
:102EDC0000000801020802000803020C01030402AE
:102EEC00040602000200050802000803010A0000A3
:102EFC00060103020204080300080002080200088D
:102F0C000305080200080005100301040102060273
:062F1C000002000608009F
:00000001FF
