:101C000012C02BC02AC029C028C027C026C025C0AA
:101C100024C023C022C021C020C01FC01EC01DC0C0
:101C20001CC01BC01AC011241FBECFE5D4E0DEBF0C
:101C3000CDBF10E0A0E6B0E0E0E8FFE102C0059013
:101C40000D92A636B107D9F710E0A6E6B0E001C0C4
:101C50001D92AC36B107E1F716C0D2CF5D9BFECF27
:101C60008CB908955F9BFECF8CB19927089585B3F9
:101C7000817085BB81E08BBF1BBEE0916600F09157
:101C8000670009950895CFE5D4E0DEBFCDBF04B667
:101C900003FE06C0E0916600F0916700099506C05A
:101CA00088E10FB6F89481BD11BC0FBE10BC88E06E
:101CB00089B986E880BD88E18AB982E6CFDFA0983D
:101CC000A89A20E0EFEFFFEFCF010197F1F75F9BBC
:101CD00003C08CB1803729F02F5F253009F438C15B
:101CE000F3CF80E7BBDFBEDF863509F47CC08735E4
:101CF000C8F48C3409F4EEC08D3450F4823409F405
:101D000080C0853409F4E6C0813409F01FC128C0C1
:101D1000833509F460C0843509F451C0803509F079
:101D200015C1D8C0853681F1863648F48136B1F0C8
:101D3000823609F460C0883509F008C15AC080377E
:101D400009F455C0813720F4873609F0FFC0C4C0BC
:101D50008337B9F1843709F0F9C039C089E5C2CFBA
:101D600081DF082F7FDF1127102F00279927082BED
:101D7000192B1093690000936800000F111F109336
:101D80006B0000936A00A6C010926B0010926A006C
:101D900080E090E023E007B600FCFDCFE199FECFA4
:101DA000FC0120935700E895805C9F4F3CE1803018
:101DB000930788F390936B0080936A008BC052DF87
:101DC00089C087E04BDF83E949DF8EE18BCF86E76F
:101DD00045DF80E087CFC0E6D0E002C03FDF21963C
:101DE00088818823D9F780E339DF82E37BCF83E5DD
:101DF00079CF3DDF6FC089E531DF80E02FDF80E400
:101E000071CF30DF2FDFD82E80E48D1508F49EC00F
:101E100029DF863409F046C080916A0090916B00FA
:101E200081509C4110F080E019DFC0916A00D09190
:101E30006B0007B600FCFDCFEE24FF2411C012DFBB
:101E4000082F10DF21E011279927982F8827082BCA
:101E5000192B0801FE0120935700E89511242296C2
:101E60009E2D0894E11CF11C8D2D8695981738F352
:101E700007B600FCFDCFE199FECF25E080916A0016
:101E800090916B00FC0120935700E89507B600FC89
:101E9000FDCF81E180935700E895D0936B00C0930C
:101EA0006A0018C0853409F051C000E011C0DADEC4
:101EB000A0916800B0916900082E56D0809168000A
:101EC00090916900019690936900809368000F5F7C
:101ED0000D1569F78DE006CFC5DEC4DEE82EC2DE43
:101EE0008634E1F4FF2417C0E0916A00F0916B00A2
:101EF00005911491802FB2DE012F1127802FAEDEC5
:101F000080916A0090916B00029690936B00809391
:101F10006A0032E0F30EFE1438F3E5CE8534B1F4F6
:101F200000E011C0A0916800B091690015D0802D2B
:101F300095DE809168009091690001969093690008
:101F4000809368000F5F0E1569F7CDCE8FE3CACE80
:101F500081E684DE8CDEC5CEE199FECFBFBBAEBB91
:101F6000E09A11960DB20895E199FECFBFBBAEBBCA
:101F70000DBA11960FB6F894E29AE19A0FBE089541
:061F800046444C207600EF
:0400000300001C00DD
:00000001FF
