:0300000002086093
:080003000280038E828F83222C
:08000B0002800BAE82AF8322DC
:08001300028013742D01760038
:08001B0002801B117601740044
:08002300028023111601740094
:03002B0002802B25
:10002E00216A0176016A216721792186018D01D12C
:10003E0021BA219A0208FA020A4A01800201A70295
:10004E0009930209990209D702082202079F0207A3
:10005E00C10207F8020912214D0207DF3098FDC2D6
:10006E0098E59922117474203099FDC299F5992260
:10007E001180C0E0740D1176740A1176D0E022C2A0
:10008E00D51162319AB41B03D3E422B40D05D2D537
:10009E00C3E422FA314D40E9CA11761162319AB4A5
:1000AE001B0280E4B40D03EAC322B4080411768067
:1000BE00D0B4150280F7FB314D40E0CB1176EAC487
:1000CE004BC3227A007B007C04C2D51162319AB4F4
:1000DE001B07D3E4F583F58222B408028003B47FB4
:1000EE000CBC040280E51176313C0C80DEB40D10A0
:1000FE008B838A82BC0407E4F583F582D2D5C322B2
:10010E00FD314D40C6CD120076EDC0E0312BD0E072
:10011E002AFAE43BFBDCB4C38A828B8322EBC45401
:10012E00F0FBEAC4540F4BFBEAC454F0FA22EAC4C3
:10013E00540FFAEBC454F04AFAEBC4540FFB2224CA
:10014E00D0501424F64004240AC32224F950082463
:10015E00FA40042410C322D3223169C4C0E0540FE4
:10016E002490D43440D41176D0E022C0E0E583311F
:10017E0067E5823167D0E022C0E0E493A3600AA273
:10018E00E7547F1176400280F1D0E022B461004046
:10019E0007B47B00500224E0227800C0E0E49360B4
:1001AE0008A2E7084003A380F4D0E022C0E0C330E9
:1001BE009808E599B41B01D3C298D0E022900CEBBD
:1001CE001145EF3167EE316731861162B43A045151
:1001DE00B880EA319A75F0CBC0F075F001C0F0F539
:1001EE00F0901000F1F85024758204E493B4FE15DB
:1001FE000582E493B5F00E1174758220318611805C
:10020E00758240E4730583E583B400D8E5F0B43F0E
:10021E0007900E531145A1C7B44D07900E5B1145C3
:10022E0081B8B45207900E601145A12FB4440790C7
:10023E000E641145419BB45507900E671145C13CA4
:10024E00B44E07900E6A1145E12EB44A07900E6E19
:10025E001145810DB44807900E7411458141B44586
:10026E0007900E8011458182B44307900E8511458B
:10027E00E10AB45A0B74006012900E891145E13EEA
:10028E00B44908900E7A11450207640180900D85DD
:10029E0011459104116AB41B028078B43A028010A1
:1002AE00314D40F07906713380EA745E1176910417
:1002BE00790071337C007152F8742E11767152F5FB
:1002CE00837152F5827152B40102802D7022E86062
:1002DE00147152FA79017133EA120822E43402F9E8
:1002EE007133A3D8E97152EC60AA7904713380A4FA
:1002FE00E860F27152D8FC80ECE860047152D8F3D9
:10030E007152EC70E5712A900DA4114530987A1156
:10031E006A8076712A900D9C1145806D7800790067
:10032E00D9FED8FA22E95407232410F907E7700200
:10033E00090722D3878209878309E5827005E58341
:10034E007001C322116A319AB41B06D0E0D0E0804E
:10035E00C2B43A0A79057133D0E0D0E041C2314DD2
:10036E0050067907713380DCFA116A319AB41B0298
:10037E0080D9B43A0280DD314D5006790771338051
:10038E00E8CAC44AFA2CFCEA22EEC0E0EFC0E090C4
:10039E000DAB114579107EB47F0D91007EBA7F0DA5
:1003AE0091007EBF7F0D91007A0571414009DAFA06
:1003BE00900DFB11458025900DCA114579167ECE04
:1003CE007F0D71F27EDF7F0D71F27EE77F0D71F290
:1003DE007EED7F0D71F27EF27F0D71F2D0E0FFD0D7
:1003EE00E0FE01807141500911741209D7110611F6
:1003FE004522714180F27810760008B820FA2290DA
:10040E000D2D114511063179900CFB114511D1209E
:10041E00D5065002E105110E1180900E09114511FD
:10042E0006E4F5D0F5F07807F6D8FD758108C0E042
:10043E00C0E0737A10117E11063179743A111E7B69
:10044E00101106E493A331671174DBF711727B1060
:10045E001106E493A3547FB47F01E424E04001E449
:10046E0024201176DBEC1180D1C1110E31BA40027D
:10047E00DAC50180900D6F114511063179743A116C
:10048E001E74281176110EE4933167900D481145B4
:10049E00118D20D510400E11061208221180110662
:1004AE00A3110E8189900D7A0145900D3711457873
:1004BE00151174D8FC1145758310F1F840020180B6
:1004CE001172758220318675822031A77421C398EE
:1004DE00F874201176D8FC75820031797806742074
:1004EE001176D8FC758204E493AA83B4FE05900EAF
:1004FE00418018B4FD05900E488010B42305900E6F
:10050E00458008B4F90280EE900E4F11458A831192
:10051E008074FFB5830281CC0583E583B4009B8193
:10052E00CC117E7AFF90100015830583E583B4000D
:10053E00028021F1F8501D758204E4934403F460A7
:10054E00E911720A74412A111E1126758220318614
:10055E001180A138BAFF05900D040145900CF611DB
:10056E004574411176111674412A1176900CFB11C7
:10057E00451162B41B020180FB741FC39AEB40024B
:10058E00319A1176FB1180EB24BF50D0FBEAC39B4E
:10059E0040CA0B90100015830583E583B4000280DA
:1005AE0017F1F85013758204E4934403F460E9DB09
:1005BE00E71180758240812F22900E2911457C3FD4
:1005CE00900E56D1317C4DD1317C52D1317C44D1FB
:1005DE00317C55D1317C4ED1317C4AD1317C48D1E0
:1005EE00317C49D1317C45D1317C43D131740060AD
:1005FE00047C5AD131900E371145901000F1F8500D
:10060E0020758204E493B4FE1111720582E49311F5
:10061E00761126758220318611800583E583B4001C
:10062E00DC01801172EC1176112611450180D1D3B7
:10063E00900E131145EB3167EA31671145ED3167C5
:10064E00EC316711808D838C82A3AC82AD83900DCB
:10065E00231145116AB41B02E10311808A828B8338
:10066E00ECC39582FAED95837009EA603254F0700E
:10067E000280027A10743A1176EA31673179E58395
:10068E0025822AFBE43167E49331672BFBA3DAF76B
:10069E00EBF40431671180D1C131BA50C380567466
:1006AE003A1176E431673167316704316774FF318F
:1006BE0067017EE8C0E0780CE58C04000070FBD882
:1006CE00F7D0E0F822117E900D51114511D1402145
:1006DE0020D51EC083C0821180900D5B114511D1B3
:1006EE00AD83AC82D0E0FAD0E0FB400520D502010C
:1006FE0080D0E0D0E01180900CE30145D1D3900D75
:10070E006511451162319AB459EB117E8B838A8241
:10071E00E4120822EDB58305ECB5820122A380F028
:10072E00900D1A114511D140CE20D5CB110E017E60
:10073E00117E900E891145742C111E900D65114578
:10074E001162319AB459AE117E1207C1900E8E50BD
:10075E0003900E950145118078001180B88002013A
:10076E0080E83167743A11761174E6316708E854FF
:10077E000F70F580E5C0F0E493F5F00DE493B5F05D
:10078E00F8D0F02290D55574AAF090AAAA7455F01C
:10079E0022C8C0E0C082C083F19290D55574A0F0FB
:1007AE00D083D082E8F0F183E493C3686001D3D0A4
:1007BE00E0C82290D5557410F1DF908000E493F4D8
:1007CE00700DA37400B582F57400B583F0C322D307
:1007DE0022C0E0C082C083F19290D5557480F0F1B2
:1007EE0092D083D082D0E0F0E183758200E493B49E
:1007FE00A517A3E493B4E511A3E493B4E00BA3E42B
:10080E0093B4A505758200D32274FFB58302C3226B
:10081E00058380D6C0E0C0F0F5F074006010E5836B
:10082E00B4FF0280225007B48002801B5019E5F0FD
:10083E00F0E493C395F06009E0C395F06003D380B4
:10084E0001C3D0F0D0E022E5F012079FD0F0D0E047
:10085E002232E4F5A8F5B875D000115F115FF4F5FA
:10086E0080F590F5A0F5B0C295C2B575813079C806
:10087E007AF9DAFED9FA740060137400600F78FA10
:10088E00A20079C8D9FE4005D8F61207C175F0F955
:10089E0011CD11FA75F0FD11CD7818120080D8FB2C
:1008AE00780F7420120076D8FB900CAC120A4A9086
:1008BE000CC5120A4A1204B87E007F800201CB904A
:1008CE0010001207F85024758204E493B5F015C099
:1008DE00F0C08374EEC0E07408C0E0758240E4732B
:1008EE00D083D0F00583E583B400D72253C8F043FC
:1008FE00C83075CDFF75CCEC75CBFF75CAEC75980D
:10090E0052D2CA2230980612006AB41B5112006AE3
:10091E00B41B4B3180209803741B2212006AB45B07
:10092E004431803098DE12006AB44103740B22B455
:10093E004203740A22B44303741522B444037408A8
:10094E0022B435028007B4360280028018C0E0312E
:10095E008030980B12006AB47E09D0E024E422D0D5
:10096E00E080A1D0E0318030989A12006AB41BF575
:10097E0080A1EAC0E07A14E58C2098050470FADABA
:10098E00F6D0E0FA22C0F0C0E08013C0F0C0E03034
:10099E00E70C742D120076D0E0C0E0F4240175F05F
:1009AE006484D2D56007C2D52430120076E5F07586
:1009BE00F00A8430D50260052430120076E5F0246A
:1009CE0030120076D0E0D0F022C0E0E8C0E0C2D510
:1009DE00AA82AB837C107D2751356007243012002C
:1009EE0076D2D57CE87D035135700330D50724309F
:1009FE00120076D2D57C647D005135700330D50758
:100A0E002430120076D2D5EAABF075F00A8470036A
:100A1E0030D5052430120076E5F08BF0243012002C
:100A2E0076D0E0F8D0E022780008C3EA9CFAEB9D7D
:100A3E00FB50F618EA2CFAEB3DFBE822C0E0E8C0CA
:100A4E00E0E9C0E0ECC0E0D2D1D2D5E493A36025BA
:100A5E0020E72E547FB40D07120080D2D180ECB463
:100A6E001F04C2D580E5B40E051200808007C2D1E6
:100A7E0012007680D6D0E0FCD0E0F9D0E0F8D0E0DD
:100A8E0022547FF820D103120074C2D1C082C083D9
:100A9E00900B047C00E86007F951F370FCD9FA5111
:100AAE00F3603CB40F1251F30483801E68667767BF
:100ABE00796278766B716A7A0483800E65746172DE
:100ACE006E69736F6C756D706463A2D592E5D2D545
:100ADE00B81402C2E5B80C02C2E512007680C0D08E
:100AEE0083D0824159E493BC00057CFF540F227CD5
:100AFE0000A3C4540F228290E82386054CF844B319
:100B0E00B0B1485FF0117FA0157F1C2ED1405A5016
:100B1E00F103BFBA0C2F96018D3F95380D6F5F1202
:100B2E0007710E562F483B6258201F7670322440B4
:100B3E00B840E1618F01340BCA89D3C0A3B9588084
:100B4E0004F80285602591F092731F107F12549362
:100B5E0010444807D126564FD0F66472E0B83BD504
:100B6E00F0164F56306F48025FA8201F017630D521
:100B7E00602541A42C60056F013F261F30078E1D96
:100B8E00F06399F042B8201F2330027AD1602FF023
:100B9E00F6058F931A5028F082046FA30D3F1F5154
:100BAE004023013E0543017A01176493302A088CD5
:100BBE00243099B0F31960254135098ECB191230C6
:100BCE00051F311D04144F761204AB279056012FCA
:100BDE00A8D5F0AA26205F1CF0F361FE0141730137
:100BEE0027C1C0848FD6018770564F19701FA8D9A0
:100BFE009076021743FE01C1840B157F028B1430D1
:100C0E008F63396F19F011C9106D023F91097A4146
:100C1E00D0BA0C1D395F07F2111720416B3509F759
:100C2E0075120BA7CC48023F6412A00C27E39FC09D
:100C3E0014777011407121C0682541F0627FD1D0C8
:100C4E0021E16258B0F3051F733077B16F19E019C7
:100C5E0043E0582FF6A414D02303FE31F514309937
:100C6E00F8033F6422516025412FE3015627930973
:100C7E00FE11FE79BA607542EA6258A0E51F534F25
:100C8E00D1C0A3094253F71204621B30F505F76970
:100C9E000C351B70822F2F144F51C06425005765E1
:100CAE006C636F6D658094322076322E312C20620B
:100CBE00791FF81FFE0D0E202053656594322E44C9
:100CCE004F432C94322E455155A494322E48445203
:100CDE00B4D58D2E0E201F9E1FA0210D0E943220F6
:100CEE004C6F633A00203EA086CA822800292C95BC
:100CFE008C80C83A20001F9782C373C7A6832CBA74
:100D0E00204A554D508086A172820D0E0D0D1F8703
:100D1E0083813A20001FE4FB206B65793A20000D99
:100D2E000D1F888083812028000D0D1F821FFD005E
:100D3E001F8120202020201FC90E29201F871FB2AF
:100D4E003A200046697273741F813A20004C617319
:100D5E00741F813A2020001FB9A120737572653F60
:100D6E00000D0D1F9C9A922C8C80C80E20201F9C6B
:100D7E00C12C8E81F70D0E0D0D1F9F2061736369BF
:100D8E0069F9961F9884892C958C80A00D0E0D1FE5
:100D9E008AA065640D0E0D1F8AC1640D0E53756D0C
:100DAE006D6172793A0E20C67391640E208B916438
:100DBE000E208B207772697474656E0E1F9B3A0E2F
:100DCE00208B20756E61626C658020777269746508
:100DDE000E2020626164F5730E20859F96C60E204C
:100DEE0085849D0E2085206E6F6E849D0E1F979BB1
:100DFE002064657465637465640D0E0D866E696E90
:100E0E0067823A0D0E0D0D53656E64696E671F98FD
:100E1E008489AC20200020802020000D0D537461A9
:100E2E006E646172641F9E730E1FDA1FF465641F79
:100E3E009E730E1F9A9E001F82001F8F1FE21FAA15
:100E4E00003F3F3F001FD7001F8ED7D1001FD1821A
:100E5E0073001F8682001F8A001F93001F87810068
:100E6E001F88808381001F84DB9A83001F84DBC070
:100E7E0083001F9C9A92001FED83001FCB99900058
:0C0E8E001F9990CB640D0E1F859B0D0E6C
:00000001FF
