:100000000C9435000C9450000C9450000C9450004B
:100010000C9450000C9450000C9450000C94500020
:100020000C9450000C9450000C9450000C9452000E
:100030000C9450000C9408010C9402010C94500094
:100040000C9450000C9450000C9450000C945000F0
:100050000C945000EC008C0060000323015A009DBA
:1000600000029C00FE01B500000011241FBECFE578
:10007000D8E0DEBFCDBF10E0A0E6B0E0EAE9FCE0EA
:1000800002C005900D92A036B107D9F711E0A0E6A5
:10009000B0E001C01D92AA33B107E1F70C94A700AC
:1000A0000C9400000E94760381EC82BF0E947705C9
:1000B0000E94C203C0E08FEF84BB4BEA50E066E9C8
:1000C00070E083EA90E00E94BB058C2F809585BB91
:1000D0008BEA90E00E943B059C0180E02B3B3807B7
:1000E00089F48091BF008095C827C9010E947704D8
:1000F0006BEA70E083EA90E00E94E705835A904043
:10010000E1F207C0235A304021F4CC1F08F4C39514
:10011000D4CF0E940F05D1CF8FEF88BB6AE070E08B
:100120008FEA90E00E9449059091BF0086B398172E
:10013000A9F386B38093BF006BEB70E08BEA90E08D
:100140000E9432058BEB90E00E946004E7CFCFE580
:10015000D8E0DEBFCDBF80E090E00E94FB0380E8E6
:1001600085BF81EC82BF84E083BF81E089BF8BE5DE
:1001700090E00E94070484E590E00E94070482E674
:1001800090E00E94070488E391E00E94790483E3F1
:1001900090E00E94FE000E94C20380E090E00C9478
:1001A0004C06AF93A0912601A068A0932601AF91C1
:1001B00008952091260127FF05C02F7706C02093C0
:1001C000260103C091E088E27DD380912A01089541
:1001D000F0DF28C08DE026C080E224C0E82FF92F90
:1001E000C895002041F0802DEF93FF931BD0FF9125
:1001F000EF913196F5CF8E2F9F2F089589B928E979
:100200002AB90895559872D284E291E07FD3BCC296
:1002100057986CD2ACB1A0932A0191E088E276D3D2
:10022000579AB2C25D9906C08F93559A84E291E0C5
:1002300049D38F918CB90895AF92BF92CF92DF923C
:10024000D82EAA24BB24CC24C3DF21D096F48A3331
:1002500014F4805302C08F7D8753AA0CBB1CAA0CD8
:10026000BB1CAA0CBB1CAA0CBB1CA80EC394DA9422
:1002700059F76C2D8A2D9B2DDF90CF90BF90AF90BA
:10028000089584E0D9CF82E0D7CF81E0D5CF8F9396
:1002900080912A01E89480335CF08A3344F0813401
:1002A0003CF0873424F081361CF087360CF46894D7
:1002B0008F9108958F9380912A01E8948032B9F349
:1002C0008D30A9F3F5CF44E0562F682F792F660FB4
:1002D000771F881F660F771F881F660F771F881F7D
:1002E000660F771F881F541734F08F70805D8A3334
:1002F0000CF0895F97DF4A9551F7089564E0E3CFEA
:1003000062E0E1CF0D0041767258204D6F6E697446
:100310006F72205632000D000D004D6F64696679D2
:10032000203D206D7B732C657D5B775D5B6161613A
:10033000615D000D0044756D702020203D20647BC0
:10034000732C657D5B775D5B616161615D205B78CE
:10035000785D000D0048616C742020203D20685BB2
:100360006F6F6F6F5D000D00537465702020203D2E
:1003700020735B6F6F6F6F5D000D00526573756D5D
:1003800065203D20725B6F6F6F6F5D000D00436FE6
:100390006E746578743D20785B6F6F6F6F5D000DD4
:1003A000005369676E616C203D20695B6F6F6F6FF2
:1003B0005D000D0043616E63656C203D20635B6FE3
:1003C0006F6F6F5D000D004B696C6C54736B3D205B
:1003D0006B5B6F6F6F6F5D000D00496E69746173C9
:1003E0006B3D20705B616161615D000D005175695D
:1003F000742020203D2071000D00000088E391E072
:1004000078D284E093E0EADE8F5F9F4FE82FF92FE8
:10041000C8950020C1F720E6422E20E0522E882405
:100420009924BB24AA2466247724D4DE8EE3FADE42
:1004300001D0FBCFCDDE8D36C9F08436D1F08836C1
:1004400049F18337C9F18B36A1F1823731F1893611
:1004500069F1833629F1883731F18037C1F081376E
:1004600011F08FE3DFCEAF91AF91089550D0CEF76A
:100470009BC04DD0C82ED92EA6F720912A012D3031
:1004800011F03CD076F76C2D7D2D8A2D6DC0F9DEF4
:1004900046F7BFC128D02EF7CFC225D016F7DCC152
:1004A00022D0FEF679C31FD0E6F6BCC01CD0CEF633
:1004B00020C219D0B6F6A5C216D09EF687D28823E0
:1004C00009F4089587DE882D992D18DF82ED94E0D8
:1004D00085CE202D204E6F742053757370656E6429
:1004E0006564210D0000CDDE16F0E4DE36F46623EF
:1004F00011F4882D992D882E992E0895C4DE16F0BA
:10050000D9DE26F4662309F48A2DA82E0895E894EE
:100510005FDE2B2D833711F42D7F03C08536E9F480
:100520002260B22EAEDE2B2D1EF42E7FB22E0CC01A
:100530002E7FB22E30912A01373721F42160B22E5E
:10054000A0DE16F0B7DE4EF4662339F0B1FE03C02C
:10055000682E792E02C0482E592E842D952DB1FC7F
:10056000862DB1FC972D0895B0FE03C06E7F80FDEF
:100570008395C62ED72E182E2DDE9D2D8C2DBEDEFA
:100580002BDE8BD0B0FC04C0BBDE81E090E003C06A
:10059000B5DE82E090E0C80ED91E181A21F0EC2DCD
:1005A000EF7051F3EDCF0895C82ED92E13DE8C2DA8
:1005B0009D2DA4DE11DE71D0B0FCA0DEB0FEA0DE69
:1005C0008DE230DEB0FE5FDEB0FC5BDE66F476D03E
:1005D00003DEE1E0F0E0B0FC3196CE0EDF1EEC2D44
:1005E000EF7021F3E8CF66DE36F4662381F72091C1
:1005F0002A012D3071F708950D50494420466C674B
:1006000020507269204672616D652053520D005270
:100610003020200052313620000D20202020205094
:100620004320200095E088EFD9DD882D992D66DEE6
:10063000D3DDE82DF92D828163DECEDDE82DF92DA5
:1006400083815EDEC9DDC8DDE82DF92DC481D58149
:100650008C2F9D2F53DEC0DDBFDD2196899150DEAA
:100660000ED096E08FE010D00AD096E084E10CD056
:1006700096E089E1B3DD9991888140DE0895AADD95
:100680008C2F9D2F3BDEA8CDA9DDE0E11E2E8991A8
:1006900037DEA2DD1A94D9F70895B1FC08C0EC2D1D
:1006A000FD2D8081B0FE08959181808108959D2D5A
:1006B0008C2DB0FEACD2B0FCB9D20895B1FC08C00C
:1006C000EC2DFD2D8083B0FE0895918380830895E5
:1006D000E92E682F9D2D8C2DC0D2B0FE06C08C2D2A
:1006E0009D2D8F5F9F4F6E2DB8D20895DF93CF93CE
:1006F000BF93AF939F93D1E0CCE29FB7AE81AF5F42
:10070000AE8360F0AA81BB81BA2B41F4CDB7DEB7CE
:10071000FE81EF812996CDBFDEBF09948F937F9331
:100720006F935F934F933F932F931F930F93FF927A
:10073000EF92DF92CF92BF92AF929F928F927F9271
:100740006F925F924F923F922F921F920F929F93C0
:10075000CDB7DEB79B8D39A148A1E8A3F9A370F00E
:10076000F1E0ECE2D381C281BEB7ADB7BD83AC830B
:1007700024812DBF25812EBFCA2FDB2F1124E32F0B
:10078000F42F0994EF91EF91ECE2F1E0F8940681F7
:100790000A95068354F4D181C081D383C283209605
:1007A00039F1BD81AC81ADBFBEBF0F900FBE0F90C0
:1007B0001F902F903F904F905F906F907F908F9001
:1007C0009F90AF90BF90CF90DF90EF90FF900F91F0
:1007D0001F912F913F914F915F916F917F918F91D9
:1007E0009F91AF91BF91CF91DF91EF91FF911895BC
:1007F00078948895FDCFFF91EF918050904011F44F
:100800008DB79EB78093300190933101099401D048
:1008100023C0E82FF92F1DD0A02D1BD0B02D19D04B
:100820000C9217D00E9240E040E051E24E935A9560
:10083000E9F711970ED0802D0CD0902D0AD0E82F1B
:10084000F92FA483B5830382A0E6A283418340836A
:100850000895C89531960895F89448DF7894E82F64
:10086000F92F22812F7D228326FF03C02F7B228335
:1008700001D08ACFE82FF92F3FEF22812073E1F4D6
:10088000CF93DF934381CCE2D1E02FB7F894339537
:10089000EC2FFD2FC081D181209619F05B81451787
:1008A000B0F791838083F92FE82FD183C083DF9144
:1008B000CF91832F2FBF0895832F20642283089523
:1008C0008E5F9F4FE82FF92FF894208131812150BE
:1008D000304019F420833183189508DFECE2F1E011
:1008E000738162813CD0E82FF92F2BD04DCF8E5FE2
:1008F0009F4F0CD0909132019395892B09F0089568
:10090000F894F4DE789440CF8E5F9F4FE82FF92F54
:1009100081E090E02FB7F894718160818617970786
:1009200028F0808391838FEF2FBF08958FE586177E
:100930009707C8F723D02FBF862F972F9BCFE22F83
:10094000F32F2081318120503040C9F771836083BB
:10095000F72FE62F318320830895F32FE22F208194
:1009600031816217730751F020503040B1F708957C
:10097000608171816050704009F408954C2F5D2FA3
:10098000C62FD72F7981688171836083E62FF72F77
:100990006627688369837D2F6C2FC42FD52F989489
:1009A0000895F894A3DE7894F92FE82FA281A6FF8A
:1009B0001DC0A068A283ECE2F1E0B181A081918327
:1009C0008083F92FE82FB183A0830EC0F8948EDEC8
:1009D0007894F92FE82FA281A6FF09C0AF79A283EE
:1009E00049DFA281A062A28380E001C081E08A8FFA
:1009F000CBCEF8947BDE789490912F0180912E01DC
:100A000003C0F89473DE7894F92FE82FA0E1A28355
:100A1000792F682FF1E0ECE2F894A1DFB5CEF894DD
:100A2000FECFF89463DE7894F0912F01E0912E01CF
:100A3000228125FD09C0A8CEF89458DE7894F92FBC
:100A4000E82F2281206222837F2F6E2FF1E0ECE2DB
:100A5000F89485DFC22FD32F209619F0EA81E06445
:100A6000EA8392CEF89442DE789401D08DCEF92FAD
:100A7000E82F67DF49CFE82FF92FF89479DF7894D2
:100A800021F41EDF82509040F6CFF5D0862F972FAD
:100A9000089501D015CF6050704009F428CFF89424
:100AA00025DE7894E8D0E4E3F1E0F8942091360173
:100AB0002A95209336017894CE2FDF2FE881F98193
:100AC000309659F024813581621B730BA8F7620FB1
:100AD000731F261B370B2483358399838883D92F73
:100AE000C82FF983E8836C837D833CD04DCEF89486
:100AF00020913601215020933601789408F0089512
:100B0000CF93DF93AF93BF93D0913501C091340160
:100B1000209621F1FD81EC813197FD83EC83EF2B51
:100B2000E9F4A881B981B0933501A0933401F98328
:100B3000E8838A819B818250904031F48E819F812D
:100B40007D2F6C2F94DF03C08C2F9D2FDDDE109640
:100B500029F0CA2FDB2FFD81EC81E1CFBF91AF914E
:100B6000DF91CF91F894209136012395209336019F
:100B7000789431F608956050704029F4682F792FE9
:100B8000842F952F6FCFE82FF92F5783468342E0AC
:100B900050E05383428383CFF894A8DD7894B4DE89
:100BA0006A8D7B8DE4E3F1E0F894D9DE205030408B
:100BB00059F0C62FD72F6C817D8195818481860F56
:100BC000971F84839583E0CD2A8F3B8FDDCDF894EA
:100BD0008DDD7894682F792FE4E3F1E0F894BFDE9F
:100BE0002050304059F0C62FD72F6C817D819581E0
:100BF0008481860F971F84839583C6CDE88DF98DF8
:100C0000AEDE2050304011F4AA8FBB8FBDCD682FCF
:100C1000792F91E088E356DEE199FECF6EBB7FBB72
:100C2000E09A0DB20F9265DE8F910895682F792FAB
:100C300091E088E347DEE199FECF6EBB7FBBE09A8F
:100C40000DB20F926F5F7F4F6EBB7FBBE09A0DB20C
:100C50000F924FDE9F918F910895462F682F792F25
:100C600091E088E32FDEE199FECF6EBB7FBB4DBBE9
:100C7000E29AE19A3ECEE82FF92F329602C0F92F80
:100C8000E82FF894408151814150504011F04F5F5E
:0A0C90005F4F518340831895FFCF9A
:00000001FF
