S00D0000696D6167652E7372656314
S113000012C02CC02BC02AC029C028C027C026C0BB
S113001025C024C023C022C021C020C01FC01EC0D0
S11300201DC01CC01BC011241FBECFE5D4E0DEBF21
S1130030CDBF10E0A0E6B0E0EAE2F3E002C0059034
S11300400D92AE36B107D9F710E0AEE6B0E001C0CC
S11300501D92A13CB107E1F709D065C1D1CF80E879
S113006088B909D155D014D178940895F8DF4AD1CC
S113007018D1FECF85EA90E008950895FF920F937A
S11300801F93182F062FF42EC29885E0FCD0812FE1
S1130090FAD0802FF8D08F2DF6D0C29A1F910F91ED
S11300A0FF900895662311F440E001C04FEF60E132
S11300B070E002C0660F771F8A95E2F78CE0DEDFFE
S11300C008951F93182FC29883E0DDD0812FDBD0D1
S11300D080E0D9D0C29A1F9108950F931F93182FCF
S11300E0062FC29882E0CFD0812FCDD0802FCBD0E5
S11300F0C29A1F910F91089580E660E6EEDF08959D
S1130100682F6295660F607E64608FE0E6DF089575
S1130110BA9AC298C29880ECB6D0C29A80EA9FE09C
S11301200197F1F78CE06CE0D8DF8AE263E4D5DF75
S113013089E261EFD2DF88E265E0CFDF8BE261E044
S1130140CCDFDADF80E090E0DBDF8BE261E0C5DF6B
S113015008951F93CF93DF93EC01C29883E093D06B
S113016081E691D080E08FD0182F869586958A837A
S113017080E089D012951073982F96959695969550
S11301809C70192B8370182B1B8380E07CD0888390
S113019080E079D0898380E076D08F708C8310E002
S11301A007C080E070D0FE01E10FF11D85831F5F61
S11301B08C811817B0F3C29A8CE261E040E05EDFF4
S11301C0DF91CF911F9108958299FECF83EB90E048
S11301D0C0DF83EB90E0089582990EC0C29880EA54
S11301E052D080E050D0C29A80FF06C083EB90E0EA
S11301F0B0DF23EB30E002C020E030E0C901089515
S11302001F93CF93DF93EC01C29882E03CD081E34B
S11302103AD08B8182958F709A81990F990F892B8F
S113022032D09B81892F8C70880F880F880F88604B
S11302309370892B28D0888126D0898124D08C8101
S113024022D010E006C0FE01E10FF11D85811BD014
S11302501F5F8C811817B8F3C29AC29882E013D03A
S113026080E311D088E00FD0C29ADF91CF911F9123
S11302700895C6DF089587B3886287BB80E58DB98A
S113028081E08EB908958FB9779BFECF8FB1089521
S1130290E199FECF1FBA1EBAE09A8DB380936E0027
S11302A008959ADFFC01009761F1918180916E00BD
S11302B0981739F583818033C9F48581882369F0DF
S11302C08230F9F415BC28E088E190E00FB6F89488
S11302D0A89581BD0FBE21BDFFCF909360008081A2
S11302E08093610080E690E0C4DF0895813049F492
S11302F08581882319F486810CD0089585B3807F85
S113030085BB089584B38F6084BB85B38F6085BB40
S1130310089525B3982F906F922395BB95B38F7052
S10D0320982B95BB0895F894FFCFC5
S111032A00003030010100000000000000005F
S9030000FC
