:100000000C9438000C944A000C944A000C944A005A
:100010000C944A000C944A000C944A000C944A0038
:100020000C944A000C944A000C944A000C944A0028
:100030000C944A000C944A000C944A000C944A0018
:100040000C944A000C944A000C944A000C944A0008
:100050000C944A000C944A000C944A000C944A00F8
:100060000C944A000C944A000C944A000C944A00E8
:1000700011241FBECFEFD0E1DEBFCDBF11E0A0E065
:10008000B1E001C01D92AB31B107E1F70E944C0015
:100090000C9451000C9400000E94007E80E090E0DF
:0600A0000895F894FFCF63
:10FC00008FEF90E111240FBE9EBF8DBFA89514BE4B
:10FC100088E1809360001092600012BC11BC11E07A
:10FC20001FBB80B5809300010E94667F8091000118
:10FC3000809301011092020180E38093030180937D
:10FC400004011093050183E0809306010E94267F42
:10FC5000209A14E101E0C4EFD1E00EC085B1802705
:10FC600085B988EE93E0FE013197F1F70197D9F756
:10FC70000E94867F882321F4115080F70C940000A5
:10FC8000BB24B39411E000E839E4C32E23E0D22E64
:10FC900095E0E92E81E1F82E80911101853109F07E
:10FCA00049C08093030180910E01809302018091ED
:10FCB00010018093040180911301803219F5809125
:10FCC0001401909115012FEF8130920781F02FEFF1
:10FCD0008230920799F280509F4F31F586E066E0BE
:10FCE00071E044EB5FEF0E94CF7E86E008C084E0C5
:10FCF00066E071E04AEB5FEF0E94CF7E84E0809384
:10FD0000050116C08834B1F4809114019091150159
:10FD100081509F4F49F4C0911801D091190110935F
:10FD20000501C092060138C0109305010093060139
:10FD30000E94267F0E94867F8823E1F3ADCF0E9438
:10FD4000867F8823E1F380911101863121F0F092C2
:10FD50005700E895A1CFA3E1B1E0FE018D919D91FF
:10FD60000C01B0925700E8951124329681E0AB3136
:10FD7000B807A1F72896CC2379F4FE01E050F140B2
:10FD8000D0925700E89507B600FCFDCFE0925700EF
:10FD9000E89507B600FCFDCF0E94267FD0CFDB019F
:10FDA000FA0195919D938A95E1F708958EBD0DB462
:10FDB00007FEFDCF8EB508951F93182F2C9883E072
:10FDC0000E94D67E812F0E94D67E80E00E94D67E41
:10FDD0002C9A1F9108950F931F93182F062F2C987C
:10FDE00082E00E94D67E812F0E94D67E802F0E94C4
:10FDF000D67E2C9A1F910F910895EF92FF920F9348
:10FE00001F93CF93DF93FC0116C07E010894E11C81
:10FE1000F11C2C9882E00E94D67E102F05C0FE01B6
:10FE200084910E94D67E115021961123C1F7F701CB
:10FE3000E00FF11D2C9AEF010491002331F7DF91BF
:10FE4000CF911F910F91FF90EF9008951F932C98E1
:10FE500082E00E94D67E81E30E94D67E80910401DA
:10FE600082958F7090910301990F990F892B0E94B1
:10FE7000D67E90910401892F8C70880F880F880F8F
:10FE800088609370892B0E94D67E809101010E9428
:10FE9000D67E809102010E94D67E809105010E944B
:10FEA000D67E10E008C0E12FF0E0EF5FFE4F8581C5
:10FEB0000E94D67E1F5F809105011817A0F32C9A2F
:10FEC0008EEB9FEF0E94FD7E1F9108952C9A80EB90
:10FED00084B980E58CBD81E08DBD2C9880EC0E94BA
:10FEE000D67E2C9A83EC9FEF0E94FD7E83E060918A
:10FEF00000010E94EB7E87E0609100010E94EB7E92
:10FF00008FED9FEF0E94FD7E299808951F931A9B05
:10FF100002C080E04DC02C9883E00E94D67E81E62E
:10FF20000E94D67E80E00E94D67E182F8695869508
:10FF30008093100180E00E94D67E12951073982F56
:10FF40009695969596959C70192B8370182B109307
:10FF5000110180E00E94D67E80930E0180E00E9415
:10FF6000D67E80930F0180E00E94D67E8F708093B2
:10FF7000120110E009C080E00E94D67EE12FF0E07F
:10FF8000E25FFE4F85831F5F80911201181798F37F
:10FF90002C9A2C9885E00E94D67E8CE20E94D67E18
:10FFA00081E00E94D67E80E00E94D67E2C9A81E07D
:10FFB0001F9108952108000140002182FFFF0230B7
:10FFC000080000020C0C042805F14402600009003E
:10FFD00001290035012A00350520036300FF0002D6
:06FFE0000F00022B0100DE
:00000001FF
