:100000000C9438000C944A000C944A000C944A005A
:100010000C944A000C944A000C944A000C944A0038
:100020000C944A000C944A000C944A000C944A0028
:100030000C944A000C944A000C944A000C944A0018
:100040000C944A000C944A000C944A000C944A0008
:100050000C944A000C944A000C944A000C944A00F8
:100060000C944A000C944A000C944A000C944A00E8
:1000700011241FBECFEFD0E1DEBFCDBF11E0A0E065
:10008000B1E001C01D92AA31B107E1F70E944C0016
:100090000C9451000C9400000E94007E80E090E0DF
:0600A0000895F894FFCF63
:10FC0000F8948FEF90E18EBF9DBF12BC11BC11E044
:10FC10001FBB80B5809300000E945D7F80B58093FC
:10FC200000011092010180E380930201809303019F
:10FC30001093040183E0809305010E941D7F209AA8
:10FC400014E101E0C4EFD1E00EC085B1802785B991
:10FC500088EE93E0FE013197F1F70197D9F70E9402
:10FC60007D7F882321F4115080F70C940000BB2481
:10FC7000B39411E000E839E4C32E23E0D22E95E0DE
:10FC8000E92E81E1F82E80911001853109F049C0FB
:10FC90008093020180910D018093010180910F01F9
:10FCA0008093030180911201803219F58091130134
:10FCB000909114012FEF8130920781F02FEF823065
:10FCC000920799F280509F4F31F586E065E071E030
:10FCD00042EA5FEF0E94C67E86E008C084E065E0ED
:10FCE00071E048EA5FEF0E94C67E84E080930401E1
:10FCF00016C08834B1F480911301909114018150A1
:10FD00009F4F49F4C0911701D0911801109304013D
:10FD1000C092050138C010930401009305010E94B0
:10FD20001D7F0E947D7F8823E1F3ADCF0E947D7F00
:10FD30008823E1F380911001863121F0F092570081
:10FD4000E895A1CFA2E1B1E0FE018D919D910C015A
:10FD5000B0925700E8951124329681E0AA31B80795
:10FD6000A1F72896CC2379F4FE01E050F140D0921F
:10FD70005700E89507B600FCFDCFE0925700E895E4
:10FD800007B600FCFDCF0E941D7FD0CFDB01FA013A
:10FD900095919D938A95E1F708958EBD0DB407FE68
:10FDA000FDCF8EB508951F93182F2C9883E00E94E5
:10FDB000CD7E812F0E94CD7E80E00E94CD7E2C9A48
:10FDC0001F9108950F931F93182F062F2C9882E0F0
:10FDD0000E94CD7E812F0E94CD7E802F0E94CD7EFD
:10FDE0002C9A1F910F910895EF92FF920F931F93FA
:10FDF000CF93DF93FC0116C07E010894E11CF11C37
:10FE00002C9882E00E94CD7E102F05C0FE018491C7
:10FE10000E94CD7E115021961123C1F7F701E00F0A
:10FE2000F11D2C9AEF010491002331F7DF91CF915E
:10FE30001F910F91FF90EF9008951F932C9882E0EF
:10FE40000E94CD7E81E30E94CD7E80910301829548
:10FE50008F7090910201990F990F892B0E94CD7E8E
:10FE600090910301892F8C70880F880F880F88600C
:10FE70009370892B0E94CD7E809100010E94CD7EDF
:10FE8000809101010E94CD7E809104010E94CD7E6F
:10FE900010E008C0E12FF0E0E050FF4F85810E94A4
:10FEA000CD7E1F5F809104011817A0F32C9A8CEA75
:10FEB0009FEF0E94F47E1F9108952C9A80EB84B9E5
:10FEC00080E58CBD81E08DBD2C9880EC0E94CD7EBC
:10FED0002C9A81EB9FEF0E94F47E83E060910000FA
:10FEE0000E94E27E87E0609100000E94E27E8DEC3D
:10FEF0009FEF0E94F47E299808951F931A9B02C0D9
:10FF000080E04DC02C9883E00E94CD7E81E60E9467
:10FF1000CD7E80E00E94CD7E182F869586958093B9
:10FF20000F0180E00E94CD7E12951073982F969558
:10FF3000969596959C70192B8370182B1093100131
:10FF400080E00E94CD7E80930D0180E00E94CD7EF6
:10FF500080930E0180E00E94CD7E8F70809311010E
:10FF600010E009C080E00E94CD7EE12FF0E0E35F69
:10FF7000FE4F85831F5F80911101181798F32C9A0B
:10FF80002C9885E00E94CD7E8CE20E94CD7E81E09F
:10FF90000E94CD7E80E00E94CD7E2C9A81E01F9150
:10FFA000089521080000400021820000023008006E
:10FFB00000020C0C042805F144026000090001292C
:10FFC0000035012A00350520036300FF00020F0001
:04FFD000022B0100FF
:00000001FF
