:1018000012C039C22BC02AC029C028C027C026C098
:1018100025C024C023C022C021C020C01FC01EC0BC
:101820001DC01CC01BC011241FBECFE5D4E0DEBF0D
:10183000CDBF10E0A0E6B0E0E4E9FFE102C0059012
:101840000D92A236B107D9F710E0A2E6B0E001C0D0
:101850001D92AA3DB107E1F79BD09BC3D1CFE09188
:10186000B000F091B10010828091B20099270196EA
:1018700081709070282F8093B20082E2289F90019F
:10188000112427593F4F3093B1002093B0000895A1
:10189000CF93DF93EA013FB7F894E199FECF26E0BA
:1018A000660F771F881F991F2A95D1F783E0FB01E8
:1018B00080935700E89507B600FCFDCFDB0140E0C0
:1018C00050E021E0FE01E40FF51F808191810C01C1
:1018D000FD0120935700E89511244E5F5F4F12964B
:1018E0004034510571F785E0FB0180935700E8957E
:1018F00007B600FCFDCF81E180935700E8953FBF1C
:10190000DF91CF91089520E0FC01918180916500E5
:10191000981321E081E02827822F9927089582B328
:10192000806682BBF894E0916200F09163000995B3
:101930000895CF93DF93CDB7DEB726970FB6F8940F
:10194000DEBF0FBECDBF909165009A838983662369
:1019500011F492E00EC0DA0192E09E012F5F3F4F3A
:101960006E5FF901E90FF11D8D9180839F5F9617DE
:10197000C1F7AE014F5F5F4F60EE892FA5D226966B
:101980000FB6F894DEBF0FBECDBFDF91CF910895A3
:10199000CCE0D4E0DEBFCDBF1B821C821D821E8244
:1019A00081B3806681BB12BA80E490E098878F8310
:1019B0008EE18987E199FECF1FBA1EBAE09A8DB3F6
:1019C0008093650081E08BBF82E08BBF1A8699D23D
:1019D0007894CC24DD24760164961FAE6497A7E04A
:1019E0002A2E312C2C0E3D1EFBE04F2E512C4C0E7E
:1019F0005D1E8E010D5E1F4F4E010894811C911CCF
:101A0000E5E66E2EE0E07E2E73E0A72EB12CAC0E44
:101A1000BD1ED701C601A170B0700097A105B10528
:101A200049F464968FAD6497882321F4A10164E0A2
:101A300085E07FDFEFD1E091B000F091B1008081CF
:101A4000823009F0D0C08281803E41F4958120E04F
:101A500080916500981321E0222311F000DFC3C0BC
:101A600084818131E1F0823120F4843009F0B3C007
:101A700007C0823109F462C0833109F0ACC0A4C050
:101A8000EEDE969AA80160E084E053DF959ACC24BC
:101A9000DD247601A1E06496AFAF6497A4C01A82FA
:101AA0001982C201AF014A5F5F4F28E0DA010D9051
:101AB000AD01DC010D92CD012150C1F72F85388990
:101AC00089899A89AC01421B530B8134910518F026
:101AD000A80160E083C03E96BF01C801820F931F3A
:101AE0004FD29F8549895A891FC0E00FF11F80811D
:101AF00029813A812827822F82958227082E869570
:101B000086958025082E869580258770022E232FA6
:101B1000869507948795302D28270694879530253C
:101B200028273A8329839F5FE92FFF27E417F507CA
:101B3000E0F295DEA40162E083E051C02681332704
:101B4000442755272B833C834D835E8387819927C8
:101B5000AA27BB27BA2FA92F982F8827820F931F58
:101B6000A41FB51F8B839C83AD83BE832085332741
:101B700044275527A90133272227280F391F4A1F39
:101B80005B1F2B833C834D835E8381859927AA2726
:101B9000BB27B82FAA2799278827280F391F4A1F44
:101BA0005B1F2B833C834D835E8359DE82B390E4BD
:101BB000892782BB6B817C818D819E81A80168DE33
:101BC000A50164E086E00BC04ADEA80160E083E185
:101BD000B0DEA5DE05C043DEA30161E082E0A9DE40
:101BE000CC24DD2476010894C11CD11CE11CF11C1D
:101BF000BFEFCB16BFEFDB06B4E0EB06B0E0FB06B1
:101C000008F407CF8CDE80E090E0C3C19C01C2984D
:101C1000832F99278FB9779BFECF2FB9779BFECF64
:101C2000C29A08959C01C298892F99278FB9779BF2
:101C3000FECF8FB12FB9779BFECF2FB19927982F69
:101C40008827C29A3327822B932B0895C2988FB985
:101C5000779BFECF6FB9779BFECFC29A0895C2984B
:101C600080EB8FB9779BFECF1FB8779BFECFC29AD0
:101C70008FB19927089578941F920F920FB60F9203
:101C800011241F932F933F934F935F936F937F93F1
:101C90008F939F93AF93BF93EF93FF938BB78F7BFC
:101CA0008BBFC2981FB8779BFECFC29A7F9B9DC007
:101CB0008091B3008130D9F49091B6008091B50045
:101CC000981750F4E92FFF27EC54FF4F63819F5F73
:101CD0009093B60088EB88C01092B4001092B300C5
:101CE00081E892E893DF6AEA88EBB0DF78C0809100
:101CF00066008823D1F411E010936800B0DF982FBC
:101D0000809364009D5F909367009350E091AD00D5
:101D1000F091AE008081882321F4109366009183B6
:101D200064C082E08093660060C08091660081306C
:101D300009F047C09091680080916700981728F5D6
:101D40008EDF909164009827909364002091680042
:101D5000213238F4E091AD00F091AE00E20FF11DB8
:101D6000818380916800823051F49F3F41F010924E
:101D7000660061E88AEC6ADF63E88AEC67DF8091DD
:101D800068008F5F8093680030C010926600E09119
:101D9000AD00F091AE0082E080838091AF00992782
:101DA000019681709070282F8093AF0082E2289F67
:101DB0009001112427593F4F3093AE002093AD007E
:101DC0000EC080916600823081F49091680080910D
:101DD0006700981710F443DF08C01092660061E8AE
:101DE0008AEC34DF63E88AEC31DF8BB780648BBF29
:101DF000FF91EF91BF91AF919F918F917F916F91E3
:101E00005F914F913F912F911F910F900FBE0F90B7
:101E10001F9018951F938091B300813089F18BB783
:101E20008F7B8BBF80E090E0FDDE2BB720642BBF63
:101E300090FF04C088EC8093600022C08091600015
:101E40008150809360008823D9F481E08093600002
:101E50001091B4001130A1F48BB78F7B8BBF81E060
:101E600092E8D4DE1093B3008AEA98EBCFDE8AEAD8
:101E700098EBCCDE81E292E8C9DE8BB780648BBF41
:101E80001F910895982F8091B400882319F083E062
:101E900090E008956A5F6093B50066506093B90062
:101EA0009093BA00692760956093BB001092B600CA
:101EB00081E08093B40080E890E0089587B38C625D
:101EC00087BB81E58DB908950F931F93182F062FB7
:101ED000BA018F3118F082E090E010C08091B40018
:101EE000882319F083E090E009C0412F55278CEB3F
:101EF00090E046D0612F802FC5DF99271F910F9169
:101F00000895C29ABA9A87B38C6287BB81E58DB96E
:101F10008DE28093B70084ED8093B80089E690E06D
:101F20009093B1008093B0009093AE008093AD0089
:101F300087ED90E86BDE8BEA92EC68DE81E89AEC44
:101F400065DE87EF94EC62DE80EB94EA5FDE83E28D
:101F500096EC5CDE8CE294E959DE80E798E956DE87
:101F600081E892E853DE81E89AEC50DE83E89AEC4F
:101F70004DDE85B7826085BF8BB780648BBF0895C7
:101F8000FB01DC0102C001900D9241505040D8F796
:041F90000895FFCFE2
:021F940010003B
:0400000300001800E1
:00000001FF
