:100000000C942A000C9445000C9445000C94450077
:100010000C9445000C9445000C9445000C9445004C
:100020000C9445000C9445000C9447000C9445003A
:100030000C9445000C9445000C9445000C9445002C
:100040000C9445000C9445000C9445000C9445001C
:100050000C94450011241FBECFE5D8E0DEBFCDBF14
:1000600010E0A0E6B0E0E8E0F5E002C005900D92F7
:10007000AC3FB107D9F711E0ACEFB0E001C01D9281
:10008000A231B107E1F70C9460010C9400001F92BB
:100090000F920FB60F9211242F933F934F938F938C
:1000A0009F93EF93FF9380910A01882309F4CDC0B9
:1000B0003091FF00932F832F8370833009F4C7C0E2
:1000C0002091FC0021502093FC00222309F0BDC0A8
:1000D00041E0809110018093FC00392F340F309360
:1000E000FF00303309F4ADC0932F937051F4809129
:1000F0000201882331F090930201AF98392F909339
:10010000FF0085B38C7F932F9370292F269592271C
:10011000892B85BB80910B018F3F71F0831B87FD7D
:100120008DC0982F80910501813009F478C0992302
:1001300019F481E08093050180910C01882309F472
:100140008DC030910001232F832F992783709070E9
:10015000039709F45DC09091FD00892F8150809331
:10016000FD00882309F07AC0442319F09093FD0024
:1001700075C0809109018093FD00322F3F5F30935D
:100180000001303309F440C0932F937051F48091F3
:100190000301882331F090930301392F90930001DC
:1001A000AF9825B3277E832F8370982F9695892744
:1001B0009927880F991F880F991F880F991F282B3F
:1001C00025BB80910F018F3F09F448C0831B87FD39
:1001D00018C0E82F80910601813031F0EE23F1F54F
:1001E00081E0809306013AC0FF27E7FDF095E05AD1
:1001F000FF4F808180930901882381F580930C0152
:10020000F0CFE82FE05DE6CF342F40930001BCCF64
:10021000819BA1CF81E080930301AF9A9CCFE92F0E
:10022000FF27E7FDF095E05AFF4F80818093100192
:10023000882309F081CF80930A017CCF982F905DAD
:1002400071CF322F2093FF004FCF40E075CF809BBE
:1002500037CF81E080930201AF9A32CFFF91EF91C7
:100260009F918F914F913F912F910F900FBE0F90C3
:100270001F9018958AE083BF12BE8FEF8CBF82E07B
:1002800089BF089519BE089517BA8FE088BB8FEF14
:1002900084BB15BA11BA82BB08959C018CE085BD60
:1002A0008DE783BD1216130654F480E808B607FEE6
:1002B000FDCF88BF2150304012161306BCF30895BD
:1002C000CFE2D8E0DEBFCDBF80E35E010894A11C81
:1002D000B11CD501EBECF0E001900D928A95E1F7AD
:1002E0000E9444010E947B020E943A017894BFEF71
:1002F000DB2EA1E0CA2EEE24AA9AD0920B01C09266
:100300000A01F0E4FF2E00E210E0F0921001C801B3
:1003100095958795959587950E944D01FA940F5F65
:100320001F4F8DE08F1588F384E690E00E944D0109
:10033000AD9AD0920F01C0920C0170E4F72E00E24A
:1003400010E0F0920901C8019595879595958795DC
:100350000E944D01FA940F5F1F4FEDE0EF1588F3F7
:1003600080E00E945A028E2D85958595082F1127D1
:1003700007FD1095000F111F000F111F0A0D1B1D07
:10038000F801808191810E94450281E00E945A0219
:10039000F801828193810E9445028CED95E00E94D4
:1003A0004D01E0920B0184EF91E00E944D01AA986B
:1003B00080E293E00E944D01E0920F0184EF91E012
:1003C0000E944D01AD9888EE93E00E944D01F4E04B
:1003D000EF0E8FE28E150CF08FCF8DCF582F242F7C
:1003E000842F869586958BBBDD9ADD98237083E0FC
:1003F00090E0861B9109880F991F880F991F282B61
:100400002BBBDE9ADE9881E090E002C0880F991F36
:100410005A95E2F72FE082278BBBDF9A9FE78BB3D9
:1004200089238BBB2BBBDF9A8BB389238BBB0895AE
:100430001F93CF9310E0C0E040E26C2F812F0E9409
:10044000EE01CF5FC430C0F31F5F1430A0F3CF9133
:100450001F910895282F80910801982F9F709093E5
:100460000801837096959695422F682F892F0E94D8
:10047000EE01809108018F5F80930801803109F0BF
:10048000089510920801FCCF0895CF93DF93EC01FB
:100490008991882329F00E942A0289918823D9F71B
:1004A000DF91CF910895880F880F880F860F809372
:1004B000080108950F931F93CF93082F1127C801A8
:1004C000880F991F880F991F880F991F8093080123
:1004D000C0E080E20E942A02CF5FC830D0F3000F54
:1004E000111F000F111F000F111F00930801CF9162
:1004F0001F910F9108958FEF8ABB8FE08BBBDF9A1E
:08050000DF980E941802089523
:10050800003C2F2925221F1C1A1817151413121125
:10051800100F0F0E0E0E0E0E0E0E0E0E0E0E0E0EEF
:100528000E0E0E0E0E0E0E0E0E0E0E0E0E0E0E0EE3
:100538000E0E0E0E0E0E0E0E0E0E0E0E0E0E0E0ED3
:100548000E0E0E0E0E0E3100312C323000302C38CB
:100558003000302C363000302C343000302C333022
:1005680000312C363000322C343000A600A600A80A
:1005780000AD00B200B700A600BC00B700B200A8EA
:1005880000AD00B200B700B700B200C100BC00B2B5
:0C05980000B700B700B200C600BC0000B5
:00000001FF
