S00D0000696D6167652E7372656314
S11300000C94A8030C94C3030C94C3030C94C3036F
S11300100C94C3030C94C3030C94C3030C94C30344
S11300200C94C3030C94C3030C9403040C94C303F3
S11300300C94C3030C94C3030C94C3030C94C30324
S11300400C94C3030C94C3030C94C3030C94C30314
S11300500C94C3030101020303020101030302011F
S1130060010203030303020203030202000000006F
S1130070000000000000000000000000000000007C
S1130080000000000000FC021C0000001C009003A3
S1130090F0009C03F0009C0018012402FC072402D9
S11300A0C801180024002402980160009801440249
S11300B040028001800158022402640298018002F7
S11300C01C00F0030804040804080804F0032800D2
S11300D01C00280040004000F001400040000000E7
S11300E0000E800080008000000000020003F00089
S11300F00C00F801040204020402F80110000800D4
S1130100FC030802040384024402380208010402C6
S113011024022402D801C000B0008800FC0380003F
S113012030012C0224022402C401F8012402240216
S11301302402C8010400840364001C000400D801E4
S1130140240224022402D801380144024402440255
S1130150F8011002100E4000A000A000A000100141
S1130160A000A000A000A000A0001001A000A0001A
S1130170A000400008000400C40224001800E003AA
S11301801804C809240A140A1409E40B340A0805DB
S1130190F0040003C000B8008400B800C0000003ED
S11301A0FC032402240224022402F801F0000801C2
S11301B00402040204020801FC030402040204020F
S11301C00801F000FC032402240224022402FC039C
S11301D02400240024000400F000080104020402A6
S11301E044024801C000FC0320002000200020003D
S11301F0FC03FC03800100020002FC01FC0340003C
S11302002000700088010402FC03000200020002C6
S11302100002FC031800E0000003E0001800FC03E7
S1130220FC0308003000C0000001FC03F0000801DA
S11302300402040204020801F000FC034400440028
S113024044003800F000080104028402840208011A
S1130250F002FC03240024006400A4011802180125
S11302602402240244024402880104000400FC0322
S113027004000400FC010002000200020002FC0170
S11302800C003000C0000003C00030000C000C0063
S1130290F0000003C000380004003800C000000370
S11302A0F0000C0004029801600060009801040250
S11302B0040018002000C0032000180004000402F9
S11302C00403C40234020C020402FC0F04080C00F0
S11302D0F00000030408FC0F2000180004001800BC
S11302E020000008000800080008000800080400B6
S11302F00800A001500250025001E003FC03200159
S113030010021002E001E0011002100210022001AC
S1130310E001100210022001FC03E001500250022F
S1130320500260011000F8031400E009100A100ADA
S11303302009F007FC03200010001000E003F40380
S1130340F407FC034000A0011002FC03F0032000AA
S11303501000F00320001000E003F0031000100070
S11303601000E003E001100210021002E001F00F9F
S1130370200110021002E001E0011002100220012D
S1130380F00FF003200010002001500250029002F0
S113039020011000FC031000F00100020002000123
S11303A0F0033000C0000003C00030003000C00083
S11303B00003E0001000E0000003C0003000100261
S11303C02001C000200110021000E0090007C00055
S11303D03000100210039002700210024000B807AF
S11303E00408FC0F0408B8074000080010001000BF
S11303F0080008001000A401500250025001E40358
S1130400E401100210021002E401F40100020002EF
S11304100001F4030203C000B8008400B800C00067
S11304200203F20008010402040204020801F200BB
S1130430FA010002000200020002FA01FC07220293
S11304402202DC010000020004000A0014001E0065
S113045030003C003E0044004A0050005A005E0058
S1130460640068006E0078007E00880092009C00A2
S1130470A600B000BA00C400CE00D000D200DC0058
S1130480E600F000FA000E011C01280134014001CD
S11304904A01540162016E017001780184018E01E8
S11304A09C01A801B601C001CE01DA01E601F00108
S11304B0FC010A0220022C023A0246024A025002BD
S11304C054025E026A026E02780282028C02960272
S11304D0A002A602B002BA02BC02BE02C602C80250
S11304E0D602E002EA02F402FE0204030E0314033D
S11304F01E0328033A0344034E0358035E036003B8
S1130500660372037C03860390039E03AC03B80363
S1130510C003000300000303030000000303000002
S113052003030303030000030000000100000202B0
S113053000030000020001000000010000020000AE
S11305400300020200000100010000000200000399
S1130550000002020001000001000202000003008A
S1130560000200000100030303030003030003036C
S1130570000303030300030303000300000300005C
S1130580030000030303030000030003000300004F
S11305900303030303030000030003030000030336
S11305A00303030003030003030303000003000029
S11305B00303030303000003030300000303030313
S11305C00203020300000302030300030203020008
S11305D00002020202000000020000000002000209
S11305E000030000030002020000000000000202F9
S11305F000000303000002020003000003000200E5
S113060002000000000200000002020202000000DA
S113061000020202020000000200000000020002C8
S113062000030000030002020000000000000202B8
S113063000030000030002020000030300000200A4
S1130640020000000002000000020202020000009A
S11306500000000000000000000000000000000096
S11306600000000000000000000000000000000086
S11306700000000000000000000000000000000076
S1130680000000000000030300000000000000035D
S1130690000000000003030000000000000000034D
S11306A00000000000030203000000030000000338
S11306B00303000000030203000003000000000322
S11306C00202030303020202030302030000000008
S11306D003020202020202020202020203030000F7
S11306E000030302020202020202020202020300E7
S11306F000000003030303030303030302020300D4
S113070000000000000000000003000003020300DA
S113071000000000000000000302030302020300C3
S113072000000000000000000302020202020300B5
S113073000000000000000000003020202030000A9
S1130740000000000000000000000303030000009C
S113075011241FBECFE5D8E0DEBFCDBF12E0A0E676
S1130760B0E0EEEEF8E302C005900D92A031B107BF
S1130770D9F712E0A0E1B2E001C01D92A33AB1079B
S1130780E1F70C9490040C940000382F1BBA15BAAE
S113079023E10000215027FFFCCF24E13323D1F4CF
S11307A0949A9698959A9598969A862F9927813037
S11307B0910559F0823091051CF4892B21F00CC06D
S11307C0029731F009C085E001C088E08CBF04C005
S11307D02CBF02C0959A959823E10000215027FF71
S11307E0FCCFE62FFF2784E0EE0FFF1F8A95E1F789
S11307F0E30FF11DEE0FFF1FE95EFD4F80818BBB00
S1130800818185BB08951F920F920FB60F92112418
S11308102F933F934F938F939F93EF93FF93A895B9
S113082030911102409110021BBA15BA23E1000065
S1130830215027FFFCCF24E13323D1F4949A9698D6
S1130840959A9598969A842F99278130910559F015
S1130850823091051CF4892B21F00CC0029731F0F1
S113086009C085E001C088E08CBF04C02CBF02C071
S1130870959A959823E10000215027FFFCCFE42F9F
S1130880FF2794E0EE0FFF1F9A95E1F7E30FF11DA8
S1130890EE0FFF1FE95EFD4F80818BBB818185BB1D
S11308A0832F8F5F80931102803151F410921102D3
S11308B0842F8F5F80931002833011F41092100202
S11308C0FF91EF919F918F914F913F912F910F90B5
S11308D00FBE0F901F901895F8941BBA15BA12BA50
S11308E013BE789408958BE083BF12BE84E18CBF5D
S11308F082E089BF08958FEF8ABB84BB80EF81BB00
S11309001BBA15BA12BA0E947304A89588E190E044
S113091028E00FB6F894A89581BD0FBE21BD0895B7
S1130920CEE5D8E0DEBFCDBF21E0298380E00E9480
S1130930DA050E947B040E948A1578948AE792E083
S11309400E94CF1B80937802809179028093770272
S113095081E080939E02B19908C0B29B06C0B39B0C
S113096004C080E197E20E940018B19B18C0B299BC
S113097016C0B39B14C080E690E00E9443148AEF33
S113098090E00E94BB0586E890E00E94431486E94B
S113099090E00E94BB058DE890E00E944314B19B57
S11309A007C0B29B05C0B39903C083E0809378026B
S11309B0B19918C0B29916C0B39914C084E990E0F3
S11309C00E94431488EA90E00E94431488EB90E06C
S11309D00E9443148EEB90E00E94431484EF91E054
S11309E00E94BB05B19B18C0B29916C0B39914C03C
S11309F084E990E00E9443148EEB90E00E9443143B
S1130A0088EB90E00E94431486ED90E00E9443142A
S1130A1084EF91E00E94BB05809178028093790273
S1130A208091780299278730910509F463C0883052
S1130A309105ACF484309105D1F1853091053CF4F5
S1130A408230910519F1039709F458C089C08530A3
S1130A50910509F43FC0069709F441C081C08C3068
S1130A60910509F459C08D30910544F489309105FC
S1130A7009F444C00B9709F448C072C08D30910545
S1130A8009F468C08B9709F467C06AC087EF90E0E7
S1130A900E94431488EB90E00E94431482E191E0A9
S1130AA00E9443148AEF90E00E94BB0559C087EF6F
S1130AB090E00E94431488EB90E00E94431482E18A
S1130AC091E00E9443148AE291E00E94431485E479
S1130AD091E018C084E690E00E94001841C080E6CE
S1130AE091E00E9443148CE791E00E94431484E94E
S1130AF091E008C08AE00E947F0A32C00E94301749
S1130B008BEA91E00E9443142BC085E090E00E94A0
S1130B1074070E94570A24C0E9818E2F99278230D6
S1130B20910561F0833091051CF4019721F00EC00A
S1130B30039739F00BC00E94690C08C00E94EE0AAA
S1130B4005C088EE93E00E9400181982F981FF5FC6
S1130B50F98306C081E002C0809177028093780215
S1130B60B09BFECF81E080939E02809178028F5FDC
S1130B7080937802F0CE9C018DE085BD8DE783BD26
S1130B8012161306B4F480919E02882351F0B09992
S1130B9008C010929E026BE270E08AE792E00E9425
S1130BA0F01B08B607FEFDCF80E888BF2150304017
S1130BB0E7CF08954FEF90E0292F332755E0220F18
S1130BC0331F5A95E1F7295E3D4F981709F440E029
S1130BD0F901215E3F4F41932E173F07E0F79F5FD6
S1130BE0933050F30895E82F282F2F70643008F0C5
S1130BF063E09F70990F269526952695920FE770CE
S1130C00FF27EE53FE4FE08120E0261768F4A92F5A
S1130C10BB27A95EBD4F262F8C918E2B8C93215020
S1130C2090962223C9F7262FE0952330A0F4892F2C
S1130C309927A22FBB2765E0AA0FBB1F6A95E1F78E
S1130C40895E9D4FA80FB91F8C918E238C932F5FC3
S1130C5090962330C8F308951F93CF93DF9330E029
S1130C60832F99271FE0C5E0880F991FCA95E1F7E4
S1130C70EC01C95EDD4FAC01BC01DB01A85EBD4FD8
S1130C80FA01E95EFD4F2081269520838C919927F6
S1130C90817090709695982F882797958795282B23
S1130CA0208389818695898311506E5F7F4F4E5FC3
S1130CB05F4F229617FFE1CF3F5F333088F2DF9119
S1130CC0CF911F910895AC01803110F4503118F088
S1130CD08FEF90E0089560E070E0982F282F26951C
S1130CE026952695E52FFF27EE0FFF1FE20FF11D36
S1130CF0E95EFD4F9770A92FBB27AE53BE4F80818D
S1130D009C91892311F061E070E0CB0108959C016E
S1130D106130710561F06130710538F06230710540
S1130D2061F06330710531F00BC0815001C08F5FF9
S1130D30932F05C0932F9F5F02C0932F9150AC0156
S1130D40CA010E946306992708958130910579F0BC
S1130D508130910530F08230910561F0039721F0E4
S1130D600CC083E090E0089581E090E0089582E073
S1130D7090E0089580E090E0089580E090E0089588
S1130D80FC01CB01608371832481358121153105F8
S1130D9021F02130310519F0089560E001C063E0CD
S1130DA00E94F30508959C016130710561F0613082
S1130DB0710538F06230710561F06330710531F00E
S1130DC00BC0815001C08F5F932F0895932F9F5FB5
S1130DD00895932F9150089580E090E00895EF9244
S1130DE0FF921F93CF93DF93EC017A01662381F086
S1130DF0162F6A817B81888199810E94D306BC0168
S1130E00CE010E94C006C7010E94BB05115089F79C
S1130E10DF91CF911F91FF90EF9008951F93CF938F
S1130E2010E0C0E08C2F912F63E00E94F30584E66C
S1130E3090E00E94BB05CF5FC031A0F31F5F10316B
S1130E4080F3CF911F9108951F93CF9310E0C0E0DA
S1130E508C2F912F61E00E94F30585E090E00E94C1
S1130E60BB05CF5FC031A0F31F5F103180F384E670
S1130E7090E00E94BB05FBCF1F93CF9310E0C0E02E
S1130E808C2F912F62E00E94F30585E090E00E9490
S1130E90BB05CF5FC031A0F31F5F103180F384E640
S1130EA090E00E94BB05FBCF1F93CF9310E0C0E0FE
S1130EB08C2F912F63E00E94F30585E090E00E945F
S1130EC0BB05CF5FC031A0F31F5F103180F384E610
S1130ED090E00E94BB05FBCF80E00E94DA0584E627
S1130EE090E00E94BB05FBCFEF92FF921F93CF933C
S1130EF0DF93CDB7DEB726970FB6F894DEBF0FBEEB
S1130F00CDBF7C0180E00E94DA051B821C8281E057
S1130F1090E08D839E838FE090E0BC01CE0101962A
S1130F200E94C00611E007C0182FA70161E0CE019E
S1130F3001960E94EF066B817C8189819A810E94CF
S1130F408706882389F38B819C810E94A5068B8365
S1130F509C83112339F31D821E8287E0982FBC01E4
S1130F60CE0101960E94C00610E08B819C810E94F4
S1130F70A506BC0189819A810E948706882331F0E5
S1130F808B819C810E94A5068B839C836B817C81D1
S1130F9089819A810E948706682F813031F4A701E4
S1130FA0CE0101960E94EF0601C011E01123E9F27F
S1130FB026960FB6F894DEBF0FBECDBFDF91CF915A
S1130FC01F91FF90EF900895E1E0F0E04091CA0195
S1130FD05091CB0167E09A01220F331FCA01969505
S1130FE087958170907028273927852F99278170DC
S1130FF0907028273927CA01892F992786958170EF
S1131000907028273927CA01892F992782958695B8
S11310108770817090702827392757FF02C02E27C8
S11310203F27A901615067FFD6CF3093CB012093AE
S1131030CA018091CA01992708952F923F924F9235
S11310405F926F927F928F929F92AF92BF92CF9254
S1131050DF92EF92FF920F931F93CF93DF93CDB75D
S1131060DEB7CA59D0400FB6F894DEBF0FBECDBF6D
S113107088E0982F89839A8397E08B839C839E01D1
S11310802D5F3F4FCB56DF4F28833983C559D0405E
S1131090CE010196C956DF4F88839983C759D04042
S11310A0332432E0632E712C832D0E94DA05C75657
S11310B0DF4F3882C959D040C756DF4F9881C9598C
S11310C0D0409F5FC756DF4F9883C959D040CB5655
S11310D0DF4FE881F981C559D04081909190CB567A
S11310E0DF4FE883F983C559D04021E8422E512CC3
S11310F04C0E5D1EE415F50549F49E012F5F3F4F2C
S1131100CB56DF4F28833983C559D040C656DF4FAD
S11311101882CA59D040C656DF4F2880CA59D040D9
S1131120B22CB31408F049C0AA24CA2CDD24B60199
S1131130C4010E94D306EB2CFF2487010E0D1F1D52
S1131140040D151DF8019081981741F5B601C401ED
S11311500E94D306F8018181891701F5F1E0C65692
S1131160DF4FF883CA59D0403601232D332721504D
S11311703040E216F30684F4EB2DFF27EE0FFF1F39
S1131180E40DF51D8281938180839183B3948B2D2B
S113119099278217930784F33A9415C0A39423E004
S11311A02A1518F6B394BDCF239435E0231609F419
S11311B0EFC0C3010E94A5063C01B301C4010E9413
S11311C08706882389F7B301C4010E94D306CB564E
S11311D0DF4FE881F981C559D0408083918363E072
S11311E00E94F3050E94E407803508F082C070E095
S11311F09FEFE92EF72E332031F40E94E407837029
S1131200682E772479C0672F731508F042C08E01C9
S11312100F571F4FCB56DF4FE881F981C559D04096
S11312205081A62FBB27FD01EA0FFB1FE00FF11F22
S1131230E081E51718F4452F4E1B02C04E2F451BC5
S1131240AA0FBB1FA00FB11FCB56DF4FE881F98156
S1131250C559D0408181FD019181981718F4E82F78
S1131260E91B02C0E92FE81B842F8E0F912D911DDD
S11312709C018E2D99272817390744F4E42EEE0E8D
S1131280762FFF24E41710F481E0F82E6F5F6315C6
S113129040F2CE018F579F4FE72FFF27FF20A1F089
S11312A066247724EE0FFF1FE80FF91F9081CB56B9
S11312B0DF4FE881F981C559D04080818917C8F48E
S11312C001E0602E712C15C0EE0FFF1FE80FF91F0F
S11312D09181CB56DF4FE881F981C559D040818196
S11312E0891720F413E0612E712C03C0B2E06B2E39
S11312F0712CF8E0F315E8F00E94E4078A30C8F492
S11313000E94E407082F0F700E94E407182F1F7033
S1131310C8010E946306882361F4E32DFF27EE0FC2
S1131320FF1FCE018F579F4FE80FF91F00831183D2
S11313303394C656DF4F2881CA59D040222309F07E
S113134070C0622FC956DF4FE881F981C759D04078
S113135081919191C956DF4FE883F983C759D040F1
S11313600E94F305CE018F579F4FC956DF4F288146
S11313703981C759D0402817390709F052C0CE0126
S11313800196C956DF4F88839983C759D04049C015
S1131390C956DF4FE881F981C759D040CB56DF4F9A
S11313A028813981C559D040E217F30709F465C093
S11313B060E0C956DF4FE881F981C759D040819177
S11313C09191C956DF4FE883F983C759D0400E94F1
S11313D0F305CE018F579F4FC956DF4F28813981BE
S11313E0C759D0408217930740F4CE010196C956DD
S11313F0DF4F88839983C759D0408CE390E00E94E3
S1131400BB05C956DF4FE881F981C759D040CB5697
S1131410DF4F28813981C559D040E217F30741F6DF
S11314202CC0BB24B31420F5CE018F579F4FEB2D56
S1131430FF271B2D1F5FC756DF4F6881C959D04056
S11314406170C756DF4F3881C959D04030FF06C09C
S1131450EE0FFF1FE80FF91F63E004C0EE0FFF1F3C
S1131460E80FF91F808191810E94F305B12EDACF34
S113147084E690E00E94BB051FCEC656DF4F0FB630
S1131480F894DEBF0FBECDBFDF91CF911F910F91B6
S1131490FF90EF90DF90CF90BF90AF909F908F9090
S11314A07F906F905F904F903F902F9008951F937F
S11314B0CF93C1E083E00E94DA051FE49C2F4FE044
S11314C020E030E0F901E95AFD4F81E09193815029
S11314D087FFFCCF990F09F491E041502E5F3F4FF5
S11314E047FFF0CFCC0F09F4C1E084E690E00E94FE
S11314F0BB05115017FFE2CFCF911F9108950F93B1
S11315001F93CF93082F80E00E94DA0510E0101794
S113151008F044C0C0E045E550E08C2F99279C01B9
S113152021703070BA0102C0660F771F2A95E2F766
S11315309B01FC01E80FF91FE95AFD4F81E021935B
S1131540815087FFFCCFCF5FC03138F3C0E088EC17
S113155090E00E94BB054AEA50E08C2F99279C0139
S113156021703070BA0102C0759567952A95E2F72B
S11315709B01FC01E80FF91FE95AFD4F81E021931B
S1131580815087FFFCCFCF5FC03138F388EC90E007
S11315900E94BB051F5F101708F4BCCFCF911F91A9
S11315A00F9108950F931F93CF9301E010E0C0E0D3
S11315B08C2F912F602F0E94F3058AE090E00E9407
S11315C0BB05CF5FC031A0F31F5F103180F30F5F05
S11315D0043060F3CF911F910F9108953F924F9281
S11315E05F926F927F928F929F92AF92BF92CF92AF
S11315F0DF92EF92FF920F931F93CF93DF93CDB7B8
S1131600DEB7C05CD1400FB6F894DEBF0FBECDBFCD
S11316109924892CE3EF6E2EE1E07E2ECC2475EB29
S1131620472E512C4C0E5D1EEC2DFF2764E0EE0F6F
S1131630FF1F6A95E1F7EC0FFD1FEB54FF4F5FE0CE
S1131640E52E1192EA94E7FEFCCFC3948FE08C154B
S113165058F7CC24C91408F09EC045EBE42E41E0B1
S1131660F42EEC0EFD1E5E010894A11CB11C36E0A4
S1131670332E4C2D5527FA01EE0FFF1FEE0FFF1FDF
S1131680E40FF51FE40FF51FEA0DFB1DD701832DB1
S113169001900D928A95E1F77FEFDD24F7016281D5
S11316A06695669566956717A1F1DE01AB54BE4F4A
S11316B0FD018181082F1127262F3327C901800FAF
S11316C0911F4097D4F4872F8295869586958370D1
S11316D011F091E0D92E8C91E82FFF2784E0EE0FD2
S11316E0FF1F8A95E1F7E20FF31FE00FF11FE40DEE
S11316F0F51D8081871708F47083872F829586955E
S11317008770FD019381899F802D1124781B61507E
S113171098F6F701958196958281890F8283FA0163
S1131720EE0FFF1FEE0FFF1FE40FF51FE40FF51F71
S1131730EA0DFB1DD701832D0D9001928A95E1F7E7
S1131740DD2029F56C2D292D3327215030404217F7
S11317505307DCF446E0862F9927FC01EE0FFF1FA8
S1131760EE0FFF1FE80FF91FE80FF91FEA0DFB1D2D
S1131770DF011696842F0D9001928A95E1F76F5F31
S1131780862F99278217930734F39A94CA94C394A3
S1131790C91408F46ECFEE24CC240E2D11278C2D01
S11317A09E2DFE01EB54FF4FE00FF11F2081229587
S11317B0269526952370622F0E94F305C394005F3B
S11317C01F4FAFE0AC1558F7E394AE1528F7E5E0EA
S11317D0AE2EBDE1B91508F453C00E94E4077FE1C1
S11317E0B72EB822EFE0EB1508F4BB24892D992716
S11317F08C01000F111F000F111F080F191F080F74
S1131800191FCE010196080F191F55EBC52E51E083
S1131810D52ECC0EDD1E4BEBE42E41E0F42EEC0E67
S1131820FD1E0E94E4078F70D7018C93F701B182EB
S1131830FE01E354FE4F10820E94E4078770845F28
S1131840FE01E254FE4F8083882D8394FE01E1540F
S1131850FE4F80830E94E4078F708D5FFE01E05489
S1131860FE4F808346E050E0B701C6010E94C61BCC
S113187086E0D801F60101900D928A95E1F79394E0
S1131880AA94A7FEA6CF80E590E00E94BB05089429
S113189061087108FFEF6F16FFEF7F0609F0BECEF7
S11318A0C054DE4F0FB6F894DEBF0FBECDBFDF913C
S11318B0CF911F910F91FF90EF90DF90CF90BF9049
S11318C0AF909F908F907F906F905F904F903F90DC
S11318D008954F925F926F927F928F929F92AF92F0
S11318E0BF92CF92DF92EF92FF920F931F93CF9309
S11318F0DF93CDB7DEB7C053D1400FB6F894DEBF47
S11319000FBECDBF4424552441E0942E3E010894DB
S1131910611C711C45E03EE1832EA92CBB24C5014A
S11319208C0F9D1F8C010F5F1F4F24E1C22ED12C01
S1131930C80ED91EBDE0EB2ED8018C91849F900176
S11319401124F6018081889DC0011124280F391FBC
S11319508389849FC0011124820F931F6CE270E07D
S11319600E94641CF801628BEA9483E190E0C80E43
S1131970D91E080F191FE7FEDFCF8E010A0D1B1DAC
S1131980AEE1EA2EA1E0FA2EEC0EFD1EEA0CFB1CE1
S1131990D7018C91849F900111246501C60CD71C3A
S11319A0F6018081889DC0011124280F391FF80198
S11319B08489849FC0011124820F931F6CE270E01C
S11319C00E94641CD8016C938E01035E1E4F0A0DA5
S11319D01B1DF6018081849F90011124D7018C91F5
S11319E0889DC0011124280F391FFE01E55FFE4FB9
S11319F0EA0DFB1D8081849FC0011124820F931F77
S1131A006CE270E00E94641CF80160839394F2E13C
S1131A10F91508F082CF83010E5E1F4FFFE0EF2E11
S1131A200E94E407D8018C930D5E1F4FEA94E7FEF1
S1131A30F7CF9924EE248301090D111D8E2D992DC4
S1131A40F80120810D5E1F4F229526952770622F85
S1131A500E94F305E394FFE0FE1580F79394F915D3
S1131A6048F782E390E00E94BB050894411C511C96
S1131A7080E2481683E0580608F446CFC05DDE4F86
S1131A800FB6F894DEBF0FBECDBFDF91CF911F918B
S1131A900F91FF90EF90DF90CF90BF90AF909F9009
S1131AA08F907F906F905F904F9008952F923F9208
S1131AB0AF92BF92CF92DF92EF92FF920F931F9358
S1131AC0CF93DF93CDB7DEB76A970FB6F894DEBF36
S1131AD00FBECDBF1B8A1C8A1D8A1E8A1F8A188EC0
S1131AE0198E1A8E29823A822B833C834D835E831E
S1131AF06F83788789879A8788E0DE011396FE01D1
S1131B003B960D9001928A95E1F7073079F5D10162
S1131B101C92EC91FF27EE0FFF1F8E010F5F1F4FEA
S1131B20E00FF11F2285822F8F5F93850E94630649
S1131B30982F882309F040C0F10180818F5F808352
S1131B40E82F843038F3D1019C93892FE82FFF27A5
S1131B50EE0FFF1FE00FF11F82858F5F8287F10177
S1131B6080818F5F8083843088F326C00B3021F519
S1131B70D1011C929C919E012F5F3F4FFE013B9629
S1131B80808132968823C1F0892F8F5FD1018C9395
S1131B90982F8430A8F31C928C91E82FFF27EE0F26
S1131BA0FF1FE20FF31F828581508287F10180813C
S1131BB08F5F8083843088F3EA89FB85FB8B8C8577
S1131BC08C8BAD85AD8BBE85FF858889A989AB8853
S1131BD0BC88CD882A2D3B2D4C2D5B2F6F2F782F61
S1131BE08A2F9E2F6A960FB6F894DEBF0FBECDBF24
S1131BF0DF91CF911F910F91FF90EF90DF90CF90E5
S1131C00BF90AF903F902F9008952F923F92CF9224
S1131C10DF92EF92FF920F931F93CF93DF93CDB791
S1131C20DEB7AA970FB6F894DEBF0FBECDBF2982E8
S1131C303A822B833C834D835E836F8378878987C5
S1131C409A8788E0FBE0EF2EF12CEC0EFD1EFE01DE
S1131C503396D701282F01900D922A95E1F796B378
S1131C609F70AE014D5E5F4FDA01F701282F01909E
S1131C700D922A95E1F7E3E2CE2ED12CCC0EDD1E97
S1131C80D601FA0101900D928A95E1F7973079F522
S1131C90D1011C92EC91FF27EE0FFF1F8E010F5F05
S1131CA01F4FE00FF11F22A1822F8F5F93A10E948B
S1131CB06306982F882309F043C0F10180818F5F68
S1131CC08083E82F843038F3D1019C93892FE82F47
S1131CD0FF27EE0FFF1FE00FF11F82A18F5F82A38A
S1131CE0F10180818F5F8083843088F329C09B3029
S1131CF039F5D1011C929C919E012F5F3F4FE92F32
S1131D00FF27EE0FFF1FE20FF31F82A18823C1F00C
S1131D10892F8F5FF1018083982F843080F31082A4
S1131D208081E82FFF27EE0FFF1FE20FF31F82A130
S1131D30815082A3D1018C918F5F8C93843088F37E
S1131D4088E09E01255E3F4FF901D601982F0D9042
S1131D5001929A95E1F7D701F901982F01900D921C
S1131D609A95E1F7D601F70101900D928A95E1F772
S1131D7013E0EE24FF246E010894C11CD11CF7016A
S1131D80EC0DFD1D63E0828593850E94F3051150DF
S1131D9082E090E0E80EF91E17FFEDCF82EC91E0AF
S1131DA00E94BB0513E07BE0E72EF12CEC0EFD1E38
S1131DB060E0D7018D919D917D010E94F305115042
S1131DC017FFF6CF13E0F60183A18F5F83A31150B1
S1131DD0329617FFF9CF10E062E2E62EF12CEC0CFC
S1131DE0FD1CF701819191917F010E946306882374
S1131DF021F41F5F1430A8F302C0882359F42BA1E7
S1131E003CA14DA15EA16FA178A589A59AA50E94C8
S1131E10050E10C013E05AE0252E312C2C0C3D1C6D
S1131E2063E0D1018D919D911D010E94F305115034
S1131E3017FFF6CFAA960FB6F894DEBF0FBECDBF3C
S1131E40DF91CF911F910F91FF90EF90DF90CF9092
S1131E503F902F9008952F923F92CF93DF93CDB769
S1131E60DEB769970FB6F894DEBF0FBECDBF8FE023
S1131E7088BB80E00E94DA051982298188E0922FCC
S1131E8063E00E94F30589818F5F8983282F803165
S1131E90A8F388E0ACECB1E0FE013296982F0D90E7
S1131EA001929A95E1F7A4EDB1E0FE013A96982FDC
S1131EB00D9001929A95E1F7ACEDB1E0FE017296B6
S1131EC00D9001928A95E1F71E010894211C311CA2
S1131ED02A853B854C855D856E857F8588899989B2
S1131EE00E94050E1E010894211C311C2A813B818D
S1131EF04C815D816E817F81888599850E94050E64
S1131F001E010894211C311C2A893B894C895D8956
S1131F106E897F89888D998D0E94050E1E01089413
S1131F20211C311C2A853B854C855D856E857F850A
S1131F30888999890E94050E1E010894211C311C70
S1131F402A853B854C855D856E857F858889998941
S1131F500E94050E1E010894211C311C2A813B811C
S1131F604C815D816E817F81888599850E94050EF3
S1131F701E010894211C311C2A893B894C895D89E6
S1131F806E897F89888D998D0E94050E1E010894A3
S1131F90211C311C2A853B854C855D856E857F859A
S1131FA0888999890E94050E1E010894211C311C00
S1131FB02A813B814C815D816E817F8188859985F1
S1131FC00E94050E1E010894211C311C2A893B899C
S1131FD04C895D896E897F89888D998D0E94050E53
S1131FE01E010894211C311C2A813B814C815D8196
S1131FF06E817F81888599850E94050E1E01089453
S1132000211C311C2A893B894C895D896E897F8911
S1132010888D998D0E94050E69960FB6F894DEBFDF
S11320200FBECDBFDF91CF913F902F9008959C01BB
S11320306623D9F0832F8F70A82FBB27322F3695B4
S113204036953695AA0FBB1F80919C0290919D02F4
S1132050A80FB91FA30FB11D2770E22FFF27EE535E
S1132060FE4F8C919081892B8C93089550E0852F9D
S11320709927880F991F20E030E041E0E0919C020D
S1132080F0919D02E80FF91FE20FF31F10824150F7
S11320902F5F3F4F47FFF2CF5F5F503140F308950A
S11320A050E060919C0270919D0240E0252F3327FF
S11320B084E0220F331F8A95E1F7842F9927F901D1
S11320C0E80FF91FEE0FFF1FE95EFD4FDC01A80FBB
S11320D0B91FA60FB71F91E08D918193915097FF7F
S11320E0FBCF4F5F403148F35F5F5330F0F2089508
S11320F00F931F93CF93DF93EC0160E070E0AC810A
S1132100BD819D919923F9F00D8D1E8D8AA1482FD3
S11321105527440F551F9150892F9927880F991FD0
S1132120800F911FFC01329625913491FC01859119
S11321309491281B390B620F731F640F751F8D91C7
S1132140982F882341F789A1282F3327CB01B90180
S11321500E94501CCB01DF91CF911F910F910895E4
S1132160CF93DF93EC0120E030E0AE81BF818C910E
S113217080538A30D8F4C90143E0880F991F4A95E7
S1132180E1F7820F931F280F391FFD018D919927C5
S113219087FD9095280F391F20533040AE83BF83AD
S11321A0818180538A3038F3C90102C08FEF9FEFD9
S11321B0DF91CF9108951F93CF93DF93EC0110E04B
S11321C0EE81FF818081882309F405C1EE81FF81BE
S11321D08191992787FD9095EE83FF83843691053D
S11321E009F457C08536910544F58B33910509F4FC
S11321F0E6C08C3391059CF48D32910509F4A9C095
S11322008E32910524F48B9709F4E3C0D9CF8F3231
S1132210910509F4D1C0CA9709F4D4C0D1CF8E3343
S1132220910529F18F3391051CF4CC97E9F0C8CFBF
S11322308236910509F464C0C3CF88379105F1F162
S11322408937910544F48037910509F49CC085379A
S1132250910511F1B5CF8937910509F444C08C3744
S1132260910509F45CC0ACCF8A8D8E7F02C08A8D43
S113227081608A8FCE010E94B0109C018FEF2F3FA6
S1132280380711F02C8B02C084E18C8B8C898B8BEA
S113229097CF8A8D826002C08A8D8D7F8A8FCE010E
S11322A00E94B0109C018FEF2F3F380711F02E8B46
S11322B002C084E18E8B8E898D8B82CFCE010E94E9
S11322C0B0109C018FEF2F3F380719F02D873E8700
S11322D077CF8A859B8597FD019695958795089676
S11322E08D879E876DCFCE010E94B0109C018FEF29
S11322F02F3F380709F464CF8C85281B2F8760CFC4
S1132300CE010E94B0109C018FEF2F3F380711F0CF
S1132310288F02C082E3888F888D8F8B51CFCE01A6
S11323200E94B0109C018FEF2F3F380719F0288BC3
S1132330398B0CC02A853B85C9010E9697FF02C0D4
S1132340C9010F9695958795888B998B82E090E0CB
S11323503BC0CE010E94B0109C018FEF2F3F380785
S113236071F48C85992787FD909520E130E0281B36
S1132370390B37FF02C02F5F3F4F359527952A8BC6
S113238081E090E021C01C8A1E8ACE010E94B01018
S11323909C018FEF2F3F380741F056E0220F331F87
S11323A05A95E1F72B8F3C8F04C080E897E08B8F20
S11323B09C8F84E090E008C083E090E005C085E055
S11323C090E002C086E090E088879987812F992762
S11323D004C012E0F5CE81E090E0DF91CF911F912F
S11323E008950F931F93CF93DF938C01892B11F0E2
S11323F01092120283E290E00E94B51AEC018091DF
S113240012028823D9F443E152E064EE71E0C8017A
S11324100E94121C8E839F83892B09F494C0CE01E1
S11324200E94B0102FEF8F3F920741F08093120269
S11324308E819F81909316028093150280911202DF
S1132440882349F081508093120280911502909163
S113245016028E839F8343E152E064EE71E080E0D4
S113246090E00E94121C9C018C839D83892B09F4AB
S11324706AC080919402909195028D8F9E8F809175
S11324809602909197028F8F98A380919B0289A3C3
S1132490F90190919802209199028081882371F02A
S11324A031E0891730F0821720F4891B8F5F808315
S11324B001C0308331968081882399F781E08AA313
S11324C0809193028C87CE010E947810AC018A8798
S11324D09B87EE81FF81E081EC3319F41D861E8613
S11324E006C0EE33A1F4405F5F4F4D875E878C8555
S11324F0992787FD909520E130E0281B390B37FFA1
S113250002C02F5F3F4F359527952F8715C0E436BE
S113251019F48C85819503C0E53771F48C858F8718
S11325209A01225F3F4F37FF03C09A01215F3F4F5B
S1132530359527952D873E871C8A1E8A188E188606
S11325401986CE0105C0CE010E94641B80E090E094
S1132550DF91CF911F910F910895CF93DF93FC01E9
S11325609489992391F083898150838B8F3F69F4F7
S1132570938B828D2585368580FF03C021503040A2
S113258002C02F5F3F4F258736879689992371F0C4
S113259085898150858B8F3F49F4958B828D9785F2
S11325A081FF02C09F5F01C091509787908D99234E
S11325B051F087898150878B8F3F39F4978B818DB8
S11325C091E0892701C081E0818F40E08085918579
S11325D083309105F1F08430910530F48130910518
S11325E069F0029789F05EC085309105B9F18530B4
S11325F0910558F1069709F442C054C09785828921
S1132600981709F054C04EC0258536858089918974
S113261043C02585368582859385B901681B790B6E
S11326206131710514F433230CF441E08785813161
S1132630CCF5992787FD90952485332727FD309580
S1132640820F931F992364F52DC0838D948D019778
S1132650838F948F8F5F9F4F51F524C0A281B381E4
S1132660109701F1ED018D859E852A853B85821B9E
S1132670930B2585368582179307C9F413C0A0816F
S1132680B181109779F08585968522853385821BE3
S1132690930BED012D853E852817390741F402C0BF
S11326A0442329F0CF010E94DB10992702C080E067
S11326B090E0DF91CF9108952F923F924F925F92D5
S11326C06F927F928F929F92AF92BF92CF92DF923E
S11326D0EF92FF920F931F93CF93DF93CDB7DEB7A3
S11326E023970FB6F894DEBF0FBECDBF7C011982CD
S11326F0FC01818D882309F4ADC0C480D580258573
S1132700368527844484420C31A0D6018C918150B3
S11327109927880F991F458D568DFA01E80FF91FE7
S1132720659174916A837B83FA01E80FF91F3296ED
S1132730859094902031310580F1632D77278A812B
S11327409B81860F971F8A839B838815990518F4AC
S1132750215030401FC0F70182A1281B31092150AC
S113276030400894C11CD11CD6018C91882309F4F3
S113277071C081509927880F991FFA01E80FF91F3A
S1132780A591B491AA83BB83FA01E80FF91F32968D
S1132790859094902031310590F6022F22230CF479
S11327A059C05524AA80BB80122D103154F5822DB6
S11327B0992787FD9095642C7724861597050CF549
S11327C0550C69F4B1E05B2EF701278D30A12A0D79
S11327D03B1D0894A11CB11CF901F491F983898172
S11327E0852139F017FD05C0802F912F61E00E94EB
S11327F017101F5F10312CF4812F992787FD9095B6
S1132800DCCF4A815B81430D511D4A835B834815AC
S11328105905E8F0F70182A1081B0894C11CD11CDA
S1132820D6018C918823B1F081509927880F991F84
S1132830258D368DF901E80FF91F459154914A838E
S11328405B83F901E80FF91F32968590949001504B
S113285007FFA7CF23960FB6F894DEBF0FBECDBFF8
S1132860DF91CF911F910F91FF90EF90DF90CF9068
S1132870BF90AF909F908F907F906F905F904F909C
S11328803F902F900895EF92FF920F931F93CF9351
S1132890DF93CDB7DEB7CD59D0400FB6F894DEBF85
S11328A00FBECDBF8C0189E0A6EEB1E0E3E9F2E012
S11328B00D9001928A95E1F780E290E00E94B51AAA
S11328C090939D0280939C0280E8FE017A96D80141
S11328D00D9001928A95E1F7C656DF4F188219824E
S11328E0CA59D040E0E0F0E0C456DF4FE883F983F2
S11328F0CC59D0402AE732E089E1FE013196D90172
S11329000D9001928A95E1F7C9010E94CF1B7C01C9
S1132910892B91F1C656DF4FE881F981CA59D0401D
S1132920EF2BA1F0C656DF4F08811981CA59D04058
S1132930D8010D90BC91A02DC656DF4FA883B98352
S1132940CA59D040C8010E94641BE4CF80919C0204
S113295090919D020E94641B4AE752E089E19E0126
S11329602F5F3F4FDA01F90101900D928A95E1F74B
S1132970B701CA010E94F01BCE014A960E94F111D0
S1132980C656DF4F88839983CA59D040892B09F4EE
S1132990A4C0C656DF4FA881B981CA59D0401D9240
S11329A01C921197FD0112821382C656DF4F0881D3
S11329B01981CA59D0400115110509F46AC0C8012A
S11329C00E94AD12882321F4D8010D911C9154C0AA
S11329D0813099F5C656DF4FE881F981CA59D04054
S11329E00E171F0749F480819181C656DF4F8883F3
S11329F09983CA59D04007C0F801A281B38180816C
S1132A0091818D939C93D8012D913C912115310591
S1132A1031F0F80182819381F90182839383D80193
S1132A200D90BC91A02DC456DF4FA883B983CC5917
S1132A30D040C8010E94641B25C0823019F580E093
S1132A4090E00E94F1119C01009799F0FC0102832F
S1132A501383D8018D919C911197808391838D91DB
S1132A609C91009719F0FC0122833383D8012D93A4
S1132A703C93F80100811181C456DF4F0883198308
S1132A80CC59D040C456DF4F08811981CC59D0406D
S1132A9092CF80E00E943610C656DF4F088119811C
S1132AA0CA59D0400115110539F0C8010E945C13C0
S1132AB0D8010D911C91F6CF0E94501082E090E055
S1132AC00E94BB05C656DF4FE881F981CA59D04040
S1132AD0309709F06ACFCF0151CF80919C02909139
S1132AE09D020E94641B89E1DE011196EAE7F2E08F
S1132AF00D9001928A95E1F7C356DF4F0FB6F89413
S1132B00DEBF0FBECDBFDF91CF911F910F91FF901C
S1132B10EF90089587B3807F87BB88B38F6088BBAD
S1132B208898909A0895CF92DF92EF92FF920F9334
S1132B301F93CF93DF93C82ED62E7A0180E00E9494
S1132B40DA0500E010E0E701C00FD11D412F4D0D63
S1132B50403158F4FE0184919C2D901B292F215F54
S1132B60342F682FC9010E94F3051F5F289618307F
S1132B7068F30F5F083030F3DF91CF911F910F910D
S1132B80FF90EF90DF90CF9008950F931F93CF9312
S1132B900FE016E099278130910521F0029711F496
S1132BA00FEC15E0C8EFA8016C2F8CE00E94931580
S1132BB080E590E00E94BB05CF5FC731A4F3CF91BD
S1132BC01F910F910895EF92FF920F931F93CF934C
S1132BD0DF937C0180E00E94DA0500E010E0C02F62
S1132BE0DD27C15BD94F103150F4FE0184919FE081
S1132BF0292F201B312F682FC9010E94F3051F5F65
S1132C006096103180F30F5F003140F3C7010E94DA
S1132C10BB05DF91CF911F910F91FF90EF90089525
S1132C20DF92EF92FF920F931F93CF93DF93F82ECF
S1132C30D62EE42E86E08F1558F110E000E0C0E0B7
S1132C40D0E0402F4E0D4031E0F48FE0F89EF001CB
S1132C50112424E030E0211B3109C901880F991F98
S1132C60820F931FE80FF91FEC0FFD1FEA59FA4F6B
S1132C7034912D2D211B822F815F942F632F0E946D
S1132C80F3050F5F21960330E0F21F5F1530B0F2B9
S1132C90DF91CF911F910F91FF90EF90DF900895F6
S1132CA01F93CF93C82F803168F410E0C03138F4FB
S1132CB02FE0822F811B9C2F63E00E94F3051F5F8E
S1132CC01031A0F3CF911F9108951F93CF93182F24
S1132CD0803168F4C0E0C03138F42FE0822F811BCA
S1132CE09C2F63E00E94F305CF5FC031A0F3CF9126
S1132CF01F910895CF93C0E080E00E94DA058C2FE5
S1132D000E94501680E293E00E94BB05CF5FC03161
S1132D1098F3C0E080E00E94DA058C2F0E946516CB
S1132D2080E293E00E94BB05CF5FC03198F3CF915E
S1132D300895EF92FF920F931F93CF93DF93182F71
S1132D4000E0C0E0D0E0E12EFF2497012C0F3D1FEE
S1132D50C90144966AE070E00E94641C892B51F416
S1132D60C9016AE070E00E94641C672B19F0802F8F
S1132D700E9450160F5F2196003128F300E0E7010E
S1132D806096CE0164E170E00E94641C892BF1F42A
S1132D90CE0164E170E00E94641C633071053CF074
S1132DA0802F8250482F6FE080E00E941016CE01E1
S1132DB064E170E00E94641C6230710539F4802F74
S1132DC08250482F6FE086E00E9410160F5F219614
S1132DD00331B8F200E0E7012296CE0164E170E02D
S1132DE00E94641C892B79F4CE0164E170E00E9496
S1132DF0641C962F915039F0802F8250482F6FE039
S1132E00892F0E9410160F5F2196033130F314317D
S1132E1000F500E0E701CE010B970997B0F4CE016D
S1132E20D7FD01968E7F9E01281B390B122F110F9F
S1132E30103158F4003138F42FE0822F811B902F89
S1132E4061E00E94F3051C5FF3CF0F5F2196003110
S1132E5010F3DF91CF911F910F91FF90EF900895A0
S1132E60CF92DF92EF92FF920F931F93CF93DF9352
S1132E70C7E0D3E1DD2480E00E94DA058DE60E94FC
S1132E809916D394D150FF24EE2400E010E09D2D38
S1132E9093708FE0989FF001112483E0F89EC001A5
S1132EA01124E80FF91FE00FF11FE65DFA4F64915A
S1132EB0662359F03E2D3D0F303138F42C2F2F1955
S1132EC0822F815F932F0E94F305E3940F5F1F4FBE
S1132ED082E08E15E0F6F39484E08F15A8F684E67C
S1132EE090E00E94BB05D83030F6DD246DE6C62E96
S1132EF080E00E94DA058C2D0E949916FF24EE24AE
S1132F0000E010E09D2D93708FE0989FF001112454
S1132F1083E0F89EC0011124E80FF91FE00FF11FB0
S1132F20E65DFA4F6491662359F03E2D3D0F303132
S1132F3038F42C2F2F19822F815F932F0E94F305D1
S1132F40E3940F5F1F4F82E08E15E0F6F39484E064
S1132F508F15A8F687E08C1550F4CA94D39484E6B0
S1132F6090E00E94BB058FEFD81609F0C1CF88EE20
S1132F7093E00E94BB05DF91CF911F910F91FF90C9
S1132F80EF90DF90CF900895DF92EF92FF920F932E
S1132F901F93082FD62E8FEE91E00E94431477EFF3
S1132FA0E72E71E0F72E1AE0802F612F0E94441C57
S1132FB0805D8093FC01802F0E94441C892F805DDA
S1132FC08093FD01C7010E9443148FEF91E00E949A
S1132FD043148D2D612F0E94441C805D8093FC015D
S1132FE08D2D0E94441C892F805D8093FD01C701B3
S1132FF00E9443141F910F91FF90EF90DF9008956A
S11330002F923F924F925F926F927F928F929F92F4
S1133010AF92BF92CF92DF92EF92FF920F931F93E2
S1133020CF93DF93CDB7DEB7C053D1400FB6F8943A
S1133030DEBF0FBECDBF1C0180E00E94DA0566240E
S113304077246214730408F0D1C071E0972E2E0126
S11330500894411C511C45E06EE1862EA92CBB242A
S1133060C5018C0F9D1F8C010F5F1F4F54E1C52EAE
S1133070D12CC80ED91E3DE0E32ED8018C91849F3B
S113308090011124F6018081889DC0011124280F2C
S1133090391F8389849FC0011124820F931F69E221
S11330A070E00E94641CF801628BEA9483E190E072
S11330B0C80ED91E080F191FE7FEDFCF8E010A0DB7
S11330C01B1D2EE1E22E21E0F22EEC0EFD1EEA0C79
S11330D0FB1CD7018C91849F900111246501C40CC1
S11330E0D51CF6018081889DC0011124280F391F49
S11330F0F8018489849FC0011124820F931F69E21F
S113310070E00E94641CD8016C938E01035E1E4F14
S11331100A0D1B1DF6018081849F90011124D701A3
S11331208C91889DC0011124280F391FFE01E55F91
S1133130FE4FEA0DFB1D8081849FC0011124820F84
S1133140931F69E270E00E94641CF8016083939409
S1133150F2E1F91508F082CF82010E5E1F4F9FE065
S1133160E92E0E94E407D8018C930D5E1F4FEA9468
S1133170E7FEF7CF9924EE2400E010E05801A92DD2
S1133180BB27FD0184E0EE0FFF1F8A95E1F7EA0DEE
S1133190FB1DE15BF94F8491882389F0EFE0E91589
S11331A070F08E2F8E19992DA00FB11FA40DB51D8F
S11331B02C91229526952770622F0E94F305E394A3
S11331C00894A11CB11C0D5E1F4FFFE0FE15B8F65C
S11331D09394F91580F682E390E00E94BB0508946D
S11331E0611C711C6214730408F42FCFC05DDE4FA0
S11331F00FB6F894DEBF0FBECDBFDF91CF911F9104
S11332000F91FF90EF90DF90CF90BF90AF909F9081
S11332108F907F906F905F904F903F902F90089584
S11332203F924F925F926F927F928F929F92AF9252
S1133230BF92CF92DF92EF92FF920F931F93CF939F
S1133240DF93CDB7DEB7C25CD1400FB6F894DEBFD2
S11332500FBECDBF9924892C73EF672E71E0772EB2
S113326010E065EB462E512C4C0E5D1EE12FFF271E
S113327054E0EE0FFF1F5A95E1F7EC0FFD1FEB54DE
S1133280FF4F0FE01192015007FFFCCF1F5F103179
S113329068F3DD24D91408F09EC045EBE42E41E028
S11332A0F42EEC0EFD1E5E010894A11CB11C36E048
S11332B0332E4D2D5527FA01EE0FFF1FEE0FFF1F82
S11332C0E40FF51FE40FF51FEA0DFB1DD701232DB5
S11332D001900D922A95E1F77FEFCC24F7016281EA
S11332E06695669566956717A1F1DE01AB54BE4FEE
S11332F0FD018181082F1127262F3327C901800F53
S1133300911F4097D4F4872F829586958695837074
S113331011F091E0C92E8C91E82FFF2784E0EE0F85
S1133320FF1F8A95E1F7E20FF31FE00FF11FE40D91
S1133330F51D8081871708F47083872F8295869501
S11333408770FD019381899F802D1124781B615022
S113335098F6F701958196958281890F8283FA0107
S1133360EE0FFF1FEE0FFF1FE40FF51FE40FF51F15
S1133370EA0DFB1DD701232D0D9001922A95E1F74B
S1133380CC2029F56D2D292D3327215030404217AB
S11333905307DCF446E0862F9927FC01EE0FFF1F4C
S11333A0EE0FFF1FE80FF91FE80FF91FEA0DFB1DD1
S11333B0DF011696842F0D9001928A95E1F76F5FD5
S11333C0862F99278217930734F39A94DA94D39427
S11333D0D91408F46ECF00E010E0EE24FF24670156
S11333E0A02FBB27FD0184E0EE0FFF1F8A95E1F7B4
S11333F0EC0DFD1DE15BF94F6491662339F000315A
S1133400D8F42FE0822F811B902F14C00031A0F438
S11334108FE0282F211B302FAE0DBF1DCE018B5402
S11334209F4FA80FB91F8C918295869586958370BE
S1133430682FC9010E94F3051F5F0894C11CD11CA9
S1133440A0E1B0E0EA0EFB1E103150F20F5F003134
S113345008F4C2CFB5E0BB2EBDE1B91508F45CC0D9
S11334600E94E407082F0F71003108F000E0892D55
S11334709927FC01EE0FFF1FEE0FFF1FE80FF91F46
S1133480E80FF91FCE010196E80FF91FCF53DE4F65
S1133490E883F983C15CD140F5EBCF2EF1E0DF2E58
S11334A0CC0EDD1EEBEBEE2EE1E0FE2EEC0EFD1E4F
S11334B00E94E4078F70D7018C93F7010183FE010A
S11334C0E354FE4F10820E94E4078770845FFE017C
S11334D0E254FE4F8083882D8394FE01E154FE4F15
S11334E080830E94E4078F708D5FFE01E054FE4FDD
S11334F0808346E050E0B701C6010E94C61B86E007
S1133500CF53DE4FA881B981C15CD140F60101904F
S11335100D928A95E1F79394BA94B7FE9DCF80E516
S113352090E00E94BB05089461087108FFEF6F16D4
S1133530FFEF7F0609F094CECE53DE4F0FB6F8941A
S1133540DEBF0FBECDBFDF91CF911F910F91FF90D2
S1133550EF90DF90CF90BF90AF909F908F907F902F
S11335606F905F904F903F900895CF93DF939C01AD
S1133570029710F422E030E040E050E06091A102B4
S11335807091A202FB01DA016115710569F1808174
S113359091818217930709F452C02817390738F428
S11335A04115510519F08417950708F4AC01DF01A2
S11335B00280F381E02D309751F741155105A1F0B8
S11335C0DA01A21BB30B149708F443C0DB010AC051
S11335D06D917C9111976417750709F450C0FD0132
S11335E0A281B3811097A1F7E0919F02F091A0020C
S11335F0309741F4E0910B02F0910C02F093A00299
S1133600E0939F024091090250910A02411551052D
S113361029F14E1B5F0B42175307E8F0C9010296CC
S113362048175907C0F0EF01C20FD31F2296D09359
S1133630A002C0939F0221933193CF0142C01097FF
S1133640B1F082819381ED018A839B83CF0102963D
S113365038C09A01BBCF80E090E033C04DB75EB76D
S1133660A0910D02B0910E024A1B5B0BD2CF2281B6
S113367033813093A2022093A102CF01E8CF241713
S1133680350761F0EA01C21BD30BFD01EC0FFD1FEE
S1133690219331932297CD93DC93CFCF309741F090
S11336A0ED014A815B8142835383CD01029609C0B7
S11336B0FD01828193819093A2028093A102CD01A6
S11336C0F5CFDF91CF910895CF93DF93009709F45D
S11336D05AC0DC011297ED011A821B828091A1026B
S11336E09091A2020097D9F1FC0140E050E0EA1762
S11336F0FB0748F4AF010280F381E02D3097A1F07D
S1133700EA17FB07B8F3ED01EA83FB832D913C91A3
S11337101197E901CA0FDB1FCE0102968E179F078E
S113372019F141155105D9F0EA01AA83BB83CA01F5
S1133730029628813981820F931F8A179B0719F5F6
S11337406D917C911197260F371F2E5F3F4F288371
S11337503983FD01428153814A835B8314C0B09352
S1133760A202A093A1020FC06A817B81260F371F9A
S11337702E5F3F4F2D933C93119722813381FD019E
S113378022833383CECFDF91CF910895FB01DC01F7
S113379002C001900D9241505040D8F70895FC01A9
S11337A0ADB7BEB711960D90068A0C90058AA28B10
S11337B0B38B0FB6048A20823182428253826482A0
S11337C0758286829782A086B186C286D386E48675
S11337D0F58606871787C08BD18B8827992708958C
S11337E0DC01862F972F81309105811D2D903D900E
S11337F04D905D906D907D908D909D90AD90BD901D
S1133800CD90DD90ED90FD900D911D91CD91DD91C8
S1133810ED91FD910D90F894FEBF0FBEEDBFED91BB
S1133820FD910994009731F4DA018D919C910097F0
S113383009F40EC0DC01FB013D912191222319F012
S11338403217C9F3FACF332331F4DA011D921C92F3
S11338508827992708951197AF93BF93FB013D9152
S11338602191321771F4332321F488279927119772
S113387002C01E921196FA01A193B0839F918F9179
S11338800895222369F7EACF991B79E004C0991FB0
S1133890961708F0961B881F7A95C9F780950895A6
S11338A0AA1BBB1B51E107C0AA1FBB1FA617B70762
S11338B010F0A61BB70B881F991F5A95A9F780957E
S11338C09095BC01CD01089597FB092E07260AD0D7
S11338D077FD04D0E5DF06D000201AF470956195D9
S11138E07F4F0895F6F7909581959F4F0895B8
S11338EE3C2F23576572206E69636874206881705B
S11338FE667420646572206973742065696E202075
S113390E834C4E4552003E2F23686579003C2F238D
S113391E686579003C32352F23576F726C642042F0
S113392E6F776C20584956003C32352F2352686508
S113393E696E204669726500642F237673003C32EB
S113394E352F23416D7374657264616D2041646D0E
S113395E6972616C73003C32352F234672616E6B53
S113396E667572742020476179202D204C65636B37
S113397E202D20536965003C32352F234481737307
S113398E656C646F726620526865696E2046697252
S113399E65003C32352F23436F6C6F676E65204391
S11339AE656E747572696F6E73003C32352F2353D6
S11339BE616D737461672032302E204D6169203140
S11339CE393A3030003C32352F234C545520417255
S11339DE656E612C2044817373656C646F7266002E
S11339EE3C32302F23696465612020616E6420208F
S11339FE7265616C69736174696F6E003C32302F4D
S1133A0E23444153204C41424F52202D20426F6398
S1133A1E68756D003C32302F237777772E6461738F
S1133A2E2D6C61626F722E6F7267003C32352F23DC
S1133A3E21212120544F554348444F574E202121D4
S1133A4E21000102040810204080AA000000000199
S1133A5E0002000300000001010001010100010148
S1133A6E0001000223000D4404840020862E023C33
S1133A7E2F23464952450078703130237878003E22
S1133A8E2F2347414C415859000000A30220000047
S9030000FC
