:100000000C9424030C943F030C943F030C943F0383
:100010000C943F030C943F030C943F030C943F0358
:100020000C943F030C943F030C947F030C943F0308
:100030000C943F030C943F030C943F030C943F0338
:100040000C943F030C943F030C943F030C943F0328
:100050000C943F03010102030302010103030201A7
:100060000102030303030202030302020000000073
:100070000000000000000000000000000000000080
:10008000000000000000FC021C0000001C009003A7
:10009000F0009C03F0009C0018012402FC072402DD
:1000A000C80118002400240298016000980144024D
:1000B00040028001800158022402640298018002FB
:1000C0001C00F0030804040804080804F0032800D6
:1000D0001C00280040004000F001400040000000EB
:1000E000000E800080008000000000020003F0008D
:1000F0000C00F801040204020402F80110000800D8
:10010000FC030802040384024402380208010402CA
:1001100024022402D801C000B0008800FC03800043
:1001200030012C0224022402C401F801240224021A
:100130002402C8010400840364001C000400D801E8
:10014000240224022402D801380144024402440259
:10015000F8011002100E4000A000A000A000100145
:10016000A000A000A000A000A0001001A000A0001E
:10017000A000400008000400C40224001800E003AE
:100180001804C809240A140A1409E40B340A0805DF
:10019000F0040003C000B8008400B800C0000003F1
:1001A000FC032402240224022402F801F0000801C6
:1001B0000402040204020801FC0304020402040213
:1001C0000801F000FC032402240224022402FC03A0
:1001D0002400240024000400F000080104020402AA
:1001E00044024801C000FC03200020002000200041
:1001F000FC03FC03800100020002FC01FC03400040
:100200002000700088010402FC03000200020002CA
:100210000002FC031800E0000003E0001800FC03EB
:10022000FC0308003000C0000001FC03F0000801DE
:100230000402040204020801F000FC03440044002C
:1002400044003800F000080104028402840208011E
:10025000F002FC03240024006400A4011802180129
:100260002402240244024402880104000400FC0326
:1002700004000400FC010002000200020002FC0174
:100280000C003000C0000003C00030000C00F00083
:100290000003C000380004003800C0000003F00074
:1002A0000C00040298016000600098010402040040
:1002B00018002000C00320001800040000020403FE
:1002C000C40234020C020402FC0F04080C00F0000B
:1002D00000030408FC0F2000180004001800200090
:1002E00000080008000800080008000804000800D2
:1002F000A001500250025001E003FC032001100253
:100300001002E001E0011002100210022001E001E1
:10031000100210022001FC03E001500250025002C2
:1003200060011000F8031400E009100A100A200907
:10033000F007FC03200010001000E003F403F407B2
:10034000FC034000A0011002FC03F0032000100099
:10035000F00320001000E003F00310001000100074
:10036000E003E001100210021002E001F00F200192
:1003700010021002E001E001100210022001F00F53
:10038000F0032000100020015002500290022001D2
:10039000FC031002F001000200020001F003300033
:1003A000C0000003C00030003000C0000003E000C7
:1003B0001000E0000003C000300010022001C00067
:1003C000200110021000E0090007C00030001002F8
:1003D00010039002700210024000B8070408FC0FDE
:1003E00000000408B80740006000200060004000E2
:1003F00020000000020004000A0014001E0030006B
:100400003C003E0044004A0050005A005E00640078
:1004100068006E0078007E00880092009C00A600B4
:10042000B000BA00C400CE00D000D200DC00E6006C
:10043000F000FA000E011C012801340140014A01BC
:10044000540162016E017001780184018E019C01EA
:10045000A801B601C001CE01DA01E601F001FC01FC
:100460000A021E022A023802440248024E025202C6
:100470005C0268026C02760280028A0294029E028A
:10048000A402AE02B802BA02BC02C402C602D4027E
:10049000DE02E802F202FC0202030C0310031A035C
:1004A0002403360340034A0354035A035C036403E2
:1004B0006E030001000002020003000002000100C0
:1004C0000000010000020000030002020000010021
:1004D0000100000002000003000002020001000011
:1004E00001000202000003000002000001000303FB
:1004F00003030003030003030003030303000303D8
:1005000003000300000300000300000303030300D3
:1005100000030003000300000303030303030000C0
:1005200003000303000003030303030003030003AA
:10053000030303000003000003030303030000039D
:100540000303000003030303000000000000000099
:10055000000000000000000000000000000000009B
:10056000000000000000000000000000000000008B
:100570000000000000000000000000000000000378
:10058000030000000000000003000000000003035F
:100590000000000000000000030000000000030253
:1005A0000300000003000000030303000000030237
:1005B0000300000300000000030202030303020221
:1005C000020303020300000000030202020202020F
:1005D00002020202020303000000030302020202FD
:1005E00002020202020202030000000003030303EE
:1005F00003030303030202030000000000000000E5
:1006000000000300000302030000000000000000DF
:1006100000030203030202030000000000000000C8
:1006200000030202020202030000000000000000BA
:1006300000000302020203000000000000000000AE
:10064000000000030303000011241FBECFE5D8E023
:10065000DEBFCDBF10E0A0E6B0E0E2E2F4E302C00E
:1006600005900D92AC3FB107D9F711E0ACEFB0E0C7
:1006700001C01D92AF38B107E1F70C940C040C9443
:100680000000382F1BBA15BA23E10000215027FFC4
:10069000FCCF24E13323D1F4949A9698959A9598B7
:1006A000969A862F99278130910559F082309105CD
:1006B0001CF4892B21F00CC0029731F009C085E0B1
:1006C00001C088E08CBF04C02CBF02C0959A9598E9
:1006D00023E10000215027FFFCCFE62FFF2784E015
:1006E000EE0FFF1F8A95E1F7E30FF11DEE0FFF1FDD
:1006F000ED5FFE4F80818BBB818185BB08951F928A
:100700000F920FB60F9211242F933F934F938F9315
:100710009F93EF93FF93A8953091FD004091FC00CB
:100720001BBA15BA23E10000215027FFFCCF24E1BA
:100730003323D1F4949A9698959A9598969A842F03
:1007400099278130910559F0823091051CF4892B4D
:1007500021F00CC0029731F009C085E001C088E0AB
:100760008CBF04C02CBF02C0959A959823E100006D
:10077000215027FFFCCFE42FFF2794E0EE0FFF1F4F
:100780009A95E1F7E30FF11DEE0FFF1FED5FFE4FAE
:1007900080818BBB818185BB832F8F5F8093FD0020
:1007A000803151F41092FD00842F8F5F8093FC0004
:1007B000833011F41092FC00FF91EF919F918F9183
:1007C0004F913F912F910F900FBE0F901F90189552
:1007D000F8941BBA15BA12BA13BE789408958BE038
:1007E00083BF12BE84E18CBF82E089BF08958FEF82
:1007F0008ABB84BB80EF81BB1BBA15BA12BA0E94B8
:10080000EF03A89588E190E028E00FB6F894A8954A
:1008100081BD0FBE21BD0895CFE5D8E0DEBFCDBFBD
:1008200080E00E94C4040E94F7030E94561478944A
:1008300086E691E00E9469198093640180916501C8
:100840008093630181E080938A01B39906C00E947E
:10085000F61488E790E00E94A504809164018093DB
:1008600065018091640199278630910509F447C09C
:100870008730910594F48330910579F184309105A6
:1008800034F48130910511F1029721F14FC0843089
:10089000910531F1059779F149C089309105D1F180
:1008A0008A30910534F48730910561F1089769F138
:1008B0003DC08B329105B1F18C3291051CF40E973D
:1008C00061F134C08F3F910551F130C080E00E944A
:1008D000C4042CC080E690E01AC00E94AA1626C06C
:1008E00083E790E00E940F1380ED97E00E945F1471
:1008F00084E890E00CC084E10E94660917C00E9461
:10090000B81514C00E94D30911C089E990E00E9473
:100910000F130CC00E944F0B09C081E005C00E945C
:10092000560604C08091630180936401B19902C0AE
:10093000B0998BCFB09BFECF81E080938A018091EC
:1009400064018F5F8093640180CF9C018DE085BD41
:100950008DE783BD12161306B4F480918A018823B3
:1009600051F0B09908C010928A016BE270E086E6FF
:1009700091E00E948A1908B607FEFDCF80E888BF83
:1009800021503040E7CF08954FEF90E0292F3327D3
:1009900055E0220F331F5A95E1F72D5F3E4F981710
:1009A00009F440E0F901215E3F4F41932E173F07C4
:1009B000E0F79F5F933050F30895E82F282F2F70B2
:1009C000643008F063E09F70990F26952695269570
:1009D000920FE770FF27E255FF4FE08120E02617D6
:1009E00068F4A92FBB27AD5FBE4F262F8C918E2BAD
:1009F0008C93215090962223C9F7262FE09523301F
:100A0000A0F4892F9927A22FBB2765E0AA0FBB1F4F
:100A10006A95E1F78D5F9E4FA80FB91F8C918E23C9
:100A20008C932F5F90962330C8F308951F93CF9334
:100A3000DF9330E0832F99271FE0C5E0880F991FCF
:100A4000CA95E1F7EC01CD5FDE4FAC01BC01DB01E3
:100A5000AC5FBE4FFA01ED5FFE4F208126952083EB
:100A60008C919927817090709695982F88279795EB
:100A70008795282B208389818695898311506E5F05
:100A80007F4F4E5F5F4F229617FFE1CF3F5F3330BE
:100A900088F2DF91CF911F910895AC01803110F45D
:100AA000503118F08FEF90E0089560E070E0982FDB
:100AB000282F269526952695E52FFF27EE0FFF1F59
:100AC000ED5FFE4FE20FF11D9770A92FBB27A255D6
:100AD000BF4F80819C91892311F061E070E0CB01D0
:100AE00008959C016130710561F06130710538F045
:100AF0006230710561F06330710531F00BC08150D7
:100B000001C08F5F932F05C0932F9F5F02C0932F6B
:100B10009150AC01CA010E944D059927089581307A
:100B2000910579F08130910530F08230910561F0C6
:100B3000039721F00CC083E090E0089581E090E0FD
:100B4000089582E090E0089580E090E0089580E0CC
:100B500090E00895FC01CB0160837183248135818D
:100B60002115310521F02130310519F0089560E09B
:100B700001C063E00E94DD0408959C0161307105AD
:100B800061F06130710538F06230710561F06330F9
:100B9000710531F00BC0815001C08F5F932F089514
:100BA000932F9F5F0895932F9150089580E090E0D8
:100BB0000895EF92FF921F93CF93DF93EC017A0198
:100BC000662381F0162F6A817B81888199810E943A
:100BD000BD05BC01CE010E94AA05C7010E94A50463
:100BE000115089F7DF91CF911F91FF90EF900895F9
:100BF0001F93CF9310E0C0E08C2F912F63E00E94F1
:100C0000DD0484E690E00E94A504CF5FC031A0F32C
:100C10001F5F103180F3CF911F9108951F93CF93E1
:100C200010E0C0E08C2F912F61E00E94DD0485E090
:100C300090E00E94A504CF5FC031A0F31F5F103188
:100C400080F384E690E00E94A504FBCF1F93CF932E
:100C500010E0C0E08C2F912F62E00E94DD0485E05F
:100C600090E00E94A504CF5FC031A0F31F5F103158
:100C700080F384E690E00E94A504FBCF1F93CF93FE
:100C800010E0C0E08C2F912F63E00E94DD0485E02E
:100C900090E00E94A504CF5FC031A0F31F5F103128
:100CA00080F384E690E00E94A504FBCF80E00E94E0
:100CB000C40484E690E00E94A504FBCFEF92FF926B
:100CC0001F93CF93DF93CDB7DEB726970FB6F89477
:100CD000DEBF0FBECDBF7C0180E00E94C4041B823A
:100CE0001C8281E090E08D839E838FE090E0BC01C8
:100CF000CE0101960E94AA0511E007C0182FA70196
:100D000061E0CE0101960E94D9056B817C818981C9
:100D10009A810E947105882389F38B819C810E94AE
:100D20008F058B839C83112339F31D821E8287E0FC
:100D3000982FBC01CE0101960E94AA0510E08B817C
:100D40009C810E948F05BC0189819A810E94710556
:100D5000882331F08B819C810E948F058B839C833B
:100D60006B817C8189819A810E947105682F813015
:100D700031F4A701CE0101960E94D90501C011E00E
:100D80001123E9F226960FB6F894DEBF0FBECDBF51
:100D9000DF91CF911F91FF90EF900895E1E0F0E097
:100DA0004091B6005091B70067E09A01220F331FBF
:100DB000CA01969587958170907028273927852FCD
:100DC00099278170907028273927CA01892F992780
:100DD00086958170907028273927CA01892F992715
:100DE000829586958770817090702827392757FFE4
:100DF00002C02E273F27A901615067FFD6CF30934D
:100E0000B7002093B6008091B600992708952F92DD
:100E10003F924F925F926F927F928F929F92AF928A
:100E2000BF92CF92DF92EF92FF920F931F93CF93D7
:100E3000DF93CDB7DEB7CA59D0400FB6F894DEBF06
:100E40000FBECDBF88E0982F89839A8397E08B836C
:100E50009C839E012D5F3F4FCB56DF4F2883398304
:100E6000C559D040CE010196C956DF4F888399837A
:100E7000C759D040332432E0632E712C832D0E9459
:100E8000C404C756DF4F3882C959D040C756DF4F18
:100E90009881C959D0409F5FC756DF4F9883C95981
:100EA000D040CB56DF4FE881F981C559D0408190C1
:100EB0009190CB56DF4FE883F983C559D04021E8A4
:100EC000422E512C4C0E5D1EE415F50549F49E0191
:100ED0002F5F3F4FCB56DF4F28833983C559D04012
:100EE000C656DF4F1882CA59D040C656DF4F2880F9
:100EF000CA59D040B22CB31408F049C0AA24CA2C55
:100F0000DD24B601C4010E94BD05EB2CFF2487013E
:100F10000E0D1F1D040D151DF8019081981741F548
:100F2000B601C4010E94BD05F8018181891701F550
:100F3000F1E0C656DF4FF883CA59D0403601232D61
:100F4000332721503040E216F30684F4EB2DFF27BF
:100F5000EE0FFF1FE40DF51D828193818083918345
:100F6000B3948B2D99278217930784F33A9415C075
:100F7000A39423E02A1518F6B394BDCF239435E04B
:100F8000231609F4EFC0C3010E948F053C01B30191
:100F9000C4010E947105882389F7B301C4010E942E
:100FA000BD05CB56DF4FE881F981C559D04080831C
:100FB000918363E00E94DD040E94CE06803508F034
:100FC00082C070E09FEFE92EF72E332031F40E94AB
:100FD000CE068370682E772479C0672F731508F0CA
:100FE00042C08E010F571F4FCB56DF4FE881F9816A
:100FF000C559D0405081A62FBB27FD01EA0FFB1F2A
:10100000E00FF11FE081E51718F4452F4E1B02C0D9
:101010004E2F451BAA0FBB1FA00FB11FCB56DF4F92
:10102000E881F981C559D0408181FD0191819817EE
:1010300018F4E82FE91B02C0E92FE81B842F8E0F5C
:10104000912D911D9C018E2D99272817390744F465
:10105000E42EEE0E762FFF24E41710F481E0F82E34
:101060006F5F631540F2CE018F579F4FE72FFF2729
:10107000FF20A1F066247724EE0FFF1FE80FF91F71
:101080009081CB56DF4FE881F981C559D0408081EE
:101090008917C8F401E0602E712C15C0EE0FFF1FF8
:1010A000E80FF91F9181CB56DF4FE881F981C559CF
:1010B000D0408181891720F413E0612E712C03C088
:1010C000B2E06B2E712CF8E0F315E8F00E94CE062A
:1010D0008A30C8F40E94CE06082F0F700E94CE06F8
:1010E000182F1F70C8010E944D05882361F4E32D5D
:1010F000FF27EE0FFF1FCE018F579F4FE80FF91FFD
:10110000008311833394C656DF4F2881CA59D040DB
:10111000222309F070C0622FC956DF4FE881F981A0
:10112000C759D04081919191C956DF4FE883F98327
:10113000C759D0400E94DD04CE018F579F4FC9563A
:10114000DF4F28813981C759D0402817390709F066
:1011500052C0CE010196C956DF4F88839983C75983
:10116000D04049C0C956DF4FE881F981C759D04006
:10117000CB56DF4F28813981C559D040E217F3079C
:1011800009F465C060E0C956DF4FE881F981C759AD
:10119000D04081919191C956DF4FE883F983C759B7
:1011A000D0400E94DD04CE018F579F4FC956DF4FBC
:1011B00028813981C759D0408217930740F4CE0166
:1011C0000196C956DF4F88839983C759D0408CE375
:1011D00090E00E94A504C956DF4FE881F981C75904
:1011E000D040CB56DF4F28813981C559D040E21716
:1011F000F30741F62CC0BB24B31420F5CE018F5762
:101200009F4FEB2DFF271B2D1F5FC756DF4F6881B8
:10121000C959D0406170C756DF4F3881C959D04095
:1012200030FF06C0EE0FFF1FE80FF91F63E004C098
:10123000EE0FFF1FE80FF91F808191810E94DD04EE
:10124000B12EDACF84E690E00E94A5041FCEC656E8
:10125000DF4F0FB6F894DEBF0FBECDBFDF91CF9149
:101260001F910F91FF90EF90DF90CF90BF90AF90C4
:101270009F908F907F906F905F904F903F902F90B6
:1012800008951F93CF93C1E083E00E94C4041FE43C
:101290008C2F9FE020E030E0F901ED5BFE4F819361
:1012A0008083880F09F481E091502E5F3F4F97FFB4
:1012B000F3CFCC0F09F4C1E084E690E00E94A504CE
:1012C000115017FFE5CFCF911F9108951F93CF9332
:1012D000182F80E00E94C404C0E0C11708F044C089
:1012E000A5E5B0E020E030E06FE0A901C901817020
:1012F0009070FD0102C0EE0FFF1F8A95E2F7CF014B
:10130000FA01ED5BFE4F8193808361502F5F3F4F69
:101310004E5F5F4F67FFEACF88EC90E00E94A50424
:10132000AAEAB0E020E030E06FE0A901C9018170D5
:101330009070FD0102C0F595E7958A95E2F7CF011F
:10134000FA01ED5BFE4F8193808361502F5F3F4F29
:101350004E5F5F4F67FFEACF88EC90E00E94A504E4
:10136000CF5FC11708F4BCCFCF911F9108950F93A1
:101370001F93CF9301E010E0C0E08C2F912F602FDE
:101380000E94DD048AE090E00E94A504CF5FC03196
:10139000A0F31F5F103180F30F5F043060F3CF9133
:1013A0001F910F9108953F924F925F926F927F929B
:1013B0008F929F92AF92BF92CF92DF92EF92FF9265
:1013C0000F931F93CF93DF93CDB7DEB7C05CD140AF
:1013D0000FB6F894DEBF0FBECDBF9924892C73EFF2
:1013E000672E71E0772E10E065EB462E512C4C0EE7
:1013F0005D1EE12FFF2754E0EE0FFF1F5A95E1F726
:10140000EC0FFD1FEB54FF4F0FE01192015007FF4F
:10141000FCCF1F5F103168F3CC24C91408F09EC0C4
:1014200045EBE42E41E0F42EEC0EFD1E5E01089427
:10143000A11CB11C36E0332E4C2D5527FA01EE0FBE
:10144000FF1FEE0FFF1FE40FF51FE40FF51FEA0D5E
:10145000FB1DD701832D01900D928A95E1F77FEF57
:10146000DD24F70162816695669566956717A1F19F
:10147000DE01AB54BE4FFD018181082F1127262FBD
:101480003327C901800F911F4097D4F4872F82958D
:1014900086958695837011F091E0D92E8C91E82F76
:1014A000FF2784E0EE0FFF1F8A95E1F7E40DF51D9D
:1014B000E20FF31FE00FF11F8081871708F470839C
:1014C000872F829586958770FD019381899F802D56
:1014D0001124781B615098F6F701958196958281C9
:1014E000890F8283FA01EE0FFF1FEE0FFF1FE40F3B
:1014F000F51FE40FF51FEA0DFB1DD701832D0D909D
:1015000001928A95E1F7DD2029F56C2D292D3327ED
:101510002150304042175307DCF446E0862F9927CC
:10152000FC01EE0FFF1FEE0FFF1FE80FF91FE80F82
:10153000F91FEA0DFB1DDF011696942F0D90019205
:101540009A95E1F76F5F862F99278217930734F3F7
:101550009A94CA94C394C91408F46ECF00E010E0C2
:10156000EE24FF24812F902FFE01EB54FF4FEE0D50
:10157000FF1DE00FF11D20812295269526952370F1
:10158000622F0E94DD041F5FA0E1B0E0EA0EFB1EA7
:10159000103140F30F5F003110F3E5E0AE2EBDE1F6
:1015A000B91508F453C00E94CE067FE1B72EB822C9
:1015B000EFE0EB1508F4BB24892D99278C01000F6F
:1015C000111F000F111F080F191F080F191FCE013F
:1015D0000196080F191F55EBC52E51E0D52ECC0EE4
:1015E000DD1E4BEBE42E41E0F42EEC0EFD1E0E94BE
:1015F000CE068F70D7018C93F701B182FE01E354C0
:10160000FE4F10820E94CE068770845FFE01E25476
:10161000FE4F8083882D8394FE01E154FE4F80832A
:101620000E94CE068F708D5FFE01E054FE4F8083D6
:1016300046E050E0B701C6010E94601986E0D8017B
:10164000F60101900D928A95E1F79394AA94A7FE72
:10165000A6CF80E590E00E94A50408946108710877
:10166000FFEF6F16FFEF7F0609F0BDCEC054DE4FCF
:101670000FB6F894DEBF0FBECDBFDF91CF911F91A3
:101680000F91FF90EF90DF90CF90BF90AF909F9021
:101690008F907F906F905F904F903F9008954F9202
:1016A0005F927F928F929F92AF92BF92CF92DF9282
:1016B000EF92FF920F931F93CF93DF93CDB7DEB7D7
:1016C000C053D1400FB6F894DEBF0FBECDBF882403
:1016D000992411E0E12E5E010894A11CB11C45E0A3
:1016E000BEE17B2ECE2CDD24CE018C0D9D1D8C0108
:1016F0000F5F1F4FA4E14A2E512C480E591EFDE0EA
:10170000FF2ED8018C91849F90011124F2018081D9
:10171000879DC0011124280F391F8389849FC00130
:101720001124820F931F6CE270E00E94FE19F801F1
:10173000628BFA9483E190E0480E591E080F191F3E
:10174000F7FEDFCFF601EA0DFB1D8F01035E1E4F92
:10175000D8018C91849F900111248081879DC001C4
:101760001124280F391F8389849FC0011124820FFF
:10177000931F6CE270E00E94FE19629331968081A3
:10178000849F90011124D8018C91879DC001112460
:10179000280F391FE65FFE4F8081849FC00111240E
:1017A000820F931F6CE270E00E94FE1972966083B4
:1017B000E394B2E1BE1508F095CF85010E5E1F4F90
:1017C000EFE0FE2E0E94CE06F80180830D5E1F4FD3
:1017D000FA94F7FEF7CFEE24FF2485010E0D111DBC
:1017E0008F2D9E2DD8012C910D5E1F4F2295269591
:1017F0002770622F0E94DD04F394BFE0BF1580F7CD
:10180000E394BE1548F782E390E00E94A504089493
:10181000811C911CE0E28E16E3E09E0608F459CF8D
:10182000C05DDE4F0FB6F894DEBF0FBECDBFDF91B7
:10183000CF911F910F91FF90EF90DF90CF90BF90CD
:10184000AF909F908F907F905F904F9008952F92D0
:101850003F92AF92BF92CF92DF92EF92FF920F939F
:101860001F93CF93DF93CDB7DEB76A970FB6F89487
:10187000DEBF0FBECDBF1B8A1C8A1D8A1E8A1F8A2F
:10188000188E198E1A8E29823A822B833C834D83BF
:101890005E836F83788789879A8788E0DE01139655
:1018A000FE013B960D9001928A95E1F7073079F59C
:1018B000D1011C92EC91FF27EE0FFF1F8E010F5FED
:1018C0001F4FE00FF11F2285822F8F5F93850E94AB
:1018D0004D05982F882309F040C0F10180818F5F6A
:1018E0008083E82F843038F3D1019C93892FE82F2F
:1018F000FF27EE0FFF1FE00FF11F82858F5F8287AA
:10190000F10180818F5F8083843088F326C00B30A3
:1019100021F5D1011C929C919E012F5F3F4FFE014A
:101920003B96808132968823C1F0892F8F5FD10149
:101930008C93982F8430A8F31C928C91E82FFF276A
:10194000EE0FFF1FE20FF31F828581508287F101A6
:1019500080818F5F8083843088F3EA89FB85FB8BED
:101960008C858C8BAD85AD8BBE85FF858889A989DB
:10197000AB88BC88CD882A2D3B2D4C2D5B2F6F2F3B
:10198000782F8A2F9E2F6A960FB6F894DEBF0FBE6F
:10199000CDBFDF91CF911F910F91FF90EF90DF901E
:1019A000CF90BF90AF903F902F9008952F923F928D
:1019B000CF92DF92EF92FF920F931F93CF93DF931B
:1019C000CDB7DEB7AA970FB6F894DEBF0FBECDBF76
:1019D00029823A822B833C834D835E836F83788791
:1019E00089879A8788E03BE0E32EF12CEC0EFD1E00
:1019F000FE013396D701282F01900D922A95E1F729
:101A000096B39F70AE014D5E5F4FDA01F701282F4C
:101A100001900D922A95E1F723E2C22ED12CCC0E33
:101A2000DD1ED601FA0101900D928A95E1F79730FB
:101A300079F5D1011C92EC91FF27EE0FFF1F8E016B
:101A40000F5F1F4FE00FF11F22A1822F8F5F93A125
:101A50000E944D05982F882309F043C0F101808131
:101A60008F5F8083E82F843038F3D1019C93892FD6
:101A7000E82FFF27EE0FFF1FE00FF11F82A18F5FFE
:101A800082A3F10180818F5F8083843088F329C035
:101A90009B3039F5D1011C929C919E012F5F3F4FE5
:101AA000E92FFF27EE0FFF1FE20FF31F82A188230C
:101AB000C1F0892F8F5FF1018083982F843080F3EC
:101AC00010828081E82FFF27EE0FFF1FE20FF31F28
:101AD00082A1815082A3D1018C918F5F8C9384303D
:101AE00088F388E09E01255E3F4FF901D601982FCB
:101AF0000D9001929A95E1F7D701F901982F019085
:101B00000D929A95E1F7D601F70101900D928A9511
:101B1000E1F713E0EE24FF246E010894C11CD11CF0
:101B2000F701EC0DFD1D63E0828593850E94DD04C5
:101B3000115082E090E0E80EF91E17FFEDCF82EC25
:101B400091E00E94A50413E09BE0E92EF12CEC0E3D
:101B5000FD1E60E0D7018D919D917D010E94DD0405
:101B6000115017FFF6CF13E0F60183A18F5F83A317
:101B70001150329617FFF9CF10E082E2E82EF12CD7
:101B8000EC0CFD1CF701819191917F010E944D05A4
:101B9000882321F41F5F1430A8F302C0882359F46E
:101BA0002BA13CA14DA15EA16FA178A589A59AA505
:101BB0000E94D60C10C013E00AE0202E312C2C0C11
:101BC0003D1C63E0D1018D919D911D010E94DD04BA
:101BD000115017FFF6CFAA960FB6F894DEBF0FBECE
:101BE000CDBFDF91CF911F910F91FF90EF90DF90CC
:101BF000CF903F902F9008952F923F92CF93DF93F5
:101C0000CDB7DEB769970FB6F894DEBF0FBECDBF74
:101C10008FE088BB80E00E94C4041982298188E09B
:101C2000922F63E00E94DD0489818F5F8983282FD2
:101C30008031A8F388E0A8EBB0E0FE013296982F3F
:101C40000D9001929A95E1F7A0ECB0E0FE013A9672
:101C5000982F0D9001929A95E1F7A8ECB0E0FE0163
:101C600072960D9001928A95E1F71E010894211C4D
:101C7000311C2A853B854C855D856E857F858889ED
:101C800099890E94D60C1E010894211C311C2A81BE
:101C90003B814C815D816E817F81888599850E9421
:101CA000D60C1E010894211C311C2A893B894C89C1
:101CB0005D896E897F89888D998D0E94D60C1E0161
:101CC0000894211C311C2A853B854C855D856E85D9
:101CD0007F85888999890E94D60C1E010894211C51
:101CE000311C2A853B854C855D856E857F8588897D
:101CF00099890E94D60C1E010894211C311C2A814E
:101D00003B814C815D816E817F81888599850E94B0
:101D1000D60C1E010894211C311C2A893B894C8950
:101D20005D896E897F89888D998D0E94D60C1E01F0
:101D30000894211C311C2A853B854C855D856E8568
:101D40007F85888999890E94D60C1E010894211CE0
:101D5000311C2A813B814C815D816E817F81888528
:101D600099850E94D60C1E010894211C311C2A89D9
:101D70003B894C895D896E897F89888D998D0E9408
:101D8000D60C1E010894211C311C2A813B814C81F8
:101D90005D816E817F81888599850E94D60C1E01A8
:101DA0000894211C311C2A893B894C895D896E89E4
:101DB0007F89888D998D0E94D60C69960FB6F8940C
:101DC000DEBF0FBECDBFDF91CF913F902F90089522
:101DD0009C016623D9F0832F8F70A82FBB27822FF9
:101DE000869586958695AA0FBB1FA80FB11D809179
:101DF000880190918901A80FB91F2770E22FFF2752
:101E0000E255FF4F8C919081892B8C93089530E09F
:101E1000832F9927880F991F21E0E0918801F09185
:101E20008901E80FF91F10822150019627FFF5CF95
:101E30003F5F303168F3089550E060918801709100
:101E4000890140E0252F3327E4E0220F331FEA9574
:101E5000E1F7842F9927F901E80FF91FEE0FFF1F13
:101E6000ED5FFE4FDC01A80FB91FA60FB71F91E071
:101E70008D918193915097FFFBCF4F5F403148F395
:101E80005F5F5330F0F208950F931F93CF93DF936A
:101E9000EC0160E070E0AC81BD819D919923F9F087
:101EA0000D8D1E8D8AA1482F5527440F551F915027
:101EB000892F9927880F991F800F911FFC01329657
:101EC00025913491FC0185919491281B390B620F67
:101ED000731F640F751F8D91982F882341F789A177
:101EE000282F3327CB01B9010E94EA19CB01DF91DA
:101EF000CF911F910F910895CF93DF93EC0120E0D4
:101F000030E0AE81BF818C9180538A30D8F4C90112
:101F1000F3E0880F991FFA95E1F7820F931F280FBE
:101F2000391FFD018D91992787FD9095280F391F45
:101F300020533040AE83BF83818180538A3038F391
:101F4000C90102C08FEF9FEFDF91CF9108951F93DA
:101F5000CF93DF93EC0110E0EE81FF818081882335
:101F600009F405C1EE81FF818191992787FD909544
:101F7000EE83FF838436910509F457C085369105B9
:101F800044F58B33910509F4E6C08C3391059CF43C
:101F90008D32910509F4A9C08E32910524F48B97F6
:101FA00009F4E3C0D9CF8F32910509F4D1C0CA97A3
:101FB00009F4D4C0D1CF8E33910529F18F33910527
:101FC0001CF4CC97E9F0C8CF8236910509F464C0BF
:101FD000C3CF88379105F1F18937910544F48037F3
:101FE000910509F49CC08537910511F1B5CF89376A
:101FF000910509F444C08C37910509F45CC0ACCF5D
:102000008A8D8E7F02C08A8D81608A8FCE010E9468
:102010007C0F9C018FEF2F3F380711F02C8B02C0F3
:1020200084E18C8B8C898B8B97CF8A8D826002C0E8
:102030008A8D8D7F8A8FCE010E947C0F9C018FEF4D
:102040002F3F380711F02E8B02C084E18E8B8E89D2
:102050008D8B82CFCE010E947C0F9C018FEF2F3F92
:10206000380719F02D873E8777CF8A859B8597FDA6
:1020700001969595879508968D879E876DCFCE01A1
:102080000E947C0F9C018FEF2F3F380709F464CF2B
:102090008C85281B2F8760CFCE010E947C0F9C016E
:1020A0008FEF2F3F380711F0288F02C082E3888F0F
:1020B000888D8F8B51CFCE010E947C0F9C018FEFBA
:1020C0002F3F380719F0288B398B0CC02A853B85A8
:1020D000C9010E9697FF02C0C9010F969595879585
:1020E000888B998B82E090E03BC0CE010E947C0FF0
:1020F0009C018FEF2F3F380771F48C85992787FD5E
:10210000909520E130E0281B390B37FF02C02F5F8C
:102110003F4F359527952A8B81E090E021C01C8A9E
:102120001E8ACE010E947C0F9C018FEF2F3F380743
:1021300041F0A6E0220F331FAA95E1F72B8F3C8FC9
:1021400004C080E897E08B8F9C8F84E090E008C00B
:1021500083E090E005C085E090E002C086E090E07A
:1021600088879987812F992704C012E0F5CE81E0F6
:1021700090E0DF91CF911F9108950F931F93CF931C
:10218000DF938C01892B11F01092FE0083E290E026
:102190000E944F18EC018091FE008823D9F44FEF84
:1021A00050E060ED70E0C8010E94AC198E839F83FF
:1021B000892B09F494C0CE010E947C0F2FEF8F3F32
:1021C000920741F08093FE008E819F8190930201DF
:1021D000809301018091FE00882349F08150809313
:1021E000FE0080910101909102018E839F834FEF49
:1021F00050E060ED70E080E090E00E94AC199C013E
:102200008C839D83892B09F46AC080918001909111
:1022100081018D8F9E8F80918201909183018F8F9C
:1022200098A38091870189A3F9019091840120915D
:1022300085018081882371F031E0891730F08217A1
:1022400020F4891B8F5F808301C0308331968081A9
:10225000882399F781E08AA380917F018C87CE0142
:102260000E94440FAC018A879B87EE81FF81E08149
:10227000EC3319F41D861E8606C0EE33A1F4405FD0
:102280005F4F4D875E878C85992787FD909520E16C
:1022900030E0281B390B37FF02C02F5F3F4F3595C9
:1022A00027952F8715C0E43619F48C85819503C0D6
:1022B000E53771F48C858F879A01225F3F4F37FF96
:1022C00003C09A01215F3F4F359527952D873E87A3
:1022D0001C8A1E8A188E18861986CE0105C0CE016A
:1022E0000E94FE1880E090E0DF91CF911F910F9146
:1022F0000895CF93DF93FC019489992391F083890A
:102300008150838B8F3F69F4938B828D2585368531
:1023100080FF03C02150304002C02F5F3F4F258710
:1023200036879689992371F085898150858B8F3FF7
:1023300049F4958B828D978581FF02C09F5F01C014
:1023400091509787908D992351F087898150878B81
:102350008F3F39F4978B818D91E0892701C081E00F
:10236000818F40E08085918583309105F1F0843044
:10237000910530F48130910569F0029789F05EC0D3
:1023800085309105B9F18530910558F1069709F42A
:1023900042C054C097858289981709F054C04EC036
:1023A000258536858089918943C025853685828536
:1023B0009385B901681B790B6131710514F43323DE
:1023C0000CF441E087858131CCF5992787FD909504
:1023D0002485332727FD3095820F931F992364F5B9
:1023E0002DC0838D948D0197838F948F8F5F9F4F26
:1023F00051F524C0A281B381109701F1ED018D85C3
:102400009E852A853B85821B930B25853685821701
:102410009307C9F413C0A081B181109779F0858525
:10242000968522853385821B930BED012D853E8594
:102430002817390741F402C0442329F0CF010E9434
:10244000A70F992702C080E090E0DF91CF91089517
:102450002F923F924F925F926F927F928F929F92B4
:10246000AF92BF92CF92DF92EF92FF920F931F93A2
:10247000CF93DF93CDB7DEB723970FB6F894DEBFC7
:102480000FBECDBF7C011982FC01818D882309F428
:10249000ADC0C480D5802585368527844484420C10
:1024A00031A0D6018C9181509927880F991F458DB5
:1024B000568DFA01E80FF91F659174916A837B8349
:1024C000FA01E80FF91F329685909490203131057A
:1024D00080F1632D77278A819B81860F971F8A83DE
:1024E0009B838815990518F4215030401FC0F701CF
:1024F00082A1281B3109215030400894C11CD11CF5
:10250000D6018C91882309F471C081509927880FD6
:10251000991FFA01E80FF91FA591B491AA83BB8313
:10252000FA01E80FF91F3296859094902031310519
:1025300090F6022F22230CF459C05524AA80BB80A8
:10254000122D103154F5822D992787FD9095642C1A
:102550007724861597050CF5550C69F461E0562E25
:10256000F701278D30A12A0D3B1D0894A11CB11C39
:10257000F901F491F9838981852139F017FD05C0AE
:10258000802F912F61E00E94E80E1F5F10312CF424
:10259000812F992787FD9095DCCF4A815B81430D80
:1025A000511D4A835B8348155905E8F0F70182A164
:1025B000081B0894C11CD11CD6018C918823B1F052
:1025C00081509927880F991F258D368DF901E80FC5
:1025D000F91F459154914A835B83F901E80FF91F74
:1025E000329685909490015007FFA7CF23960FB69F
:1025F000F894DEBF0FBECDBFDF91CF911F910F9139
:10260000FF90EF90DF90CF90BF90AF909F908F9012
:102610007F906F905F904F903F902F900895EF9232
:10262000FF920F931F93CF93DF93CDB7DEB7CD59B2
:10263000D0400FB6F894DEBF0FBECDBF8C0189E04D
:10264000A2EDB0E0EFE7F1E00D9001928A95E1F79D
:1026500080E290E00E944F18909389018093880156
:1026600080E8FE017A96D8010D9001928A95E1F7F3
:10267000C656DF4F18821982CA59D040E0E0F0E018
:10268000C456DF4FE883F983CC59D04026E631E0C9
:1026900089E1FE013196D9010D9001928A95E1F709
:1026A000C9010E9469197C01892B91F1C656DF4F3F
:1026B000E881F981CA59D040EF2BA1F0C656DF4F0F
:1026C00008811981CA59D040D8010D90BC91A02D24
:1026D000C656DF4FA883B983CA59D040C8010E94AB
:1026E000FE18E4CF80918801909189010E94FE1824
:1026F00046E651E089E19E012F5F3F4FDA01F90183
:1027000001900D928A95E1F7B701CA010E948A19DA
:10271000CE014A960E94BD10C656DF4F888399832A
:10272000CA59D040892B09F4A4C0C656DF4FA881EE
:10273000B981CA59D0401D921C921197FD01128295
:102740001382C656DF4F08811981CA59D04001153E
:10275000110509F46AC0C8010E947911882321F487
:10276000D8010D911C9154C0813099F5C656DF4FA8
:10277000E881F981CA59D0400E171F0749F48081BA
:102780009181C656DF4F88839983CA59D04007C0CC
:10279000F801A281B381808191818D939C93D801AE
:1027A0002D913C912115310531F0F8018281938101
:1027B000F90182839383D8010D90BC91A02DC4565A
:1027C000DF4FA883B983CC59D040C8010E94FE18BE
:1027D00025C0823019F580E090E00E94BD109C0178
:1027E000009799F0FC0102831383D8018D919C918D
:1027F0001197808391838D919C91009719F0FC0132
:1028000022833383D8012D933C93F80100811181F9
:10281000C456DF4F08831983CC59D040C456DF4FCC
:1028200008811981CC59D04092CF80E00E94070FD7
:10283000C656DF4F08811981CA59D04001151105CC
:1028400039F0C8010E942812D8010D911C91F6CFD1
:102850000E941C0F82E090E00E94A504C656DF4F44
:10286000E881F981CA59D040309709F06ACFCF0189
:1028700051CF80918801909189010E94FE1889E1D1
:10288000DE011196E6E6F1E00D9001928A95E1F7FE
:10289000C356DF4F0FB6F894DEBF0FBECDBFDF913A
:1028A000CF911F910F91FF90EF90089587B3807F94
:1028B00087BB88B38F6088BB8898909A0895EF9201
:1028C000FF920F931F93CF93DF937C0180E00E94D0
:1028D000C40400E010E0C02FDD27C85BDA4F1031E0
:1028E00050F4FE0184919FE0292F201B312F682F87
:1028F000C9010E94DD041F5F6096103180F30F5FF5
:10290000003140F3C7010E94A504DF91CF911F91D0
:102910000F91FF90EF900895DF92EF92FF920F9347
:102920001F93CF93DF93F82ED62EE42E85E08F15DC
:1029300058F110E000E0C0E0D0E0402F4E0D4031F3
:10294000E0F48FE0F89EF001112424E030E0211B38
:102950003109C901880F991F820F931FE80FF91FD2
:10296000EC0FFD1FE251FB4F34912D2D211B822FC7
:10297000815F942F632F0E94DD040F5F2196033047
:10298000E0F21F5F1530B0F2DF91CF911F910F91F0
:10299000FF90EF90DF9008951F93CF93C82F803161
:1029A00068F410E0C03138F42FE0822F811B9C2F97
:1029B00063E00E94DD041F5F1031A0F3CF911F91EF
:1029C00008951F93CF93182F803168F4C0E0C03171
:1029D00038F42FE0822F811B9C2F63E00E94DD04DE
:1029E000CF5FC031A0F3CF911F910895CF93C0E086
:1029F00080E00E94C4048C2F0E94CC1480E293E0FB
:102A00000E94A504CF5FC03198F3C0E080E00E942F
:102A1000C4048C2F0E94E11480E293E00E94A5047C
:102A2000CF5FC03198F3CF910895CF92DF92EF92AC
:102A3000FF920F931F93CF93DF93C7E0DC2FDD242A
:102A400065E0C62E80E00E94C4048D2D64E10E94E2
:102A5000DE19192F892F0E94CC14812F885F0E94C4
:102A6000CC14812F8450482F6FE08C2D0E948C1441
:102A7000112309F4CA94FF24EE2400E010E09D2DF8
:102A800093708FE0989FF001112483E0F89EC001BD
:102A90001124E80FF91FE00FF11FEE54FB4F649172
:102AA000662359F03E2D3D0F303138F42C2F2F196D
:102AB000822F815F932F0E94DD04E3940F5F1F4FED
:102AC00082E08E15E0F6F39484E08F15A8F6D39497
:102AD00085E08C1540F086E990E00E94A5048FEF18
:102AE000D81609F0AFCFDF91CF911F910F91FF90D2
:102AF000EF90DF90CF900895DF92EF92FF920F93C7
:102B00001F93082FD62E8BED90E00E940F1373EECB
:102B1000E72E70E0F72E1AE0802F612F0E94DE1959
:102B2000805D8093E800802F0E94DE19892F805DF0
:102B30008093E900C7010E940F138BEE90E00E9482
:102B40000F138D2D612F0E94DE19805D8093E800A8
:102B50008D2D0E94DE19892F805D8093E900C701C9
:102B60000E940F131F910F91FF90EF90DF90089537
:102B70004F925F927F928F929F92AF92BF92CF922D
:102B8000DF92EF92FF920F931F93CF93DF93CDB716
:102B9000DEB7C053D1400FB6F894DEBF0FBECDBF35
:102BA00080E00E94C4048824992461E0E62E5E013E
:102BB0000894A11CB11C45E05EE1752ECE2CDD24ED
:102BC000CE018C0D9D1D8C010F5F1F4F34E1432EF4
:102BD000512C480E591E2DE0F22ED8018C91849F65
:102BE00090011124F2018081879DC0011124280FDA
:102BF000391F8389849FC0011124820F931F69E2CA
:102C000070E00E94FE19F801628BFA9483E190E073
:102C1000480E591E080F191FF7FEDFCFF601EA0D07
:102C2000FB1D8F01035E1E4FD8018C91849F900184
:102C300011248081879DC0011124280F391F8389A9
:102C4000849FC0011124820F931F69E270E00E94EB
:102C5000FE19629331968081849F90011124D801DE
:102C60008C91879DC0011124280F391FE65FFE4F0C
:102C70008081849FC0011124820F931F69E270E05C
:102C80000E94FE1972966083E394B2E1BE1508F0CB
:102C900095CF85010E5E1F4F9FE0F92E0E94CE0654
:102CA000F80180830D5E1F4FFA94F7FEF7CFEE24F4
:102CB000FF248501CC24DD24AE2DBB27FD0184E05B
:102CC000EE0FFF1F8A95E1F7EC0DFD1DE85BFA4F53
:102CD0008491882379F0FFE0FE1560F08F2F8F1923
:102CE0009E2DA00FB11F2C91229526952770622F43
:102CF0000E94DD04F3940894C11CD11C0D5E1F4F8B
:102D00008FE08F15C8F6E3948E1590F682E390E07D
:102D10000E94A5040894811C911C90E2891693E0FE
:102D2000990608F442CFC05DDE4F0FB6F894DEBFBF
:102D30000FBECDBFDF91CF911F910F91FF90EF900C
:102D4000DF90CF90BF90AF909F908F907F905F90DB
:102D50004F9008953F924F925F926F927F928F9221
:102D60009F92AF92BF92CF92DF92EF92FF920F931A
:102D70001F93CF93DF93CDB7DEB7C25CD1400FB6C0
:102D8000F894DEBF0FBECDBF9924892C73EF672E58
:102D900071E0772E10E065EB462E512C4C0E5D1E37
:102DA000E12FFF2754E0EE0FFF1F5A95E1F7EC0FDC
:102DB000FD1FEB54FF4F0FE01192015007FFFCCFB6
:102DC0001F5F103168F3DD24D91408F09EC045EB75
:102DD000E42E41E0F42EEC0EFD1E5E010894A11CD1
:102DE000B11C36E0332E4D2D5527FA01EE0FFF1F93
:102DF000EE0FFF1FE40FF51FE40FF51FEA0DFB1D9B
:102E0000D701232D01900D922A95E1F77FEFCC2475
:102E1000F70162816695669566956717A1F1DE01F7
:102E2000AB54BE4FFD018181082F1127262F332778
:102E3000C901800F911F4097D4F4872F8295869502
:102E40008695837011F091E0C92E8C91E82FFF27B1
:102E500084E0EE0FFF1F8A95E1F7E40DF51DE20F08
:102E6000F31FE00FF11F8081871708F47083872F0D
:102E7000829586958770FD019381899F802D11240D
:102E8000781B615098F6F701958196958281890F9C
:102E90008283FA01EE0FFF1FEE0FFF1FE40FF51FF5
:102EA000E40FF51FEA0DFB1DD701232D0D900192B4
:102EB0002A95E1F7CC2029F56D2D292D33272150B6
:102EC000304042175307DCF446E0862F9927FC0177
:102ED000EE0FFF1FEE0FFF1FE80FF91FE80FF91F9E
:102EE000EA0DFB1DDF011696842F0D9001928A9545
:102EF000E1F76F5F862F99278217930734F39A942F
:102F0000DA94D394D91408F46ECF00E010E0EE24E4
:102F1000FF246701402F5527FA0184E0EE0FFF1FC1
:102F20008A95E1F7EC0DFD1DE85BFA4F649166238D
:102F300039F00031D8F42FE0822F811B902F14C07C
:102F40000031A0F48FE0282F211B302FFE01EB541D
:102F5000FF4FEE0DFF1DE40FF51F808182958695D2
:102F600086958370682FC9010E94DD041F5F089455
:102F7000C11CD11CA0E1B0E0EA0EFB1E103150F2E2
:102F80000F5F003108F4C2CFB5E0BB2EBDE1B9152B
:102F900008F45CC00E94CE06082F0F71003108F0C3
:102FA00000E0892D9927FC01EE0FFF1FEE0FFF1F98
:102FB000E80FF91FE80FF91FCE010196E80FF91F7E
:102FC000CF53DE4FE883F983C15CD140E5EBCE2ED1
:102FD000E1E0DE2ECC0EDD1E7BEBE72E71E0F72E5E
:102FE000EC0EFD1E0E94CE068F70D7018C93F70168
:102FF0000183FE01E354FE4F10820E94CE068770CB
:10300000845FFE01E254FE4F8083882D8394FE018D
:10301000E154FE4F80830E94CE068F708D5FFE01CB
:10302000E054FE4F808346E050E0B701C6010E94A5
:10303000601986E0CF53DE4FA881B981C15CD140D1
:10304000F60101900D928A95E1F79394BA94B7FE38
:103050009DCF80E590E00E94A50408946108710866
:10306000FFEF6F16FFEF7F0609F094CECE53DE4FD1
:103070000FB6F894DEBF0FBECDBFDF91CF911F9189
:103080000F91FF90EF90DF90CF90BF90AF909F9007
:103090008F907F906F905F904F903F900895CF9367
:1030A000DF939C01029710F422E030E040E050E012
:1030B00060918D0170918E01FB01DA01611571053E
:1030C00069F1808191818217930709F452C0281712
:1030D000390738F44115510519F08417950708F49C
:1030E000AC01DF010280F381E02D309751F74115EB
:1030F0005105A1F0DA01A21BB30B149708F443C0E9
:10310000DB010AC06D917C9111976417750709F472
:1031100050C0FD01A281B3811097A1F7E0918B010E
:10312000F0918C01309741F4E091F700F091F800B4
:10313000F0938C01E0938B014091F5005091F600E3
:103140004115510529F14E1B5F0B42175307E8F05B
:10315000C901029648175907C0F0EF01C20FD31FEB
:103160002296D0938C01C0938B0121933193CF0190
:1031700042C01097B1F082819381ED018A839B83D5
:10318000CF01029638C09A01BBCF80E090E033C0F7
:103190004DB75EB7A091F900B091FA004A1B5B0BE6
:1031A000D2CF2281338130938E0120938D01CF01C4
:1031B000E8CF2417350761F0EA01C21BD30BFD01EC
:1031C000EC0FFD1F219331932297CD93DC93CFCF4A
:1031D000309741F0ED014A815B8142835383CD01F9
:1031E000029609C0FD018281938190938E018093A4
:1031F0008D01CD01F5CFDF91CF910895CF93DF936E
:10320000009709F45AC0DC011297ED011A821B8263
:1032100080918D0190918E010097D9F1FC0140E0E1
:1032200050E0EA17FB0748F4AF010280F381E02D7C
:103230003097A1F0EA17FB07B8F3ED01EA83FB83AF
:103240002D913C911197E901CA0FDB1FCE01029627
:103250008E179F0719F141155105D9F0EA01AA838C
:10326000BB83CA01029628813981820F931F8A1776
:103270009B0719F56D917C911197260F371F2E5FD3
:103280003F4F28833983FD01428153814A835B8309
:1032900014C0B0938E01A0938D010FC06A817B8111
:1032A000260F371F2E5F3F4F2D933C93119722819E
:1032B0003381FD0122833383CECFDF91CF910895F7
:1032C000FB01DC0102C001900D9241505040D8F743
:1032D0000895FC01ADB7BEB711960D90068A0C900B
:1032E000058AA28BB38B0FB6048A20823182428278
:1032F00053826482758286829782A086B186C28656
:10330000D386E486F58606871787C08BD18B8827FE
:1033100099270895DC01862F972F81309105811D13
:103320002D903D904D905D906D907D908D909D90F5
:10333000AD90BD90CD90DD90ED90FD900D911D91E3
:10334000CD91DD91ED91FD910D90F894FEBF0FBEF2
:10335000EDBFED91FD910994009731F4DA018D9163
:103360009C91009709F40EC0DC01FB013D91219175
:10337000222319F03217C9F3FACF332331F4DA01DB
:103380001D921C928827992708951197AF93BF9398
:10339000FB013D912191321771F4332321F48827E9
:1033A0009927119702C01E921196FA01A193B0833A
:1033B0009F918F910895222369F7EACF991B79E0B5
:1033C00004C0991F961708F0961B881F7A95C9F7B5
:1033D00080950895AA1BBB1B51E107C0AA1FBB1F04
:1033E000A617B70710F0A61BB70B881F991F5A9591
:1033F000A9F780959095BC01CD01089597FB092E02
:1034000007260AD077FD04D0E5DF06D000201AF4A5
:10341000709561957F4F0895F6F7909581959F4F30
:0234200008950D
:103422003C2F23464952452076732E2047414C417A
:103432005859003C2F3E322F23524845494E2046D0
:1034420049524500623E31302F3C23524845494E95
:10345200233C2F2346495245003C2F237777772E72
:103462006461732D6C61626F722E6F72670001026C
:10347200040810204080AA0000000001000200039E
:103482000000000101000101010001010001000230
:1034920023000DF2038400207E2E023C2F23464996
:1034A20052450078703130237878003E2F2347410F
:0C34B2004C4158590000008F0120000020
:00000001FF
